:10000000D5C10000F0C10000EEC10000ECC100004D
:10001000EAC10000E8C10000E6C10000E4C1000040
:10002000E2C10000E0C100000C94222F0C946C2F60
:100030000C941020D8C10000D6C10000D4C100002B
:10004000D2C100000C94C922CEC10000CCC1000076
:10005000CAC10000C8C10000C6C10000C4C1000080
:10006000C2C10000C0C10000BEC10000BCC1000090
:10007000BAC10000B8C10000B6C10000B4C10000A0
:10008000B2C10000B0C10000AEC10000ACC10000B0
:10009000AAC10000A8C10000A6C10000A4C10000C0
:1000A000A2C10000A0C100009EC10000A332A8327E
:1000B000B732D132DF32FB320133073313337636B6
:1000C00091362C3631336E34A634EB340435123588
:1000D0003035B335C135E13504366B35E636E636B5
:1000E000373643365736CB3215331C3328331C355D
:1000F000E636E63699330634BC33B0335333CF3368
:10010000E933E133F3330134E63667335D33D83313
:100110008133ED324535637C777BF26B6FC53001FF
:10012000672BFED7AB76CA82C97DFA5947F0ADD4AA
:10013000A2AF9CA472C0B7FD9326363FF7CC34A57E
:10014000E5F171D8311504C723C31896059A071233
:1001500080E2EB27B27509832C1A1B6E5AA0523B22
:10016000D6B329E32F8453D100ED20FCB15B6ACBD9
:10017000BE394A4C58CFD0EFAAFB434D338545F9E1
:10018000027F503C9FA851A3408F929D38F5BCB68A
:10019000DA2110FFF3D2CD0C13EC5F974417C4A7FC
:1001A0007E3D645D197360814FDC222A908846EEA3
:1001B000B814DE5E0BDBE0323A0A4906245CC2D397
:1001C000AC629195E479E7C8376D8DD54EA96C5630
:1001D000F4EA657AAE08BA78252E1CA6B4C6E8DD26
:1001E000741F4BBD8B8A703EB5664803F60E6135B1
:1001F00057B986C11D9EE1F8981169D98E949B1E4E
:1002000087E9CE5528DF8CA1890DBFE64268419968
:100210002D0FB054BB16920F003C06007300000077
:100220002121210100000F01012B00280005008081
:10023000FF000800550F040F04301030100055FD6A
:100240000112AE00B30191CA013FA20100A1010059
:10025000A0020611B50100AB0101B402A0FDC1016D
:10026000FFC7010FB101E2D1028220BB0108B60134
:100270000FBE0107A6000801200321032203230368
:10028000240326030C321C041D041E042504270429
:100290000E400EC001C13601C03601C1060000018A
:1002A00000009A031200020000FD0242002200003A
:1002B0007E031C002100000F0309002201003F0300
:1002C0003F002101002F030900030000F90204018F
:1002D000030904F5020202030904DD021616034DA8
:1002E000006F006F006C00740069007000610073A3
:1002F0000073000000020300000403090409024225
:10030000000201008032090400000203000000091D
:100310002111010001221C00070502034000010712
:1003200005810340000109040100010301010009E6
:100330002111010001223F00070583030800010588
:10034000010906A10175019508050719E029E715BE
:100350000025018102950175088103950575010548
:1003600008190129059102950175039103950675F8
:1003700008150025680507190029688100C00631A5
:10038000FF0A7400A1017508150026FF00954009B9
:10039000018102954009029102C012010002000091
:1003A0000020D016A00900010102000111241FBE87
:1003B000CFEFDAE0DEBFCDBF11E0A0E0B1E0E4ECCA
:1003C000FFE602C005900D92A833B107D9F727E0E8
:1003D000A8E3B1E001C01D92A238B207E1F70E9484
:1003E00000230C94E0370CCE87FF04C0880F9BE1FC
:1003F00089270895880F08959C0190E1915050F04D
:10040000D901A90FB11DEC91F0E0EA5EFE4FE49135
:10041000EC93F4CF0895AC0190E1915068F0292F4E
:1004200030E0FA01E20FF31FDB01A20FB31F80815E
:100430002C9128272083F1CF0895CF93DF93EC01EF
:10044000FA0190E19150D8F0292F30E0DB01A20FA2
:10045000B31F5C91DF01A20FB31F5C93DE01A20FFB
:10046000B31F8C9158275C93205F3F4FDB01A20F95
:10047000B31F8C91DF01A20FB31F8C93E3CFDF91E9
:10048000CF910895FC018181958191839185958318
:1004900095859187858782859281928782838381E2
:1004A000978593839385978797819387878386859D
:1004B0009681968786830895A0E0B0E0E2E6F2E0B8
:1004C0000C942B37EC015C018FEFA81AB80A6E016F
:1004D000E2E0CE0ED11C7E01F3E0EF0EF11C4E01E6
:1004E00080E1880E911C0881F5015080F601408062
:1004F000F7017080852D8027672C6424162D18271E
:1005000073DF8127982F90279883842D85256CDFB2
:10051000912F9827F501808198279083862D64DF9D
:10052000912F9827F601808198279083872D802727
:100530005BDF8127F7011081812780832496F4E017
:10054000AF0EB11C84E0C80ED11CE4E0EE0EF11C2D
:10055000C815D90541F6CDB7DEB7E0E10C944737B1
:10056000CF93DF93DC01EB015D96EC915D97F0E0BA
:10057000EA5EFE4FE4918881E8278C91E827EC93AE
:100580005E96EC915E97F0E0EA5EFE4FE491119684
:100590008C911197E8271196EC9311975F96EC9147
:1005A0005F97F0E0EA5EFE4FE49112968C9112970D
:1005B000E8271296EC9312975C96EC915C97F0E02A
:1005C000EA5EFE4FE49113968C911397E8271396F9
:1005D000EC9313978881982F991F9927991F2BE1E6
:1005E000929F902D1124880F89278883FD013796CB
:1005F0009D012D5E3F4FBF0163507109AF01475010
:100600005109EB019881EA0188818927EB018883F0
:100610006F5F7F4F4F5F5F4FEB019881EA018881E9
:100620008927EB0188834F5F5F4FEF019A91BE01ED
:10063000EA0188818927EB018883EF012497908163
:100640008881892780833496E217F307A1F61C96E8
:10065000EC911C97F0E0EA5EFE4FE49150968C918D
:100660005097E8275096EC9350971D96EC911D9764
:10067000F0E0EA5EFE4FE49151968C915197E827A5
:100680005196EC9351971E96EC911E97F0E0EA5E1E
:10069000FE4FE49152968C915297E8275296EC9334
:1006A00052971F96EC911F97F0E0EA5EFE4FE4919F
:1006B00053968C915397E8275396EC935397FD01EB
:1006C0007796AD014D5D5F4FEF0123979F01275056
:1006D00031098881D9019C919827988321962F5FB1
:1006E0003F4F8881D9019C9198279883EF012F5F14
:1006F0003F4F8A91D9019C9198279883EF012497C5
:1007000080819881982790833496E417F507E1F665
:10071000DF91CF910895CF92DF92FF920F931F93B5
:10072000CF93DF931F92CDB7DEB721E029836B0112
:10073000FC01E05CFF4F9C01205A3F4F0E2FFF2E23
:10074000D6014D916D014193CF018197DC014C930E
:10075000E217F307A9F718E0115039F0BE016F5FF7
:100760007F4F802F9F2DFCDEF7CF0F90DF91CF9131
:100770001F910F91FF90DF90CF900895AF92BF929D
:10078000DF92EF92FF920F931F93CF93DF931F920D
:10079000CDB7DEB77C018B01BC01605E7F4FAC0141
:1007A000C8014BDE81E08983DD24D394570180E1C9
:1007B000A80EB11CC80120DEC80164DEC8017CDEC1
:1007C000D0FE02C0B50106C0BE016F5F7F4FC701FA
:1007D000C7DEB701C8011FDED3948EE0D812EACF7E
:1007E000C8010ADEC8014EDEBE016F5F7F4FC70140
:1007F000B7DEB701C8010FDE0F90DF91CF911F91D7
:100800000F91FF90EF90DF90BF90AF900895DC01C3
:10081000FB01415028F081919C9189278D93F9CF5C
:1008200008954131C8F4362FDC01A05ABF4FFB01B7
:100830002E2F231B241718F421912D93F9CFFC019F
:10084000403139F0E40FF11DE05AFF4F10824F5F45
:10085000F6CFE058FF4F10820895EF92FF921F935A
:10086000CF93DF93213140F4122F7A01EC0153DF53
:10087000412FB701CE01D5DFDF91CF911F91FF90BE
:10088000EF900895AC01662351F06150FA01E60F34
:10089000F11D908121E0290F20839F3FA1F308954E
:1008A000A0E0B0E0E6E5F4E00C9429377C014B01D0
:1008B0006A0100E010E0EC01C058DF4F5C0180E706
:1008C000A80EB11C80E1482E512C370180E6680E3D
:1008D000711C0C151D0580F5888181110DC0F50175
:1008E000DF0150978C918193EC17FD07C9F7B50193
:1008F000C70144DF80E18883888190E01601201AD7
:10090000310A8215930508F41C01B201681B790BAA
:1009100060597F4F6E0D7F1D422DC401800F911FC6
:1009200076DF020D131D8881821988838111D1CF52
:1009300060E1C301A7DFCDCFCDB7DEB7E2E10C9414
:100940004537AECF08958BE08A95F1F70895299A3F
:10095000FADF2998F8CF2998F6DF299AF4CF46983C
:100960007698F1DFF0CF769A4698EDCFA1E0B0E02F
:10097000ECEBF4E00C943937469A8983E4DF898103
:10098000882311F02A9A01C02A98DDDF299ADBDF3B
:10099000469884E090E00E9473212998D4DF2A9839
:1009A000D2DF2196E2E00C9455371CBC29982A9896
:1009B000CADFD5CFCF93DF93882339F0823041F05F
:1009C000813049F0C0E0D0E008C0C4EBD5E005C0FC
:1009D000C8E1D6E002C0C9EFD5E0E7DF219710F00B
:1009E000B6DFFCCF769A81E0C1DFBDDF83E58CBD49
:1009F000DF91CF910895A1E0B0E0E1E0F5E00C9443
:100A000039378091F802898389818130A1F0898109
:100A1000882389F08FB7F8949091F802923021F4EE
:100A200091E09093F80206C09091F802933011F48F
:100A30001092F8028FBF89812196E2E00C9455371D
:100A40001F93CF93DF93182F882319F0C0EBD2E0C8
:100A500002C0C0EED4E0A9DF219710F07CDFFCCF0C
:100A6000112319F0C0E3D0E002C0C0E2D0E06BDF98
:100A7000219718F068DF6FDFFBCF299864DF63DF11
:100A80002A9861DF60DF80E071DF6DDF83E58CBD78
:100A9000DF91CF911F9108950F931F93CF93DF9311
:100AA0008C0183DFC0E5D0E056DF2197E9F74BDF0B
:100AB000CFE0D0E0F801208131810C2E02C03695C4
:100AC00027950A94E2F720FF02C02A9801C02A9ACB
:100AD0003ADF41DF219770F7299835DF34DF2A9814
:100AE00032DF31DFC0E0D0E01B9B1AC081E03EDF87
:100AF0001B99FECF80E03ADF1B9909C0209749F08F
:100B0000C130D10541F0229741F4C3E007C0C0E0F5
:100B100005C0C1E003C0C2E001C0C4E018DF06C0E8
:100B200016DF2196C430D105F9F6C4E01CDF83E559
:100B30008CBD8C2FDF91CF911F910F910895A0E074
:100B4000B0E0E5EAF5E00C9431378C017B016A01F5
:100B50002CDF003E82E01807C0F0CFEDD2E0F7DED8
:100B60002197E9F72A9AF3DE2A98C0E0D0E05801ED
:100B700080EEA81A82E0B80ACA15DB0518F4E7DE91
:100B80002196FACFC0E0D0E02BC0C0E0D0E0C01783
:100B9000D107C1F3DCDE2196FACFCE01800F911F81
:100BA0008F709927892B01F12097F1F0FE0183E0E6
:100BB000F695E7958A95E1F7EC0DFD1D208130E073
:100BC000CE01809590958770992702C0359527951D
:100BD0008A95E2F720FD02C081E0C8DEB8DE2196EA
:100BE000CE15DF05D1F603C080E0C0DEDFCFBBDE6F
:100BF00083E58CBDCDB7DEB7EAE00C944D37A2E0BB
:100C0000B0E0E5E0F6E00C943737142F052F6A8347
:100C10008983A5DEE12FF02F20E06A8189812817E2
:100C200069F01EBC0DB407FC02C07D9BFBCF9EB5D6
:100C3000261710F0908331962F5FF1CF94DE812F2D
:100C4000902F2296E4E00C945337A4E0B0E0EBE25E
:100C5000F6E00C9439372C9881E08093380146985F
:100C60003E9A769A6E9A85B1897F85B984B18660FD
:100C700084B983E58CBD0E9480210E948021CE0131
:100C80000396A6D08B819C810E94EE368F309F40C8
:100C900059F5CE010196C9D089819A8105969A832A
:100CA0008983CE010196CCD0CE010396BED0FC0143
:100CB0002081318189819A8128173907B9F40AD2B4
:100CC000823071F030F4882369F0813059F485E086
:100CD00010C0833019F0843059F004C083E009C09B
:100CE00084E007C086E005C080E003C081E001C069
:100CF00082E02496E2E00C9455372C9A1092380149
:100D000046983E9876986E981CBC219885B1897F4C
:100D100085B908957D9916C0809139018A3F41F4C3
:100D20008091F802833049F182E08093F80204C098
:100D3000809139018F3F09F1809139018F5F809354
:100D40003901089580913901882339F08091380163
:100D5000882319F0D2DF0E94E5128091F8028130D9
:100D600021F483E08093F80206C08091F80283307A
:100D700011F01092F80210923901089585988D9A19
:100D80002C9A249A84B1867F84B92B98289AB5CF5F
:100D9000AC0168E188E333CFAC0166E186E52FCF93
:100DA000AC0160E072E080EB90E0C9CEAC016CE594
:100DB0008CE925CFAC0160E072E080EE92E0BFCE1E
:100DC000AC016EE58CE91BCFAC0168E386E517CF7B
:100DD000CF93DF93EC01AC0160E082E010DFCE0145
:100DE000DF91CF910895AC0160E470E080E190E084
:100DF000A6CECF93DF93EC01AC016CE08EE0FFDE7A
:100E0000CE01DF91CF910895CF93DF93EC01AC0138
:100E10006EE086E1F4DECE01DF91CF910895AC0162
:100E200060E470E080E790E08ACECF93DF93EC013E
:100E3000AC0160EB82EBE3DECE01DF91CF91089550
:100E4000AC0160E170E080E895E079CECF93DF936C
:100E5000EC01AC0162EB84EBD2DECE01DF91CF91ED
:100E60000895AC0160E170E080E995E068CE80E033
:100E7000A1CD82E09FCD81E09DCDA4E0B0E0E3E490
:100E8000F7E00C943937CE010396E0DF8B819C812B
:100E9000809590959A838983CE010196E2DFCE01F9
:100EA0000396D4DF81E049815A812B813C8142172E
:100EB000530709F080E081952496E2E00C945537C1
:100EC000A0E0B0E0E6E6F7E00C943337EC018B01EC
:100ED0007A01690134DEBE0183E0769567958A95D3
:100EE000E1F7C00FD11FCE0123E0969587952A9593
:100EF000E1F7A60184DEA80133E0569547953A95BF
:100F0000E1F7B601C7010E94773721E0892B09F488
:100F100020E0822F8195CDB7DEB7E8E00C944F3703
:100F2000A0E2B0E0E6E9F7E00C9439379E012F5FCC
:100F30003F4FAC0160E071E080EC90E0C1DFA09633
:100F4000E2E00C945537CF93DF93EC0188819981CF
:100F50000E94EE3699838883AE0160E170E080E5FF
:100F600090E0EDDD888199810E94EE369983888337
:100F7000DF91CF910895A4E0B0E0E1ECF7E00C94AC
:100F8000393780EF90EF9C838B838FEF89838A833F
:100F9000AE014F5F5F4F61E070E081EA95E0CFDD29
:100FA000CE010396D0DF2496E2E00C945537A2E000
:100FB000B0E0EDEDF7E00C94393780E889831A82D0
:100FC000AE014F5F5F4F60E170E080EB90E0B7DD16
:100FD000AE014F5F5F4F60E170E080EE92E0AFDD09
:100FE0002296E2E00C945537A6E1B0E0EAEFF7E094
:100FF0000C94393780EF90EF9E8B8D8B3EDF8823EA
:10100000E1F0B9DFCE0145969EDF63E171E0CE01EC
:1010100001960E949437CE010196E5DE8EED97E0B1
:101020000E94EE369A838983CE0101961ADFBFDFD4
:101030001EDF21DF1EDF80E001C08FEF6696E2E059
:101040000C945537AAE0B0E0E8E2F8E00C943937A8
:1010500080EF90EF9A87898748E050E06FEF70E06B
:10106000CE0101960E948D37CE010196D8DE80E038
:10107000E7DC81E0E5DC9BDFCE01099664DF2A96A0
:10108000E2E00C945537A4E0B0E0E9E4F8E00C9419
:101090003937AE014D5F5F4F66E188E1B0DDAE01EB
:1010A0004F5F5F4F6CE58EE5AADD8B81803869F478
:1010B0008C8181110AC08981803839F481E09A815C
:1010C000911101C080E0819501C08FEF2496E2E08C
:1010D0000C945537A2E0B0E0E0E7F8E00C94393723
:1010E000CE01019686DE498150E024E030E080E0C8
:1010F000BA01022E02C0759567950A94E2F760FD69
:101100008F5F2F5F3F4F2830310591F72296E2E045
:101110000C945537C1DC81110AC0AFDE8F3F11F44A
:1011200081E00895B0DF8F3FD9F389E00895D2DFE1
:101130008B5F0895ACE0B0E0E0EAF8E00C9439375A
:1011400084DD8823A9F18130A9F18630A9F1CE018F
:1011500001967CDEFC01808191810E94EE36019631
:1011600069F480EF90EF9C878B87CE010B9694DC1F
:10117000811120C039DF81111DC016C0CE0101963A
:1011800043DE48E050E06BE171E0CE0101960E9441
:101190007737892B59F480EF90EF9C878B87CE01AE
:1011A0000B96B8DF893031F483E007C084E005C0D6
:1011B00080E003C081E001C082E02C96E2E00C9464
:1011C000553780913A01089560E87EE380E00E94FF
:1011D0004D2160E67AEE81E00E944D2184E00E947C
:1011E0005411682F70E089E00E944D2182E00E9436
:1011F000541149E167E00E943211782F770F770F81
:1012000060E082E00E944D210E94A926811104C065
:101210000E94A1260E94802180913A01813011F420
:1012200010923A0180913C01811109C08FEF97E043
:101230000E94502C0E941A2D81E080933C01089559
:101240001F93CF93DF93C82FBFDF8C2F0E94B02D49
:10125000CF3011F415E001C01FEF61E082E00E9481
:101260003921811102C08FEF1AC07D99FCCF0E94F5
:101270000E328823C1F38C2F0E94B02DD82FD1239A
:101280008D2F857551F30E94AC2DD0FD05C0D2FD88
:1012900005C00E947E2D03C085E001C084E0DF917F
:1012A000CF911F910895982F807194FF30C00E94B4
:1012B0007B2D90913D01911105C08093F90291E041
:1012C00090933D019091F90220E2290F30E6390F09
:1012D000321718F4281718F404C0281730F48317AD
:1012E00020F42093F90281E0089520EE290F905612
:1012F000291730F4821738F0981728F080E0089505
:101300008217D0F3FBCF2093F9028FEF089595FF5A
:10131000F5CF10923D0108951F93CF93DF934ED5E3
:10132000803269F028F4882361F0803151F00CC0DC
:10133000803429F0803529F0803331F402C080E315
:1013400001C08FE380933B01D0913A010E94A9260E
:10135000182F80913B010E94B02DC82F61E080E0E2
:101360000E943921811108C080E090E00E94502C39
:1013700010923C010E94212D61E081E00E94392100
:10138000811117C0C6D50E94EA3689E08DD788231F
:1013900061F081E080933A010E94BD250E94692797
:1013A0000E94F5250E94692704C00E949A260E9487
:1013B000F5258C2F857569F0D13011F442D504C024
:1013C000112311F0DD2319F0F9D4803111F48C2FA1
:1013D00026D6DF91CF911F910895A8E2B0E0E3EF08
:1013E000F9E00C943937282F227083FF04C02111B3
:1013F00004C09AE003C090E001C096EF38E2FB0120
:10140000DE01119601900D923A95E1F718A6E1E000
:10141000F0E0EC0FFD1FE40FF11D1082482F41702A
:10142000692F88E1289F600D11246F5F2FEF429F85
:10143000C00111249E012F5F3F4F0E94F52AA896FC
:10144000E2E00C945537A9E1B0E0E9E2FAE00C944F
:1014500029374115510509F4D3C0122F7B012C0106
:10146000BA010E94671CF201A680B780A114B104E2
:1014700019F488E40DD5C4C0B501C7010E94691CE8
:10148000F70184819581892B09F589E10E94DB1898
:101490009A838983F8E04F0E511C5C824B828AE16B
:1014A0000E94DB189E838D8385E2E80EF11CF8868E
:1014B000EF82113049F0BE016F5F7F4F84EF3DD561
:1014C000882311F0A12CB12CC5019CC06501312CE1
:1014D000188E8FE0282EF20138962F014701F5E291
:1014E0008F0E911C20E041E060E080E00E94042C1F
:1014F000F201DE011196822D01900D928A95E1F79D
:101500001F869E012F5F3F4F42E068E180E090E040
:101510000E94F52ACE0140963C0110E0C114D1048E
:1015200099F0143099F0B601C7010E94691C4FE090
:10153000B401812F52DFF301C192D1923F01F70133
:10154000C480D5801F5FEACF143031F4F701848165
:10155000958114E0892B59F400E02EE040E150E041
:1015600069E170E081EB0E94D62680E101C080E055
:10157000912F943051F041E050E0092E01C0440F0A
:101580000A94EAF7842B9F5FF4CF898F0E94F52598
:10159000898D56DE8F3F89F181176CF4E82FEE0FAD
:1015A000FF0B81E090E08C0F9D1FE80FF91F37843F
:1015B0009089988F22C0853099F4888999898A15F5
:1015C0009B05D9F0F7019383828305E0F701C28080
:1015D000D380B601C7010E94691C0150B9F782CFC0
:1015E000843041F4143031F4F70184819581892BE2
:1015F00009F078CFC888D98875CF832D988D02C01F
:1016000080E090E06996E2E10C944537A2E4B0E016
:10161000ECE0FBE00C9429375C014B0110E0E12C7D
:10162000AE01475C5F4FBE01655C7F4F812F0E941A
:10163000D41B8BAD9CAD009769F0FE013196EE0D89
:10164000F11DEE0DF11D958F848FE39489AD9AAD58
:10165000918380831F5F1E3019F7E11003C088E279
:1016600017D4C0C0312CF12CC40185969EAF8DAF2C
:10167000F50138962196FFAFEEAF219720E041E0CB
:1016800060E080E00E94042CC32CD12C9601220F34
:10169000331F612C712C00E010E0202E28014C0C2F
:1016A0005D1C4E145F040CF04BC00430110509F4AE
:1016B00040C02301420E531EE1E0F0E0EC0FFD1F9D
:1016C000E40DF51D60817181C40122962FAF229730
:1016D00023963FAF23970E94691CEDE1F0E0EC0FE9
:1016E000FD1FE40DF51D60817181C5010E94671C1D
:1016F000822D8270880F880F4FE06DAD7EAD820D18
:101700006CDE822D80958270880F880F4FE02196C5
:101710006EAD7FAD2197820D60DE0F5F1F4FF2E04F
:101720006F0E711C23963FAD239722962FAD229703
:10173000B4CF370114E04E145F0431F080E00FC0E5
:10174000102F0430B1F3320100E02EE040E150E010
:1017500069E170E081EB0E94D626230180E1912FA0
:10176000943051F021E030E0092E01C0220F0A949C
:10177000EAF7822B9F5FF4CF22968FAF22970E94C9
:10178000F52522968FAD22975BDD8F3F59F18117AA
:10179000B4F4C80ED11C87FDDA94CC0CDD1C81E0BA
:1017A00090E08C0F9D1FC80ED91EF601648D758DBB
:1017B000C5010E94671CF6018081918115C08530AA
:1017C00029F4332079F0FCEF3F0E58CF843009F034
:1017D00055CF143009F052CF4E145F0409F44ECFA8
:1017E000380E4CCF80E090E0CE5BDF4FE2E10C940E
:1017F0004537A4E9B0E0EFEFFBE00C942C371092F2
:10180000400110923F0110923E0185E0EDE0F1E0D1
:10181000DE01A157BF4F01900D928A95E1F720E0BC
:101820004FE060E080E00E94042C0E94F5250E94B9
:10183000C825C12C00E0F12CEE24E394A12CB12C9E
:1018400091E088248394912C2AEA522E913009F059
:10185000BBC080E10E94782600E027E142E350E02F
:1018600062E170E084E60E94D6269E0121573F4F38
:1018700041E061E184E990E00E94F52A87E00E945E
:10188000782640E061E0CE0181579F4FCDD66C01B4
:1018900080913F0190914001C816D90609F472C0A9
:1018A000D0924001C0923F0110E0612F627087E149
:1018B000689FB00111246E5F7F4F812F817000E01F
:1018C0002EE044E550E0859D802D11240E94D6260F
:1018D0001F5F143051F7FE01EB57FF4F3F0110E03F
:1018E000F301C192D1923F01B601CE0101960E944F
:1018F000671C143030F44EE0BE01675F7F4F812FCC
:101900006CDDCD80DE80C114D10419F40E947C1BF3
:101910006C011F5FFE01EB57FF4F91E080E08117E4
:1019200040F4219131912C153D0509F490E08F5F31
:10193000F6CF992319F0153099F602C0153001F54C
:101940004F2D50E04F5F5F4FBE01675F7F4FCE016D
:1019500081579F4F0E949B37892B41F420E042E042
:1019600068E180EB0E94042C15E00AC000E020E151
:1019700040E150E068E170E080EB0E94D62614E080
:1019800010933E01F3E0FF1210C080913E018530BC
:1019900060F084E080933E0100E020E140E150E00F
:1019A00068E170E080EB0E94D62600913E01802F16
:1019B000C12C85304CF49401082E01C0220F0A94EA
:1019C000EAF7C22A8F5FF5CF8C2D0E94B02DD82E5A
:1019D00084FF10C081E0E8120DC064E670E087E08B
:1019E0000E944D216CE271E083E00E944D2110E0E5
:1019F000E12C24C0D5FE1DC060E083E00E943921A7
:101A00008130C9F460E087E00E943921811113C060
:101A10000E947E2D801778F40E947E2DFE01EB57E8
:101A2000FF4FE80FF11DE80FF11DA080B18011E01C
:101A300003C010E003C010E0EE24E3948D2D33DCEE
:101A4000982F882399F12F2D30E0EFE8F0E0EC0F8C
:101A5000FD1FE20FF31F80818A3721F4913011F4CA
:101A60008FE28083EFE8F0E0EC0FFD1FE20FF31F41
:101A70008081893321F4913071F480E60BC080338A
:101A800021F49F3F41F48BE705C0813621F49F3F4D
:101A900011F48AE38083EFE8F0E0EC0FFD1FE20F22
:101AA000F31F8081980F908391E001C090E07D99B1
:101AB0002EC061E082E0CC56DF4F9883C459D040FD
:101AC0000E943921CC56DF4F9881C459D0408823D9
:101AD000F1F0D0FE0BC0FF20D1F0EFE8F0E0EC0F0A
:101AE000FD1FEF0DF11D1082FA940DC0D2FE0CC047
:101AF000053050F0F394EFE8F0E0EC0FFD1FEF0D30
:101B0000F11D81E6808391E0112309F49FCE0E94AC
:101B1000BD25C501CC56DF4FEFE00C944837EF925E
:101B2000FF920F931F93CF93DF937C01162F00E05A
:101B300023E142E550E06FE170E088E50E94D6269F
:101B4000D8E5C0E069E18D2F0E94CF25C11711F0C3
:101B50008AE209C0F701EC0FF11D80818A3010F094
:101B6000895C01C0805D0E94652ACF5FDA5EC43067
:101B700049F7CDB7DEB7E6E00C945137A4E0B0E00A
:101B8000E4ECFDE00C9430377C01B62E19821A8209
:101B90001B821C820E94692720E043E060E080E015
:101BA0000E94042C20E04DE063E383E50E94042CB6
:101BB00020E04CE067E18EEE0E94042C8B2D0E9409
:101BC000DB189C0142E060E080E090E00E94F52A92
:101BD0000E94F52581E10E9478260E94C8254B2DA0
:101BE00060E0CE0101969BDF10E0DD24DA9490E105
:101BF000A92E99249A9481E00E942B3280E00E94C1
:101C0000B02D082F50DB982F882309F1E12FF0E049
:101C1000A1E0B0E0AC0FBD1FAE0FBF1F8C918F30A5
:101C200021F4913039F49C9205C0811103C09F3F8B
:101C300009F4AC9221E030E02C0F3D1FE20FF31FBE
:101C40008081980F90834B2D612FC90168DF7D99AA
:101C500089C061E082E00E943921882309F482C0B2
:101C6000C12C00FF32C0113081F400E022E142E1DA
:101C700050E067E170E080E00E94D62620E045E079
:101C800068E180E00E94042C02C0112381F0E1E0B1
:101C9000F0E0EC0FFD1FE10FF11D10821150E1E0AB
:101CA000F0E0EC0FFD1FE10FF11D108204C0CC2409
:101CB000C394DD24DA944B2D612FCE0101962FDFE2
:101CC00020E04CE067E18EEE24C002FF24C0123019
:101CD00081F400E022E142E150E067E170E08EEE45
:101CE0000E94D62620E044E068E180EF0E94042CA8
:101CF00002C0133010F41F5F03C0CC24C394D12C56
:101D00004B2D612FCE0101960ADF20E04BE067E109
:101D100080E00E94042CCC2009F46DCF87E00E9463
:101D200078260E94BD25298130E0322F2227329566
:101D3000307F8A81382B8C81282B8B8140E1849FD6
:101D4000C0011124282B392BF701318320831982FC
:101D50001A821B821C820E94AC2D8D2D2496EBE0F2
:101D60000C944C37CC24C394DD24DA947ACFA2E0CF
:101D7000B0E0EDEBFEE00C94383766E1CE01019661
:101D8000FDDE182F811114C0CE010196C3D9853014
:101D900049F0893021F0813041F482E004C01A8298
:101DA000198207C081E074D003C0875E71D0E5CF8F
:101DB0001FEF812F2296E3E00C945437809141016C
:101DC0000895809341010895A2E0B0E0EAEEFEE0BC
:101DD0000C9437378C01D2DE882311F08FEF10C0BE
:101DE00068E1CE010196CADE8111F8CFF801408189
:101DF000518181E029813A814217530709F480E03B
:101E00002296E4E00C945337CF93DF93EC010E94C9
:101E100069278FEF0E94B02D9E0142E068E18AE0C1
:101E200090E00E94F52A20E046E061E182E00E9415
:101E3000042C0E94F525DF91CF9108950E94DB18B4
:101E4000E3CF80914101982F9F7E19F421E040E07B
:101E500004C0803231F421E049E060E080E00C947D
:101E6000042C803311F484E00CC0803419F421E098
:101E70004AE0F3CF803511F485E203C0803611F4D7
:101E80008CE0DCCF08958FEF0E94B02D80E0D6CF9C
:101E90000E94DB18B9DF0C94EA36B6DF80E0D0C9C7
:101EA000A1E0B0E0E6E5FFE00C9437378C010E943A
:101EB0006927F801908191509E3F98F48CE20E942E
:101EC000DB189C0142E068E18AE090E00E94F52A7C
:101ED000980142E068E28AE090E00E94F52A68E01A
:101EE00001C068E18BE069830E94DB189C0142E03D
:101EF00069818AE090E00E94F52A20E046E061E1F5
:101F000082E00E94042C0E94F5252196E4E00C94C6
:101F100053370E94692783E20E94DB189C0142E04C
:101F200068E18AE090E00E94F52A20E04EE061E15D
:101F300082E00E94042C0C94F525AFE1B0E0E3EAC6
:101F4000FFE00C943437182FF62EE72E807F31F007
:101F50001F708EE0A9D101E0811101C000E01F8E49
:101F60000E94692720E048E260E080E00E94042CA3
:101F700020E049E260E08EED0E94042C113019F05F
:101F80008EE1D82E09C02F2D3E2D42E068E180E081
:101F900090E00E94F52A20C01150F0F0EF2DFE2DA8
:101FA000E10FF11DE10FF11D0190F081E02DDE0147
:101FB00011968D2D01900D928A95E1F7812F8295D2
:101FC000807F62E0680F9E012F5F3F4F42E080E01C
:101FD00090E00E94F52AE0CF0E94F525013099F4A7
:101FE000F3D887EA0E94DD250E94832186EA0E94B9
:101FF000DD250E94832187EA0E94DD250E9483213E
:1020000086EA0E94DD258FE01BD991E0843009F437
:1020100090E0892F81956F96E7E00C945037A4E00B
:10202000B0E0E5E1F0E10C94373710914101982FD1
:10203000957509F4DDC0082F0E94AC2D04FF04C083
:102040000E947E2D812B02C0812F8F6090914101D3
:10205000911102C0D1D0CCC0903511F486E227C0D6
:10206000903161F467D8843009F0A7C080E090E037
:102070000E944E19882309F49DC09FC0833221F429
:1020800080E18093410168C0813211F480E493C003
:10209000823219F40E94961890C0803251F40E9446
:1020A0007C1B892B19F00E949F1887C088E4F0DE02
:1020B00084C0823409F053C080E10E94DB18BC0167
:1020C00081E03BDF811143C00E94FD1981113FC0B7
:1020D00081E10E94DB18BC0181E02FDF811137C054
:1020E0000E94431B182FCFDE0E94081F87E40E9426
:1020F000DB18BC0181E021DF882329F0C4DE812FB9
:10210000DCD080E325C0BFDE0E94220882E10E946D
:10211000DB18BC0181E011DF8111F0CF85E08EDE9C
:102120000E94FB048330E1F70E94FB048230E1F758
:10213000AADE00D8843051F780E090E00E944E196A
:102140008111E4CF0E94431B1813E0CFDDCF80E163
:10215000809341010E94EA360E9431192EC08334D7
:1021600039F50E94FD1981111BC067E1CE0103966C
:102170002BDE81110EC0CE0103960E942B1A8823FC
:1021800029F080E18093410185E458DE1C821B82A6
:102190000CC0813091F480E18093410184E404C05B
:1021A00080E18093410186E049DE0E94EA3605C065
:1021B000803429F480E28093410143DE19C08134E8
:1021C000B9F40E94FD19811111C066E4CE01019697
:1021D000FBDD811106C0CE0101960E94A30787E0B6
:1021E00001C088E055DE1A821982E7CF80E1E3CF93
:1021F0002496E4E00C945337CF930E94E4080E94A5
:10220000692720E048E060E180E00E94042C0E9401
:10221000F525C3E061E082E00E943921813049F474
:10222000C23061F00E94FB04C82F80E00E94B02DF4
:10223000F1CFC23019F005DE8FEF02C00E9496196F
:10224000CF910895CF93DF93C3E6D0E06FEFCE0137
:102250000E94CF376996C73E83E0D807B9F7DF9170
:10226000CF910895481720F0861718F4862F089507
:10227000842F0895823228F490E08F5B9F4F0C9456
:10228000CF370895CF93DF93C0E0D0E0FE01EA5E40
:10229000FD4F64918C2F8F5FEDDF2196CD31D105FD
:1022A000A9F7DF91CF910895823228F490E08F5BF7
:1022B0009F4F0C94B93780E008951F93CF93DF931D
:1022C000182FC3E6D0E0CE010E94B937811304C0B5
:1022D0006FEFCE010E94CF376996C73E83E0D807E3
:1022E00091F7DF91CF911F910895A0E1B0E0EBE766
:1022F000F1E10C9432376C018E010F5F1F4F80E1CA
:10230000F80111928A95E9F783E6E82EF12CBB24B7
:10231000B394C7010E94B937803120F4F801E80F67
:10232000F11DB082F9E1EF0EF11C87EEE81683E0B3
:10233000F80679F7F80190E08191811103C0F60168
:10234000908304C09F5F9031B9F78FEF6096E9E00A
:102350000C944E370F931F93CF93DF938C01C3E6FA
:10236000D0E0F801D183C083CE010E94B93780311B
:1023700038F46996C73EF3E0DF0799F78FEF01C0A5
:1023800080E0DF91CF911F910F910895A8E1B0E017
:10239000ECECF1E10C943637F82E03E610E0C801BE
:1023A0000E94B9378F1110C048E150E0B8016F5F4B
:1023B0007F4FCE0101960E94A937AE014F5F5F4F5C
:1023C00068E18FEC0E942831075E1F4F073E83E0D3
:1023D000180729F76896E5E00C945237A8E0B0E0BA
:1023E000E4EFF1E10C9431377C016B015A0100E01C
:1023F00010E0C8018D599F4F0E94B937F5018083C5
:102400008031E0F448E050E0B8016C597F4FCE01D4
:1024100001960E94A93748E050E0B701CE0101962D
:102420000E947737892B51F4B80164597F4F40E1FE
:1024300050E0C6010E94A93780E007C0075E1F4F29
:102440000438F3E01F07A9F68FEF2896EAE00C9412
:102450004D37A3E1B0E0EFE2F2E10C9433376C01C9
:102460007B01042FCE01419675DF182F882311F0D0
:102470001FEF23C0AE014D5E5F4FBE016F5F7F4F08
:10248000C601ACDF8F3FA1F7602F89899A890E942E
:10249000CF3729893A89B9016F5F7F4F48E050E013
:1024A000C6010E94C63729893A89B901675F7F4F03
:1024B00040E150E0C7010E94C637812F6396E8E0F3
:1024C0000C944F37A8E0B0E0E8E6F2E10C94353721
:1024D0007C018B01CB0109DF8F3FB9F0F8018081CE
:1024E0000E941A1BF801808199D0CE0101960E94AA
:1024F0000407F8014081B701CE010196AADF91E0FF
:10250000811101C090E0892F81952896E6E00C9416
:102510005137EF92FF921F93CF93DF93CDB7DEB782
:10252000E1970FB6F894DEBF0FBECDBF7C01ABDCE8
:10253000CE01C196DADE8F3F11F41FEF2FC089A9BB
:102540000E941A1B89A96AD068E0CE0101960E94F8
:10255000C12060E1CE0181960E94C12049A9BE013F
:102560006F5D7F4FCE01019674DF182F8111E5CF8B
:10257000CE0101960E940F0760E2CE0101960E94F3
:10258000C120CE0101960E949007BE016F5D7F4F72
:10259000CE01019628D0C7010E94A307812FE196A2
:1025A0000FB6F894DEBF0FBECDBFDF91CF911F9164
:1025B000FF90EF90089580914B0108958FB7F894A4
:1025C00091E090934B018FBF0895109248011092B3
:1025D0004A010E94E43160E070E084E00E944D21F5
:1025E00010924B010895CF93DF93EC0180E1FB0142
:1025F000A7E0B4E001900D928A95E1F720E147E071
:1026000054E0BE018CE194E00E942D0480E2FE01C2
:1026100011928A95E9F7DF91CF9108950E943C1DB0
:102620008AEF92E00C944E1CEF92FF921F93CF938F
:10263000DF937C01162F411105C0FC0180810E94AF
:10264000D41C02C00E94941BEC01892BA1F480E0F1
:1026500090E02AC04FE350E065E073E0C7010E94BC
:102660009B37882301F187FDF2CFC0910103D09100
:102670000203209799F0BE018DEF92E00E94671C43
:10268000112341F3113089F74FE350E065E073E027
:10269000C7010E949B3797FD06C0E7CF1130B9F6FE
:1026A0000E947C1B01C0CE01DF91CF911F91FF9052
:1026B000EF9008950F931F93CF93DF938B01BC018D
:1026C0008DEF92E00E94671CC0910303D091040338
:1026D000209719F480E090E014C0BE0183E893E0F5
:1026E0000E94691C4FE350E0B80188EA93E00E9421
:1026F0009B37892B29F0C0918703D0918803E8CFBD
:10270000CE01DF91CF911F910F910895A3E0B0E02A
:10271000ECE8F3E10C943937CE0101960E944E1C8F
:1027200043E050E06AEF72E0CE0101960E947737F5
:10273000892B79F48B8190E0805C9F4F8B83892F6C
:1027400099272A81820F911D8A83CE0101960E94CA
:10275000421C2396E2E00C945537A0E1B0E0E3EB95
:10276000F3E10C9435378C017B0164E170E084E087
:102770000E944D2190E1E7E0F4E0DE011196019026
:102780000D929A95E1F743E0B701CE010E960E94B3
:10279000070440E1BE016F5F7F4F8CE194E00E942F
:1027A000110440E250E0B8018CE194E00E94A104E1
:1027B00060E084E00E9439218130D1F36096E6E048
:1027C0000C945137A0E1B0E0E8EEF3E10C9435371A
:1027D0007C018B0164E170E084E00E944D2196DF72
:1027E00090E1E7E0F4E0DE01119601900D929A95F8
:1027F000E1F743E06AEF72E0CE010E960E94070413
:1028000040E1BE016F5F7F4F8CE194E00E941104B4
:1028100040E250E0B7018CE194E00E9450048091C6
:10282000FA029091FB02A091FC02F801808391834F
:10283000A28363E08AEF92E00E94420463E08AEFA1
:1028400092E00E94420460E084E00E9439218130DD
:10285000D1F36096E6E00C945137CF93DF93C62F07
:10286000462F60E0E1DE9093820380938103DFB71F
:10287000F8941092480110924A0110924901109266
:10288000470160E070E084E00E944D211092440115
:10289000DFBF60918103709182036115710589F03A
:1028A00080914B01813069F4C11103C080934801CC
:1028B00006C0809349018DEF92E00E94671C80E082
:1028C00001C08FEFDF91CF9108950F931F93CF93A6
:1028D000DF9320914B01211102C08FEF31C0C42F33
:1028E000D62F8C0160E0A0DE892BB9F7C11102C0A0
:1028F0008BE101C081E45FD490939E0480939D049A
:102900001093A00400939F046DE974E082EF15DB3F
:10291000811113C0B8DA4D2F50E0B80185E093E083
:102920000E9484376C2F8DEF92E00E94801EC1E0E0
:10293000811101C0C0E0C19501C0CFEF82DA8C2FB8
:10294000DF91CF911F910F9108950F931F93CF9314
:10295000DF9320914801211102C08FEF8AC0EC0162
:1029600060E084E00E943921811168C06091810398
:10297000709182038DEF92E0AAD78091030390912A
:102980000403892B51F36881662309F439C08E0151
:102990000E5F1F4F4FE3C8010E94F4318F3FE9F2F1
:1029A000B801809181039091820384DE9093180492
:1029B00080931704892B09F441C08BE4FCD39093D6
:1029C0009E0480939D041093A00400939F048DE1C6
:1029D000F2D39093A2048093A10485E093E09093B6
:1029E000A4048093A3046DE974E084E0A6DA811165
:1029F00005C081E080934A0124DA1BC022DA1EC0A0
:102A0000409181035091820320E063E873E08DEFF1
:102A100092E00E94230A909318048093170411DA1D
:102A20008091170490911804892B41F081E08093E4
:102A30004A0168EE73E084E00E944D2160E084E08A
:102A40000E943921813009F088CF80914A0181307C
:102A500009F083CF609117047091180483E893E024
:102A600038D71092E60368EA73E0CE010E949437EB
:102A700080E0DF91CF911F910F910895CF93DF9365
:102A800020914801213011F08FEF1FC0EC0160E070
:102A900084E00E9439218130B9F780914A01813068
:102AA00099F7609117047091180483E893E011D7A7
:102AB00065EA73E087EE93E050DE1092060467EE5D
:102AC00073E0CE010E94943780E0DF91CF910895AA
:102AD000CF93DF9320914801213011F08FEF1AC07E
:102AE000EC0160E084E00E9439218130B9F78091E7
:102AF0004A01813099F7609117047091180483E8B6
:102B000093E0E7D61092A00369E873E0CE010E943B
:102B1000943780E0DF91CF9108950F931F93CF9367
:102B2000DF9320914801222309F478C0162FEC018D
:102B30000FB7F89410924A0160E070E084E00E94C0
:102B40004D210FBFBE018091810390918203B2DDC0
:102B50009093180480931704892B29F081E08093C7
:102B60004A0180E05CC08CE126D390939E04809360
:102B70009D04D093A004C0939F048DE11CD3909337
:102B8000A2048093A10485E093E09093A404809331
:102B9000A3046DE974E084E0D0D9882311F0CFEF6D
:102BA0003AC071D984E8E3E8F3E0DF011D928A9529
:102BB000E9F76FE187EE93E00E94C12010920604CE
:102BC00065EA73E087EE93E0FDDD412F50E0BE0142
:102BD00088EA93E00E94843787E2EDD2BC0189E85D
:102BE00093E00E94943763E873E0809181039091B1
:102BF00082030E94B81E8111D2CFBE018091810351
:102C00009091820357DD909318048093170481E01C
:102C100080934A01C0E015D98C2F01C08FEFDF915E
:102C2000CF911F910F910895EF92FF920F931F93F1
:102C3000CF9320914A01222309F45EC020914801DC
:102C4000222309F459C0C62F8C0160918103709131
:102C500082038DEF92E03BD66091170470911804C7
:102C600083E893E036D6EC2EF12CA701B80187EE6D
:102C700093E00E94843760E26C1BC70189519C4F2E
:102C80000E94C1208EE197D290939E0480939D0470
:102C900088EA93E09093A00480939F048DE18BD207
:102CA0009093A2048093A10485E093E09093A40400
:102CB0008093A3046DE974E084E03FD981111BC0C7
:102CC000C0D865EA73E087EE93E07CDD20911704BD
:102CD00030911804409181035091820363E873E0BE
:102CE0008DEF92E00E94C31F91E0811101C090E03E
:102CF000892F819502C0A5D88FEFCF911F910F9199
:102D0000FF90EF900895A3E0B0E0E9E8F6E10C94BD
:102D1000353720914901211102C08FEF94C0162F41
:102D20007C018091030390910403892B49F58091E4
:102D30004701811125C082E43ED290939E04809386
:102D40009D0485E093E09093A00480939F046DE937
:102D500074E082E0F2D8811112C0E0910001F0919C
:102D6000010184E8DF011D928A95E9F781E08093F3
:102D7000440110924501809347011092460161D8A9
:102D800080914701882349F2A0914601B0E0149652
:102D90008091000190910101A80FB91F80E2F70115
:102DA00001900D928A95E1F78091460190E004969A
:102DB0002091000130910101BE016F5F7F4F820FB2
:102DC000931F00DD80914601811109C029813A815C
:102DD0004B8120937E0330937F0340938003805E7A
:102DE00080934601803821F0111102C080E02BC091
:102DF000409100015091010190E0FA01918380839C
:102E0000012F209144016DEF72E080918103909138
:102E100082035CD6811181CFE0910001F091010124
:102E200094E8DF011D929A95E9F7109244011092FF
:102E300046011123D9F221E030E0309304032093BE
:102E40000303109247012396E6E00C945137CF9389
:102E5000DF9320914901222309F495C0EC0160E041
:102E600084E00E943921811136C060918103709104
:102E700082038DEF92E02BD580917E0390917F03AA
:102E8000A09180038093190490931A04A0931B04CB
:102E90008091030390910403909343018093420136
:102EA00083E489D190939E0480939D0485E093E010
:102EB0009093A00480939F046DE974E082E03DD874
:102EC000811107C068EE73E084E00E944D211092EA
:102ED00045010E94210F60E084E00E943921813089
:102EE00009F051C080914501882309F440C0209128
:102EF000450130E02C5F3F4F80910001909101012E
:102F000069E174E0820F931F28DC68EE73E084E0CF
:102F10000E944D2163E089E194E00E94420463E055
:102F200089E194E00E944204E0914501F0E034968A
:102F30008091000190910101E80FF91F80E2DE010C
:102F400001900D928A95E1F780914501805E809312
:102F5000450190E0E0910001F09101012081318173
:102F600033278217930728F11092450122C0609100
:102F70004201709143016115710539F460E070E020
:102F800084E00E944D218FEF15C080910001909147
:102F9000010190D4E0910001F091010182819381BF
:102FA00090934301809342018081918195FF9FCF4F
:102FB000EACF80E0DF91CF910895CF93DF93EC01CA
:102FC00060E085E00E943921813099F180914A01C9
:102FD000882371F180914801882351F16091170491
:102FE0007091180483E893E074D465EA73E087EE87
:102FF00093E0B3DB40E250E0BE0187EE93E00E9435
:103000009B37892B49F480E2E7EEF3E0DF011D9264
:103010008A95E9F780E00DC080E2E7EEF3E0DF019A
:103020001D928A95E9F760EA7FE085E00E944D21D4
:103030008FEFDF91CF910895A8E0B0E0E2E2F8E1F0
:103040000C943737009709F46CC08B01BC0183E8FE
:1030500093E03FD41A8309838091A803882371F1F8
:103060000E948D2E8823D1F083E1A5D09C838B8391
:10307000BE016F5F7F4F82E00E949D0F81111EC0D5
:1030800088EA93E00E949C3183E10ED98823B1F055
:1030900084E10AD960E00E94D22E10C08DE28BD06C
:1030A0009C838B83BE016F5F7F4F82E00E949D0FE8
:1030B000811104C088EA93E00E944D0F65EA73E035
:1030C00087EE93E04ADB0E948D2E8823D1F084E1C5
:1030D00072D09C838B83BE016F5F7F4F82E00E9422
:1030E0009D0F81111EC087EE93E00E949C3185E107
:1030F000DBD88823B1F086E1D7D860E00E94D22ED9
:1031000010C08EE258D09C838B83BE016F5F7F4FCF
:1031100082E00E949D0F811104C087EE93E00E941F
:103120004D0F80E02896E4E00C94533763E873E099
:103130008DEF92E00E94060B65E073E07DCF0E9468
:10314000F90B21E0AC0163E873E08DEF92E00E949F
:10315000230A65E073E070CFA2E0B0E0E2EBF8E1B3
:103160000C9435378C017B0142E050E060E478E05C
:10317000CE0101960E94742289819A81081719074D
:10318000A8F4019699F00F5D1B4FB801660F771FE9
:1031900042E050E0C7010E947422F70180819181D2
:1031A000805C974F9183808380E001C08FEF2296EF
:1031B000E6E00C945137A2E0B0E0E1EEF8E10C94C7
:1031C00037370091020110910301BE016F5F7F4FFD
:1031D00090E0C2DF81111AC069817A8161157105A1
:1031E000A9F040E250E0C8010E94742280910201DF
:1031F00090910301855A944019F485EC94E002C043
:1032000085EA94E09093030180930201C80122961D
:10321000E4E00C945337A3E0B0E0E1E1F9E10C9471
:103220003837162F99E29B8349EB62E91BD8BE0120
:103230006F5F7F4F90E090DF81110EC089819A818E
:10324000009751F04E97BC01610F711D41E050E0B5
:10325000CE0103960E9474228B812396E3E00C94A6
:103260005437A0E3B0E0E7E3F9E10C9439370E946A
:103270007D06ABD9CE01019620E2FC0111922A9580
:10328000E9F7BE016F5D7F4F20E1FB0111922A95A6
:10329000E9F7A9D9E096E2E00C945537EF92FF9256
:1032A0001F93CF93DF93CDB7DEB7E1970FB6F894B6
:1032B000DEBF0FBECDBF7C01CE0101960E94040788
:1032C000AE014F5C5F4FBE016F5D7F4FCE01019637
:1032D00085D8182F81111CC0E114F10439F0C70101
:1032E0000E948A08893031F01FEF13C00E94B70E88
:1032F0008111FACFCE0101960E94C80689A98ED904
:10330000BE016F5D7F4FCE0101966DD957D901C0C7
:1033100011E0812FE1960FB6F894DEBF0FBECDBF4E
:10332000DF91CF911F91FF90EF900895AFE3B0E050
:10333000ECE9F9E10C9438370E949A08823010F4D5
:1033400082E003C0823031F481E00E941E0F0E94AF
:103350007D0644C0833029F582E22DDFBC0181E087
:103360000E949D0F81111BC067E1CE0101960E9452
:10337000E40E81110CC0CE010196CBD8811107C09B
:1033800089E00E941E0F1AD910E080E205C08AE091
:103390000E941E0F1FEF80E31A82198221C080E372
:1033A00015C08430D9F480E090E078DF81110BC043
:1033B000CE0101960E94E006CE0101960E94500FB8
:1033C00010E080E20DC0813039F480E60E94E10E09
:1033D0000E94210F1FEF0CC080E1F8CF1FEF80E3A8
:1033E0008FAF0E94EA368FAD0E94E10E0E94210F3E
:1033F000812FEF96E3E00C945437A0E1B0E0E3E0D6
:10340000FAE10C943937CE0109960E94040729DFAE
:1034100077D70E949A08843011F08FEF18C080E0AF
:1034200090E03CDF8111F9CFCE0101960E940407A4
:1034300048E050E0BE016F5F7F4FCE0109960E94C9
:10344000773721E0892B09F420E0822F819560965F
:10345000E2E00C945537EF92FF921F93CF93DF93E6
:10346000CDB7DEB7C959D1090FB6F894DEBF0FBE8C
:10347000CDBF7C01A0D8813011F01FEF5DC0CE011F
:103480008F569F4F0E940407AE0147565F4FBE0103
:103490006F577F4FCE018F569F4F0E94EE11182F0E
:1034A0008111EBCFCE018F5B9F4F0E94CC06CE01E6
:1034B00001960E94D60684E00E941E0F0E94FB0423
:1034C0008330E1F78DE00E941E0F0E94FB048230E2
:1034D000E1F70E94430F0E949A08833071F680E062
:1034E0000E94200581E00E942005CE018F5B9F4F46
:1034F0000E94D006CE0101960E94DA0668E0CE0155
:103500008F5B9F4F3ED6CE018F5B9F4F0E940F0770
:10351000C756DF4F4881C959D040BE016F577F4F12
:10352000CE018F5B9F4F0E942912C7010E94A30703
:1035300045D88EE00E941E0F812FC756DF4F0FB671
:10354000F894DEBF0FBECDBFDF91CF911F91FF90EA
:10355000EF90089584E291E00E944D31FFCF88E220
:1035600091E00E944D31FFCF909331068093300659
:103570000895A2E0B0E0EFEBFAE10C9437378C014C
:1035800093E0169507959A95E1F7877094E8899FDF
:10359000B00111249E012F5F3F4F42E050E0C8016F
:1035A0007ED789819A819C0122273F712091E7046F
:1035B000231711F095FF08C081E00F3F110511F0AE
:1035C00008F080E0819501C08FEF2296E4E00C9432
:1035D00053379B01482F477054E8459FB001112491
:1035E00044E850E0E3E096958795EA95E1F729C72E
:1035F0009B01482F477054E8459FB001112444E8CF
:1036000050E0E3E096958795EA95E1F748C7803169
:1036100008F0A0DF282F2695269530E0FB013183A6
:1036200020838370F2E48F9FC0011124FA019183FB
:1036300080830895A6E4B0E0E0E2FBE10C94373724
:10364000803108F087DF8E010F5F1F4F92E4F80191
:1036500011929A95E9F7AE014D5B5F4FBE016B5B2E
:103660007F4FD5DF25966EAD7FAD2597980142E45B
:1036700050E027968EAD9FAD2797E3D6CA5BDF4F0C
:10368000E4E00C9453378091E7040895A2E0B0E0A1
:10369000ECE4FBE10C9439379A838983E5EEF4E09E
:1036A00090878783658176819E012F5F3F4F42E03F
:1036B00050E083819481C5D62296E2E00C94553780
:1036C000A2E0B0E0E6E6FBE10C9439379A83898307
:1036D000E5EEF4E09287818765817681665C7F4FB5
:1036E0009E012F5F3F4F42E050E083819481A9D635
:1036F0002296E2E00C945537A2E0B0E0E2E8FBE16C
:103700000C943937E5EEF4E0658176819E012F5FF8
:103710003F4F42E050E083819481C1D689819A81F4
:103720002296E2E00C945537A2E0B0E0EAE9FBE132
:103730000C943937E5EEF4E065817681665C7F4F65
:103740009E012F5F3F4F42E050E083819481A7D6D6
:1037500089819A812296E2E00C945537A4E0B0E08A
:10376000E4EBFBE10C9439377A8369835C834B8308
:103770008E3008F0EFDE6091EA047091EB046E5F2A
:103780007F4F94E0899F600D711D11249E012F5F72
:103790003F4F44E050E08091E8049091E90451D615
:1037A0002496E2E00C945537CF92DF92FF920F936C
:1037B0001F93CF93DF9300D000D000D0CDB7DEB7FA
:1037C000F82E6B018A012DE0281708F4C3DE209142
:1037D000EA043091EB042E5F3F4FB90184E0F89E7C
:1037E000600D711D11249E012F5F3F4F44E050E09A
:1037F0008091E8049091E90452D689819A81F6017A
:10380000918380838B819C81F80191838083682FD1
:103810006770F4E86F9FB00111249E012B5F3F4F4A
:1038200042E050E0E3E096958795EA95E1F737D6D8
:103830008D819E8195FF12C0F80180819181892B35
:1038400099F040E050E060E070E08F2D87DFF601F6
:1038500011821082F8011182108206C0F801808165
:10386000918187DE8111E8CF26960FB6F894DEBFEE
:103870000FBECDBFDF91CF911F910F91FF90DF90D1
:10388000CF900895E5EEF4E065817681625C7F4F2C
:103890009C0143E050E083819481D3C5E5EEF4E0E0
:1038A00065817681625C7F4F9C0143E050E08381BB
:1038B0009481F5C5CF93DF93EB01BC01CE0198DE77
:1038C000CE0157DE81114BDEDF91CF910895F2CF0B
:1038D00008950F931F93CF93DF93EC018B01EADFE1
:1038E0008091300690913106009741F099A388A30A
:1038F000BE01C8016EDEB801CE01DCDFDF91CF91E1
:103900001F910F910895A9E0B0E0E9E8FCE10C9463
:1039100037370091EC041091ED0484E3ECEFF5E00F
:10392000DF011D928A95E9F782E10E94541181110D
:1039300027C0E2DE9093F1048093F00431C0C80107
:1039400023E0969587952A95E1F78115B8E09B07C6
:1039500038F5602F677024E8629FB00111249E0142
:103960002F5F3F4F49E050E09AD5E9858FE98E0FF0
:103970008A3150F01093F1040093F0040D811E8100
:1039800001151105E1F60CC0F0E0EE0FFF1FE65C3B
:10399000FA4F80819181892B69F711830083EACFE7
:1039A0002996E4E00C9453379FE9980F9A31B8F4C4
:1039B000E82FF0E0EE0FFF1FE65CFA4F2081318127
:1039C0002115310581F4E92FEE0FFF0BE450FA4F7A
:1039D000208131812115310531F49150A0F72091DA
:1039E000EC043091ED04C9010895A2E0B0E0EBEFE2
:1039F000FCE10C943037B82EA62E972E8A01E22EC9
:103A00004F3F510509F010F400E011E0F12C0115D1
:103A100088E0180760F5680183E0CC0CDD1C8A950E
:103A2000E1F781E08E15F8F084E8E89EF0011124BA
:103A30009E012F5F3F4F42E050E0BF01C8012FD5EC
:103A400089819A8195FF0DC0FB1488F4EA2DF92D28
:103A5000EF0DF11DEF0DF11DC6018E2991838083BD
:103A6000F394E394DECF0F5F1F4FE12CD0CF8F2D67
:103A70002296EBE00C944C37CF93C82F803108F09E
:103A80006EDD4AEE54E068EE74E0C1DD4DDE9093E9
:103A9000EF048093EE0430DE9093ED048093EC0409
:103AA000C093E7041092E6041092E50420E040E0A1
:103AB00050E062EF74E081E098DF811104C0109261
:103AC000F3041092F2041FDFCF910895A4E0B0E058
:103AD000ECE6FDE10C9431375C016B017A01122FA9
:103AE00020E040E050E0BE016F5F7F4F82E07DDF6D
:103AF000823011F08FEF33C01130A9F4B50184EF9B
:103B000094E0D8DE46E050E0B60184EF94E00E94F5
:103B10007737892B79F789819A81F6019783868394
:103B2000B601C50156DDF70180819181907E20911B
:103B3000E704922B9F71906C91838083011104C0E4
:103B40008B819C8193838283B70189819A8141DD36
:103B50008B819C819093F3048093F20480E02496FF
:103B6000EAE00C944D374091F2045091F304242F75
:103B7000277083E0569547958A95E1F762EF74E0E8
:103B800081E033DF811104C01092F3041092F2043B
:103B90000895A0E0B0E0EFECFDE10C942D37FA01C0
:103BA00071836083E091F204F091F304EF2B11F440
:103BB0008FEFA1C05A016B013C01FC018081918112
:103BC000907E3091E704932B9F7D918380831382B5
:103BD0001282158214826115710569F4B301809116
:103BE000F2049091F304F5DCB3018091F20490911A
:103BF000F304FEDC77C07B01C22FD0E010E0CE01E1
:103C00008C509B4F4C01C60DD71DB70184EF94E03B
:103C100051DEA801B401CE010E949B37181624F58D
:103C20008091F8049091F904009711F07C01EDCF98
:103C3000F301F382E282B3018091F2049091F304E4
:103C4000C8DC8091F2049091F3049093F90480937E
:103C5000F80464EF74E0C701BCDC6091F204709179
:103C6000F304C30127DE45C0882309F4A1CFF30183
:103C7000F582E4828091F6049091F7049383828325
:103C8000B3018091F2049091F304A3DCB30180911D
:103C9000F2049091F304ACDC8091F2049091F3046F
:103CA0009093F7048093F60464EF74E0C70191DC0D
:103CB000F301628173816115710589F084EF94E0ED
:103CC000F9DD8091F2049091F3049093F9048093CC
:103CD000F80464EF74E0F301828193817ADCEC14E0
:103CE000FD0439F48091F2049091F304F50191837D
:103CF000808339DF80E0CDB7DEB7EEE00C94493742
:103D0000A2E0B0E0E6E8FEE10C943537162F611131
:103D100005C0E090EC04F090ED0404C0E090EE04E7
:103D2000F090EF04FC0117821682208131813F73ED
:103D3000112311F03068FC01318320830AE328E06D
:103D4000AE014F5F5F4FB70124DF082F81110AC01A
:103D500089819A81E816F90629F0111102C096DCD2
:103D600001C0AEDCD0DD802F2296E6E00C94513706
:103D7000AF92BF92CF92DF92EF92FF920F93CF93C9
:103D8000DF9300D0CDB7DEB76C017B01FB01208152
:103D900031813F733064318320838091300690916C
:103DA0003106978F868F91A380A3B60184EF94E0AC
:103DB00081DDA090FA04B090FB040FE325E2AE0190
:103DC0004F5F5F4FB501C701E4DEF82E811113C0CC
:103DD00089819A81A816B90671F0B60184EF94E042
:103DE00069DD89819A819093FB048093FA0464EFE2
:103DF00074E0C601EEDB8F2D0F900F90DF91CF9115
:103E00000F91FF90EF90DF90CF90BF90AF9008950B
:103E1000A8E0B1E0EEE0FFE10C9432370091EC0451
:103E20001091ED048091E70405DCD12C01151105FA
:103E300009F443C0B801CE018B579F4F3BDDC557F6
:103E4000DF4FE880F980CB58D040E114F104D9F07D
:103E5000B701CE0101963DDDD11003C0BD80CE80FB
:103E600002C0BB80CC8044E850E06FEF70E0CE0130
:103E700001960E948D37BE016F5F7F4FC701A9DB9E
:103E8000EB2CFC2CE2CFC757DF4FE880C958D0405D
:103E9000C657DF4FF880CA58D04044E850E06FEF73
:103EA00070E0CE018B579F4F0E948D37BE016B573C
:103EB0007F4FC8018EDB8701B9CF0091EE041091CE
:103EC000EF0481E0D81619F0DD24D394AFCFC85F9A
:103ED000DE4FE9E00C944E37A0E0B0E0E2E7FFE10E
:103EE0000C9433376C017B01BC0184EF94E0E2DC7D
:103EF000B70188E795E0EDDC00917A0510917B052C
:103F0000C0917C05D0917D0544E850E06FEF70E0F2
:103F100088E795E00E948D3768E775E0C70159DBB7
:103F20000115110561F0B80188E795E0D2DCD09366
:103F30007D05C0937C0568E775E0C8014ADB2097E2
:103F400061F0BE0188E795E0C4DC10937B05009327
:103F50007A0568E775E0CE013CDB8091FA04909128
:103F6000FB048E159F0541F4D093FB04C093FA0423
:103F700064EF74E0C6012DDBF6DD80E0CDB7DEB77F
:103F8000E8E00C944F37A0E0B0E0E9ECFFE10C94DE
:103F900033376C01EB017A018901BA0184EF94E0B7
:103FA00089DCB80188E795E094DC48E050E064EFF4
:103FB00074E0C6010E947737892B61F546E050E036
:103FC00068E775E0CE010E947737892B19F580915B
:103FD0003006909131069F8F8E8F99A388A34FE36F
:103FE00050E06DE975E0CE0185960E949B37892BE4
:103FF00041F4BE01C801EDDAB801CE016ADC80E00F
:104000000AC0B801C70168DF811105C0BE01C70140
:10401000AFDE01C08FEFCDB7DEB7E8E00C944F37CD
:104020001F920F920FB60F921124CF92DF92EF9250
:10403000FF920F931F932F933F934F935F936F9331
:104040007F938F939F93AF93BF93CF93DF93EF9320
:10405000FF93E0915A0786B5F0E0EE5CF94F80835C
:1040600080915A078F5F80935A0780915A07803258
:1040700008F45DC010925A07E0915906F0E0C2E3DF
:10408000D6E020E030E0A9011C2F105E8991280FB6
:10409000311D411D511DA1E0B4E00E941F376B018D
:1040A0007C01A6E0F694E794D794C794AA95D1F73B
:1040B000A701960126273727482759271C13E6CF43
:1040C000A9E0B0E00E941F378B019C014BE03695C0
:1040D0002795179507954A95D1F7A90198012627A5
:1040E000372748275927A1E0B0E80E941F37EE0F75
:1040F000FF1FEE0FFF1FE65AF94F60837183828323
:1041000093838091590690E001968F73992780934D
:10411000590680915B07803429F480915906809379
:10412000530605C080915B078F5F80935B07FF910B
:10413000EF91DF91CF91BF91AF919F918F917F913F
:104140006F915F914F913F912F911F910F91FF9030
:10415000EF90DF90CF900F900FBE0F901F901895AB
:1041600014BC81E085BD9FB7F89484B7877F84BF76
:10417000E0E6F0E080818861808380E480839FBFF7
:104180000895CF92DF92EF92FF92282FDC0134E066
:104190008A2F821B8617C8F58091580681112AC084
:1041A00080915B078823E1F34FB7F894E0915306C1
:1041B00084E0E89FF0011124E65AF94FC080D180D5
:1041C000E280F3808091530690E001968F739927E7
:1041D0008093530680915B07815080935B074FBFAC
:1041E000C0925406D0925506E0925606F0925706B9
:1041F00030935806E0915806E150E0935806F0E0FD
:10420000EC5AF94F80818D93C3CFFF90EF90DF90F0
:10421000CF90089580915C0790915D0701969093EF
:104220005D0780935C0780E090E08930910531F470
:1042300020915C0730915D07232BB1F4FC01EE0F58
:10424000FF1FE80FF91FE25AF84F20813181232B1D
:1042500059F020813181A901415051095183408396
:104260002130310509F4128201968A309105E9F670
:10427000089590E0FC01EE0FFF1F8E0F9F1FFC01C1
:10428000E25AF84F8281811104C0613021F46283C7
:10429000089581E0089580E0089590E0FC01EE0F1C
:1042A000FF1F8E0F9F1FFC01E25AF84F8081918102
:1042B0008617970759F08FB7F89471836083672B3F
:1042C00011F4128202C091E092838FBF089590E0B2
:1042D000FC01EE0FFF1F8E0F9F1FFC01E25AF84FEB
:1042E000808191810895BC016F5F7F4F86E0D5DFAB
:1042F000809172078111FCCF81E08093720708954D
:1043000082E890E0F0CF84EF91E0EDCF9091C8008B
:1043100095FFFCCF8093CE008091C80087FFFCCF33
:104320008091CE0008958DE291E00E944D31FFCF43
:10433000A0E0B0E0EEE9F1E20C9433378C01EB0140
:104340007A012F986C0184E0C80ED11CF80180819D
:10435000DDDFF80181938F01EC15FD05B9F78E01C2
:104360000E0D1F1DC017D10721F08881CFDF899363
:10437000F9CF2F9ACDB7DEB7E8E00C944F372F98DE
:1043800087EDC4DF80E0C2DF87FFFACF2F9A089560
:10439000A4E0B0E0EEECF1E20C9439378FE98983C8
:1043A00040E050E0BE016F5F7F4FCB01C1DF8A81EB
:1043B0008F3139F481E09B81943209F480E081955A
:1043C00001C08FEF2496E2E00C945537279A2F9A7C
:1043D0000895A4E0B0E0EFEEF1E20C94393787ECF9
:1043E000898384E98A8380E88B838AE98C8340E02F
:1043F00050E0BE016F5F7F4FCB019ADFC0DF249694
:10440000E2E00C945537A4E0B0E0E9E0F2E20C946D
:104410003937811528E0920708F085DF23E52983E5
:10442000880F991F9A838B831C8240E050E0BE0165
:104430006F5F7F4FCB017CDFA2DF2496E2E00C941C
:104440005537A6E0B0E0E7E2F2E20C9433378C0196
:104450007B0169018115984008F065DFCA01019769
:10446000860F971F88309140C0F7C8014D835E8347
:10447000CADF82E88983000F111F8F2D9927082B2F
:10448000192B1A830B83EC824D815E81B601CE011C
:1044900001964EDF74DF2696E8E00C944F37A4E0D7
:1044A000B0E0E5E5F2E20C9439378115A8E09A070F
:1044B00008F039DFFA013197E60FF71FE830F140D5
:1044C000C0F7E3E0E983880F991FE72FFF278E2BC2
:1044D0009F2B9A838B836C83B901CE01019628DFD1
:1044E0002496E2E00C945537A4E0B0E0EAE7F2E26B
:1044F0000C9435378C01CB017A0168E071E00E94A1
:10450000F2369C01CB01982F8827990F282B392B45
:1045100083E08983FB01EE0FEF2FEE1FFF0BF19578
:10452000EA833B832C83A701B801CE01019600DF0B
:104530002496E6E00C945137A4E0B0E0E2EAF2E21F
:104540000C94393724E829831A827B836C83BC015D
:10455000CE010196EDDE13DF2496E2E00C94553790
:10456000A4E0B0E0E6EBF2E20C94393723E82983CB
:10457000880F991F9A838B831C8240E050E0BE0114
:104580006F5F7F4FCB01D4DEFADE2496E2E00C941D
:1045900055371F920F920FB60F9211242F933F930E
:1045A0004F935F936F937F938F939F93AF93BF933B
:1045B000EF93FF930E948A062DDEFF91EF91BF914A
:1045C000AF919F918F917F916F915F914F913F91AB
:1045D0002F910F900FBE0F901F90189587E080933A
:1045E00089008FEC80938800109280008AE080938D
:1045F0008100EFE6F0E08081826080837894089506
:1046000080E090E00E94C1377C0199E0E0E0F0E0BA
:1046100090935700E491EF3FB1F4E3E0F0E0909322
:104620005700E491E83D79F4E2E0F0E09093570020
:10463000E491E83F41F4E1E0F0E090935700949179
:10464000C1E09C3F09F0C0E08DEAE8168EEDF80667
:1046500039F00E94421160E082E090E00E94CF3782
:1046600080E00E945411853E31F00E94421165EEB7
:1046700080E00E943A110E943A2C0E94BE06AEDFF2
:104680003FDE0E94772E3CDE0E940A2D69DD93D426
:104690009DDE0E94572C88E00E945411882391F0DF
:1046A00083E00E94541180934D0172DE182F87E041
:1046B00070D4EDEAEE16EEEDFE0639F08ADE0E94C9
:1046C000221103C00E948D2EE9CF0E942B2DD82FDE
:1046D0000E94212D1111FECFD111FECFC130F1F773
:1046E000FDEAEF16FEEDFF0631F06DEA7EED80E0AB
:1046F00090E00E94DD3741D280E10E94541188236E
:1047000051F10E941A2D0E94E40883E3E82E82E012
:10471000F82E1BE2F70104913196C49121E0412F5C
:1047200060E080E00E94042CD0E0802F0E94B02D39
:10473000282F880F330B2C233D23232BB1F30E940A
:10474000AC2DF2E0EF0EF11C1F5F113319F760E0A2
:1047500080E10E943A1180E00E94E10E0E94210F48
:1047600080E00E94B02DC0E0D0E0CE010E94502C2D
:1047700080E090E0B8DD2196CF3F87E0D807A9F729
:104780000E94E4080E94172D0E948E2D60ED77E0B4
:1047900087E083DD80E00E942B3280914C018823EA
:1047A00051F00E94E108813011F40E94210F0E9413
:1047B000E40810924C0160E087E05BDD811102C0EB
:1047C0000E948C090E94E108813009F444D061E024
:1047D00088E04FDD811116C00E94DB12813091F418
:1047E0000E94311980E40E94480F80E10E94E10E8E
:1047F0000E94E108813021F46CD3F7D16AD302C062
:104800000E94210F0E94FB04823029F40E94E408D8
:104810000E9496190EC0833061F40E94E4080E9441
:1048200031198FE00E94480F80E00E94E10E0E9443
:10483000210F80914D01813009F0ACCF61E089E01A
:1048400018DD8111A7CF80E10E94E10E0E94210FA7
:104850000E9431199FCF0F93209105018091500143
:1048600090915101820F911D27FD9A958D3E9105E2
:1048700020F021952093050104C09093510180936D
:1048800050012091040180914E0190914F01820FBF
:10489000911D27FD9A958D32910520F02195209349
:1048A000040104C090934F0180934E010E94DB12DB
:1048B000813011F44EE001C04AE220E060914E01E7
:1048C00080915001A1D791D181E10E94541190E0D3
:1048D0000ADD609106017091070100E024E144E1E6
:1048E00050E08091520162D280915001909151012B
:1048F000909353018093520180914E0190914F010A
:1049000090930701809306010F910895CF93DF9351
:10491000FC0187859089218532858217930748F5A8
:104920000196908B87876489758961157105C9F037
:1049300086A1803138F491E0980F96A3E80FF11D1D
:10494000868918C0EF0140E150E0CF014696CCDDEA
:104950008C899D8940969D8B8C8B81E08EA38E895E
:1049600009C0A781B085CD010196908787838C917E
:1049700001C080E0DF91CF910895CF93DF93FC01D8
:1049800087859089218532858217930770F5019676
:10499000908B87876489758961157105E9F086A117
:1049A000883050F491E0980F96A3E80FF11DE80FBE
:1049B000F11D868997891BC0EF0140E150E0CF01CE
:1049C000469692DD8C899D8940969D8B8C8B81E0EB
:1049D0008EA38E899F890BC0A581B681CD010296D9
:1049E000968385838D919C9102C080E090E0DF9159
:1049F000CF910895AF92BF92CF92EF920F931F93F2
:104A0000FC01648312830183E3823683258330872C
:104A10002783E09EC001E19E900D1124928781873B
:104A200081E090E001C0880F6A95EAF781508083A9
:104A300080E18487138625E53AEA36872587108A40
:104A40001786428BC38AB58AA48A86A31F910F91C9
:104A5000EF90CF90BF90AF900895EF92FF920F9399
:104A60001F93CF93DF93EC018A89F62E00E010E0CC
:104A700080FD1CC02FE0E22E47C094E0000F111F04
:104A80009A95E1F78B85811109C0CE013FDF982F00
:104A900092959F709F5F9B878F70898B8B858823F2
:104AA00021F09989092B81508B87FA94F110E5CF79
:104AB00051C084E0000F111F8A95E1F78B858111A9
:104AC00006C0CE015ADF9E878D878C858B874B85EC
:104AD0005C8128818D859E854517C8F0451B4B87D5
:104AE000622F70E002C0969587954A95E2F79C0187
:104AF00026233723E29EC001E39E900D11240E94DD
:104B0000F236062B172BFA94F110D3CF23C0352F92
:104B1000341B02C0880F991F3A95E2F730E08223D8
:104B20009323082B192B8C85480F451B4B87CE01EF
:104B300024DF9E878D879C010B8402C036952795C4
:104B40000A94E2F7E29EC001E39E900D1124688171
:104B500070E0D5CFC801CDB7DEB7E6E00C94513791
:104B60009091C80095FFFCCF8093CE008091C80043
:104B700087FFFCCF8091CE00089581E09091E40200
:104B8000911180E08093E50280E48093E70208952C
:104B90008091E4028093E5021092E702089567FD98
:104BA0006FE72091E50230E0F901E95AFE4F80837A
:104BB000F901EB5AFE4F608308955E985F98D0DF4D
:104BC0005E9A08955E985F9ACBDF5E9A0895CF93C0
:104BD000C091E8028C0FC82FCF77C093E80281EA1A
:104BE000ECDF8C2FEFDFCF91089580E4F0DF81E0E0
:104BF0009091E402911180E08093E40281E0909131
:104C0000E502911180E08093E5020895CF93C82FCB
:104C10005E985F9A892FA4DF8C2FA2DF5E9ACF91D6
:104C20000895A1E0B0E0E7E1F6E20C943837182FE0
:104C300085E16983C2DF812FC5DF6981862FC2DFED
:104C40002196E3E00C945437A1E0B0E0EAE2F6E20A
:104C50000C943837182F85E76983AFDF812F8F7762
:104C6000B1DF6981862F8F77ADDF2196E3E00C9469
:104C70005437A1E0B0E0EFE3F6E20C943837162F9A
:104C800056954795569547956CE1640F86958695A0
:104C9000845E2983C6DF2981622F812FD5DF21968B
:104CA000E3E00C945437A2E0B0E0E9E5F6E20C94BE
:104CB00037378B0190E080589F4F0E94AC188F3F90
:104CC00089F0F8016081718142E050E0CE010196E7
:104CD0000BDCF80180819181029691838083898128
:104CE0009A8102C08FEF9FEF2296E4E00C94533735
:104CF000CF93C82F61E671E0D6DF0297C9F4C09365
:104D000009012091610130916201C90168E071E0FF
:104D10000E94F2367093600160935F0190935E0190
:104D200080935D0144E050E0B90189E591E0DCDB6E
:104D3000CF9108958EEA41DFE3DA729A1092E3028E
:104D400008957298DDDA8FEA38DF81E08093E3021C
:104D500008958091E30208950F931F93CF93DF93FB
:104D6000C82F6BE58CE15DDF9091E8028091E7024E
:104D7000890F6FE3680F68DF80E1C89F90011124FD
:104D8000CF70C9018C2BD82FCC27C82BD92B8CE501
:104D900014DF00E410E4CE0139DF1150E1F70150D7
:104DA000C9F7DF91CF911F910F910895A0E0B0E076
:104DB000ECEDF6E20C942D37A82E4B01EA01122FF0
:104DC000E090E802F12C6B01CE0CDF1C8091E70231
:104DD000C80ED11CE894C7F8DD248A2D837029F011
:104DE000C80FD11D2A2D2C7FA22ECE0183709927AA
:104DF000892B11F0CC7F249620E1029FC001112461
:104E00000F70B02EB82A8A2D90E03E01680E791EF0
:104E100021E06216720660F040E051E0481B590B39
:104E20000B2D212FB4018A2DC1DFE301DA95A12CCE
:104E3000C601810F911D17FD9A95813891057CF06F
:104E400020E82C19B7016C197D09680D791D0B2D0F
:104E5000AE018A2DABDF10581C0DC12CD12C212F97
:104E60002C0D2150AE01415051094A0D511D6C2DA0
:104E70008A2DFFDE8CE5A1DE11502396D695C795CD
:104E8000D695C795FA2CF694F69417FD1DC000E050
:104E9000802F90E08C179D0730F48B2D93DE8B2DA7
:104EA00091DE0F5FF5CFF601E10FF11D17FDFA95C9
:104EB000CF01880F991FE80FF91FED59FE4FF082BF
:104EC000128211821150E1CFCDB7DEB7EEE00C9423
:104ED00049378091540140DF2091E8028091E70238
:104EE00090E0820F911D20E030E0F901E80FF91FFA
:104EF000EF77FF27AF01440F551FE40FF51FED5962
:104F0000FE4F1082128211822F5F3F4F20343105F5
:104F100061F78091E50290E0FC01E95AFE4F1082B2
:104F2000FC01EB5AFE4F10820895EF92FF920F930F
:104F30001F93CF93DF9300E010E0F801E15CFD4F99
:104F400084913BDEF801E05CFD4FC491780182E082
:104F5000E80EF11CDC2FDD2351F0F701E15CFD4F81
:104F6000849130DE8FEFE81AF80AD150F4CFEC2F9D
:104F7000F0E032960E0F1F1F07331105F0F2FDDD32
:104F8000A8DF06DEA6DFDDDECDB7DEB7E6E00C94F7
:104F9000513790E49093E6029FE0909308011092BD
:104FA00054011092E802A4DEC0CF5C98A9D95C9AA3
:104FB0008AE090E098C9569A5E9A579A549AF5DF1B
:104FC0006A9A729A0895A1E0B0E0E9EEF7E20C94D3
:104FD00033376B018A01EDB6FEB6452B69F42DB768
:104FE0003EB7275031090FB6F8943EBF0FBE2DBF14
:104FF0000DB71EB70F5F1F4F909109019F3FE1F161
:1050000090915A01992311F081E031C0803270F003
:1050100090E04C976091610170916201680F791F77
:1050200041E050E0CE0101965FDA01C0198289812A
:10503000C114D10411F0F6018083F7E08F9FC00105
:1050400011248C5F9E4F6091610170916201680F25
:10505000791F47E050E0C80147DAF8012581368121
:1050600093812F3F3F4F29F4F80180818F5F890F93
:1050700004C0F8018181FACF80E00FB6F894FEBE3B
:105080000FBEEDBE2196E8E00C944F37EF92FF92F1
:105090001F93CF93DF937C0110E0C0E0D0E0F701D5
:1050A000E10FF11D8081882349F040E050E060E08D
:1050B00070E089DFC80FD11D1F5FF1CFCE01DF91F6
:1050C000CF911F91FF90EF900895809109018F3F3C
:1050D00051F091E080915A01811101C090E08091DE
:1050E0005901890F089580E008950F93CF93DF93BE
:1050F000EC01EBDF00915401282F40E051E0BE01AC
:1051000080E054DEDF91CF910F910895CF93DF932C
:10511000C82FD62F811102C0D8DFC82F8C2F57DDA2
:10512000DD2331F08C2F90E0919581959109DDDFA1
:10513000DF91CF910895AFE1B0E0E1EAF8E20C949D
:1051400029375C018B01842F2DB73EB73B8F2A8F07
:10515000909109019F3F09F4ACC1AE014F5F5F4FD1
:10516000BE01685F7F4F2FDF20915B0188E0821BCB
:10517000898B90905A01422F50E05E874D87809135
:10518000080190E0880F991F61E070E0022E02C0D4
:10519000660F771F0A94E2F7615071090E94063783
:1051A0007E8B6D8B91104DC06E817F816F3F5FEF65
:1051B000750731F4998080905901C12CD12C44C0DD
:1051C0009A808B808C819D81090F111D97FD1A9506
:1051D000A80EB11C87FDBA94B7FE02C0A12CB12C59
:1051E00017FF02C000E010E0929EC0011124079654
:1051F000A3E095958795AA95E1F7889EA001899EE1
:10520000500D112480915C0197E0899F600D711D04
:1052100011246C5F7E4F8091610190916201680F53
:10522000791FADB7BEB7A41BB50B0FB6F894BEBFC0
:105230000FBEADBFEDB7FEB731966F01CF0154D9A8
:1052400003C0C12CD12C812CC50164E070E00E9408
:1052500006378F8B9091E8022091E70230E0290F0A
:10526000311D2F773327A801420F531F598F488FC5
:105270009501B7FE02C02D5F3F4FB9017595679547
:10528000759567957B8B6A8B3A893C8B1C861B8650
:10529000492D50E0588B4F879A012A0D3B1DB901CB
:1052A000615071097D8F6C8F24E030E0D901A81B1B
:1052B000B109BF8FAE8F5B85581508F0F6C08B859E
:1052C000B88D8B0F8F778987282F4C8D5D8D682F38
:1052D0008A2DCFDC8CE571DC3F8910E000E03323C0
:1052E00009F467C0E12CF12C212C312C8E8D9F8D7F
:1052F00028163906CCF5011111C0C114D10431F0C2
:10530000D6011C91F60131966F0101C010E088E0D2
:1053100090E06D857E850E940637062F74E0EE0CC6
:10532000FF1C7A95E1F7212F30E0A901098802C01E
:10533000559547950A94E2F76D897E89469FC0018D
:10534000479F900D569F900D112496958795E82ABA
:10535000F92A0D8401C0220F0A94EAF7122F015096
:105360007FEF271A370AC2CF3985632E712C2301AC
:10537000440C551CF201E60DF71DED59FE4F8081DE
:1053800090E04A895B894817590721F4818192810D
:10539000E82AF92AC7013ADCE114F10481F0F201AC
:1053A000E60DF71DED59FE4FF282E1823C89308314
:1053B00006C080E0E12CF12C212C312C01C081E0D1
:1053C0007C88780E3985432E512CC201880F991F95
:1053D000840D951DAC014D595E4F2A019A012F5F36
:1053E0003F4F3A8729872F853889221633060CF0DC
:1053F00055C0E0E0F0E044E0EE0CFF1C4A95E1F718
:10540000CF01820D931D4F855889841795078CF520
:10541000011112C0C114D10439F0D6011C919601BA
:105420002F5F3F4F690101C010E088E090E06D857B
:105430007E850E940637062F212F30E0A9010988BA
:1054400002C0559547950A94E2F76D897E89469F7B
:10545000C001479F900D569F900D112496958795FA
:10546000E82AF92A0D8401C0220F0A94EAF7122FC4
:1054700001503196E430F10509F0BDCFC701C6DB1C
:10548000E114F10431F0A985BA85ED92FC92F201A4
:105490007082F4E02F0E311C7394A5CF4B855C8590
:1054A0004F5F5F4F5C874B8706CF8C818F5F890D85
:1054B00001C080E06A8D7B8D0FB6F8947EBF0FBE71
:1054C0006DBF6F96E2E10C944537A1E0B0E0EBE6EA
:1054D000FAE20C943237F82EF8DDE82E6F2D70E0EA
:1054E0006C5171098091610190916201680F791F7F
:1054F00041E050E0CE0101960E94742289818F3FE5
:1055000019F08FE18F1540F0EDE0FE1629F0FAE07A
:10551000FF1611F08FE3F82E2091E502C22ED12C58
:1055200086010B5A1E4FF801B0808E2D90E08B0D36
:10553000911D8134910564F08091E402281711F0E7
:10554000108206C061E080E0E1DDBE18F801B082A3
:10555000FAE0FF1621F08DE0F81629F009C0F801F5
:105560008081E80EE082F601E95AFE4F10822EC0DB
:1055700040E050E060E070E08F2D25DD282FE091C5
:10558000E502F0E0DF01A95ABE4F8C9130E0280F10
:10559000311DEB5AFE4F2130314024F08081E80E5E
:1055A000E0821C920091540110E02091080130E04B
:1055B000608170E08C914F2D90E0BDDDE091E502BF
:1055C000F0E0E95AFE4F9081890F80832196E9E04F
:1055D0000C944E37CF93DF93EC018991882311F01F
:1055E00074DFFBCFDF91CF910895A2E0B0E0EBEF45
:1055F000FAE20C9435377C018901C9014A83698339
:1056000045DD4A816981423061F4FC0197FD3196A4
:10561000F595E795EE1AFF0AC70180589F4F7C0168
:105620000AC0413041F4E816F9061CF420E031E0EC
:105630007901E81AF90A8E2DB2DAC801CBDF229679
:10564000E6E00C945137ABE0B0E0E9E2FBE20C9409
:105650002937282E5A01922FFA01E180F2803381F6
:105660003A83382F369536953C83382F33703B83F9
:105670003090E7028091E802380E630D6F77362E86
:10568000822F8370870101501109C22CD12C811106
:105690000CC02A812150260FA8014C0D5D1D822DC2
:1056A0009987E7DA8CE589DA9985C00ED11E9601D3
:1056B00036952795369527952D83E32DF0E0FB87CA
:1056C000EA879170998384E090E03C013B81631A02
:1056D000710834E03E0D38878A8583193A81831733
:1056E00008F07DC03981332339F02A85A601622F65
:1056F000822DBFDA8CE561DA3B813323D9F0830157
:10570000662DC501AAD92C01EA85FB85EF77FF2715
:10571000CF01880F991FE80FF91FED59FE4F8081C7
:105720003C81381304C081819281482A592AC201E0
:105730006DDA04C0412C512C00E010E0C8018E1934
:105740009F09880F991F880F991F812C912C9C010C
:10575000205F3F4F3F832E830E151F05F0F40C5F33
:105760001F4F0E151F0528F464E0C50176D92C01E2
:105770000EC06885601BC50170D92E813F81280D40
:10578000391D2C0102C0440C551C2A95E2F7C201B8
:105790003DDA30E1830E911CDFCF4114510479F0E2
:1057A000EA85FB85EF77FF27CF01880F991FE80F68
:1057B000F91FED59FE4F528241823D81308339817C
:1057C000332339F081E003DA80910A0190E00E94EE
:1057D00073218A859B8501969B878A877DCF398136
:1057E000332371F081E09091E402911180E0809385
:1057F000E40281E09091E502911180E08093E5025E
:105800002B96E2E10C944537A0E3B0E0EAE0FCE23D
:105810000C943037F82ED62E842F922EBE01615D67
:105820007F4F41DA019709F56FA578A947E050E06D
:10583000CE0188960E947422AFA4B8A887E0A80E73
:10584000B11C08A519A5C12CEAA427E030E04CA59D
:105850006BA5CE010196CED8292DAE014F5F5F4FCB
:105860006D2D8F2DF0DE80E001C08FEFE096EBE034
:105870000C944C37EFEBF0E083E080838FEF809364
:10588000D10080838093CF003F9A479882EC809329
:10589000C00080E48093C40081E08093C10008953B
:1058A00090959093BF0080958093CF000895ECEC85
:1058B000F0E0118210828AB188628AB952985A98AF
:1058C00080EC8093CA0088E18093C9001182108225
:1058D00008958091BC0087FFFCCF0895A1E0B0E05F
:1058E000E4E7FCE20C943737162F94EA9093BC005F
:1058F0008983EFDF9091B900987F8981983029F0F2
:1059000084E98093BC008FEF20C08093BB0004E843
:105910000093BC00DEDF8091B900887F883129F0D8
:1059200084E98093BC008EEF10C01093BB000093FD
:10593000BC00CFDF8091B900887F883211F480E00D
:1059400004C084E98093BC008DEF2196E4E00C94C0
:105950005337CF93C62F682F88E3C0DF811114C05F
:10596000C093BB0084E88093BC00B3DF8091B90092
:10597000887F883229F484E98093BC0080E004C0E9
:1059800084E98093BC008DEFCF910895CF93C82F09
:10599000A5DF811120C084EA8093BC009ADF80914A
:1059A000B900887F803171F4C160C093BB0084E886
:1059B0008093BC008EDF8091B900887F803439F4F9
:1059C00080E009C084E98093BC008CEF04C084E9C6
:1059D0008093BC008BEFCF910895A1E0B0E0E3EF9E
:1059E000FCE20C9437378B01682F88E3CFDF8111FD
:1059F0000DC094E89093BC0089836BDF9091BB004D
:105A0000F801908394E99093BC0089812196E4E0A9
:105A10000C9453378C9A589A599A8498509A519A60
:105A200083E08093B80084E88093BC00089562E12D
:105A300086E08FCF60E08BE28CDF64E18FE189DF6D
:105A4000F6CF87E00E945411682F8BE282DF64E07A
:105A50008FE17FDFECCFEF92FF921F93CF93DF9325
:105A60001F92CDB7DEB7BE016F5F7F4F80E0B5DF1D
:105A7000811107C011E089818E3309F410E011957E
:105A800001C0182F11112FC086E7E82E82E0F82EF2
:105A9000F7018491319664915CDFF2E0EF0EF11C26
:105AA00084E9E81682E0F80699F785E00E9454112F
:105AB000682F8BE04EDF8AE00E945411682F8FE040
:105AC00048DF8BE00E945411682F88E242DF8CE0AF
:105AD0000E945411682F89E23CDF8DE00E9454112E
