:107000008AE08EBF8FEF8DBF11243EC452096AD52E
:107010003036A538BF40A39E81F3D7FB7CE339828D
:107020009B2FFF87348E4344C4DEE9CB547B9432DC
:10703000A6C2233DEE4C950B42FAC34E082EA16624
:1070400028D924B2765BA2496D8BD12572F8F664FB
:1070500086689816D4A45CCC5D65B6926C70485076
:10706000FDEDB9DA5E154657A78D9D8490D8AB002B
:107070008CBCD30AF7E45805B8B34506D02C1E8F54
:10708000CA3F0F02C1AFBD0301138A6B3A91114190
:107090004F67DCEA97F2CFCEF0B4E67396AC742279
:1070A000E7AD3585E2F937E81C75DF6E47F11A71F7
:1070B0001D29C5896FB7620EAA18BE1BFC563E4B30
:1070C000C6D279209ADBC0FE78CD5AF41FDDA833F2
:1070D0008807C731B11210592780EC5F60517FA932
:1070E00019B54A0D2DE57A9F93C99CEFA0E03B4D61
:1070F000AE2AF5B0C8EBBB3C83539961172B047ED5
:10710000BA77D626E169146355210C7D637C777BC1
:10711000F26B6FC53001672BFED7AB76CA82C97D93
:10712000FA5947F0ADD4A2AF9CA472C0B7FD932624
:10713000363FF7CC34A5E5F171D8311504C723C328
:107140001896059A071280E2EB27B27509832C1A6C
:107150001B6E5AA0523BD6B329E32F8453D100EDC6
:1071600020FCB15B6ACBBE394A4C58CFD0EFAAFBAA
:10717000434D338545F9027F503C9FA851A3408F72
:10718000929D38F5BCB6DA2110FFF3D2CD0C13EC8A
:107190005F974417C4A77E3D645D197360814FDC1F
:1071A000222A908846EEB814DE5E0BDBE0323A0A03
:1071B0004906245CC2D3AC629195E479E7C8376D87
:1071C0008DD54EA96C56F4EA657AAE08BA78252EAC
:1071D0001CA6B4C6E8DD741F4BBD8B8A703EB56635
:1071E0004803F60E613557B986C11D9EE1F8981126
:1071F00069D98E949B1E87E9CE5528DF8CA1890D15
:10720000BFE6426841992D0FB054BB1611E0A0E0D3
:10721000B1E0E8EDFDE702C005900D92A030B107A6
:10722000D9F7FA01DC0102C005900D9221503040DF
:10723000D8F7089587FF04C0880F9BE18927089538
:10724000880F08959C0190E1915050F0D901A90F49
:10725000B11DEC91F0E0E45FFE48E491EC93F4CFD3
:1072600008959C0190E1915050F0D901A90FB11DF2
:10727000EC91F0E0E45FFF48E491EC93F4CF0895E3
:10728000AC0190E1915068F0292F30E0FA01E20F53
:10729000F31FDB01A20FB31F80812C9128272083CD
:1072A000F1CF0895CF93DF93EC01FA0190E1915073
:1072B000D8F0292F30E0DB01A20FB31F5C91DF0172
:1072C000A20FB31F5C93DE01A20FB31F8C9158274E
:1072D0005C93205F3F4FDB01A20FB31F8C91DF0156
:1072E000A20FB31F8C93E3CFDF91CF910895FC01E0
:1072F00081819581918391859583958591878587F6
:1073000082859281928782838381978593839385F7
:1073100097879781938787838685968196878683CB
:107320000895FC018181958591839185958795814B
:1073300091878583828192859283828783819781D9
:10734000938393859783978593878787868196858F
:10735000968386870895A0E0B0E0E0EBF9E3C9C426
:10736000EC016C0180E1C80ED11CB880E980FA8084
:107370000B818B2D8E25AF2CA0261A2D18275ADFB6
:1073800081278B2588838E2D8F2554DF8127E82642
:10739000E9828A2D4FDF8127F826FA828B2D8027FC
:1073A00049DF812780278B832496CC16DD06E9F6FA
:1073B000CDB7DEB7EAE0B9C4A0E0B0E0E1EEF9E3B2
:1073C00095C4EC017C0180E1E80EF11CB880C98015
:1073D000DA800B818B2C8C249D2C9026182D19255E
:1073E000812F28DF782E8B2D8D25872523DF22DF27
:1073F000A12EA8268C2D802787251CDF1BDF1827B0
:10740000882D18DF8A258B2588838C2D8D2512DF0A
:107410008127C826C982892D0DDF8A25D826DA82E0
:107420008B2D802707DF8127182F10271B83249699
:10743000EC16FD0659F6CDB7DEB7EDE073C4CF9379
:10744000DF93DC01EB015D96EC915D97F0E0E45F8A
:10745000FE48E4918881E8278C91E827EC935E96BA
:10746000EC915E97F0E0E45FFE48E49111968C9118
:107470001197E8271196EC9311975F96EC915F971F
:10748000F0E0E45FFE48E49112968C911297E827B1
:107490001296EC9312975C96EC915C97F0E0E45FA7
:1074A000FE48E49113968C911397E8271396EC937A
:1074B00013978881982F991F9927991F2BE1929FE5
:1074C000902D1124880F89278883ED01CD010C961A
:1074D000FD013481208123272483358121812327C5
:1074E0002583368122812327268337812381232701
:1074F00027833496E817F90761F71C96EC911C97DF
:10750000F0E0E45FFE48E49150962C915097E2271A
:107510005096EC9350971D96EC911D97F0E0E45F28
:10752000FE48E49151962C915197E2275196EC93A5
:1075300051971E96EC911E97F0E0E45FFE48E491AF
:1075400052962C915297E2275296EC9352971F969F
:10755000EC911F97F0E0E45FFE48E49153962C9184
:107560005397E2275396EC933C89288923272C8B49
:107570003D89298923272D8B3E892A8923272E8B14
:107580003F892B8923272F8B24968C179D0761F722
:10759000DF91CF910895CF93DF93DC01EC010C973D
:1075A000FD01348D208D2327248F358D218D2327B8
:1075B000258F368D228D2327268F378D238D2327E8
:1075C000278F3497E817F90761F71C96EC911C9701
:1075D000F0E0E45FFE48E49150962C915097E2274A
:1075E0005096EC9350971D96EC911D97F0E0E45F58
:1075F000FE48E49151962C915197E2275196EC93D5
:1076000051971E96EC911E97F0E0E45FFE48E491DE
:1076100052962C915297E2275296EC9352971F96CE
:10762000EC911F97F0E0E45FFE48E49153962C91B3
:107630005397E2275396EC9353973C85288523274D
:107640002C873D85298523272D873E852A8523275D
:107650002E873F852B8523272F8724978C179D07FF
:1076600061F7FB019081892F869590FD02C0E0E0D3
:1076700001C0EDE88E27FB0180835D96EC915D975C
:10768000F0E0E45FFE48E491E8278C91E827EC9372
:107690005E96EC915E97F0E0E45FFE48E49111960F
:1076A0008C911197E8271196EC9311975F96EC91C6
:1076B0005F97F0E0E45FFE48E49112968C91129798
:1076C000E8271296EC9312975C96EC915C97F0E0A9
:1076D000E45FFE48E49113968C911397E827139684
:1076E000EC93DF91CF910895A1E0B0E0E9E7FBE3EF
:1076F00005C321E02983DB01FC01B0968C01005C0D
:107700001F4F8D9180A38193E017F107D1F788E097
:10771000F82EFA94FF2031F0BE016F5F7F4FC80151
:107720008EDEF7CF2196E5E005C3AF92BF92DF92E0
:10773000EF92FF920F931F93CF93DF931F92CDB7DA
:10774000DEB77C018B01BC01605E7F4FAC01C801DC
:10775000A9DD81E08983DD24D394570180E1A80E5F
:10776000B11CC8016FDDC801C2DDC801F4DDD0FE67
:1077700002C0B50106C0BE016F5F7F4FC7015FDE6B
:10778000B701C8017DDDD3948EE0D812EACFC801DD
:1077900059DDC801ACDDBE016F5F7F4FC7014FDE11
:1077A000B701C8016DDD0F90DF91CF911F910F914F
:1077B000FF90EF90DF90BF90AF900895AF92BF928F
:1077C000DF92EF92FF920F931F93CF93DF931F925D
:1077D000CDB7DEB77C018B01BC01605C7F4FAC0193
:1077E000C80160DDC8019DDDC8013BDD80E88983FB
:1077F0008EE0D82E570180E1A80EB11CDA94DD206E
:1078000099F0D0FE07C0BE016F5F7F4FC701C3DE96
:10781000B50101C0B701C80133DDC801CDDDC80124
:1078200080DDC8011EDDEACFB701C80129DD0F9058
:10783000DF91CF911F910F91FF90EF90DF90BF905C
:10784000AF900895DC01FB01415028F081919C919B
:1078500089278D93F9CF0895A1E0B0E0E1E3FCE33F
:1078600050C21982282FDB01FC018E2F821B841746
:1078700038F431918D9199818327892B8983F5CFB4
:1078800089812196E2E059C2A8E4B1E0E9E4FCE391
:107890002CC280E090E081D28C01F894A89584B746
:1078A000877F84BF80916000886180936000109220
:1078B000600089E0E0E0F0E080935700E491EF3F62
:1078C000B1F4E3E0F0E080935700E491E83D79F40F
:1078D000E2E0F0E080935700E491E06FE83F39F494
:1078E000E1E0F0E08093570084918C3F09F0FFCFF6
:1078F00082E090E04AD28B3A11F00C9400000D3AED
:107900008EED180719F40C94000004C0003D104DD2
:1079100009F0FFCF81E08093D70071D1AFD1519AA8
:10792000599A579A5F9A80E29EE400000197E9F71E
:10793000599883E2B5D182E0B3D1599A44D18111EB
:10794000FFCF60ED7AEC80E090E043D2F12C6E0145
:10795000EFECCE1AEEEFDE0A66246394762C6C0E02
:107960007D1EF0E16F0E711C24E030E04CEF5FE60D
:1079700060E070E0CE018B5B9E4F53DC40E250E054
:1079800063E070E0CE018F519F4FEFD180E1F601AF
:1079900011928A95E9F7BE016F517F4FCE018F5743
:1079A0009F4FA2DE5E01FFE8AF1AF6EFBF0A80E547
:1079B000882E88E0982E00E418E0E12C40E150E0A9
:1079C000B801CE018F5D9E4F36D1003CEFE81E0717
:1079D00049F5C45DDE4F88819981AA81BB81CC5273
:1079E000D140CF5BDE4F88839983AA83BB83C15488
:1079F000D140C05DDE4FE880C053D14040E1BE01C0
:107A00006F5D7E4FC6011EDFB601CE018F579F4FBF
:107A10008CDE005F1F4F80E1880E911C90E1A90E63
:107A2000B11CCCCF003DFFE81F0748F1003D8FEFB0
:107A3000180708F090C0D801A05DBF48AF77BB27FA
:107A4000E1E0F0E0EC0FFD1FAE0FBF1F80E1FE0193
:107A5000EF5DFE4F01900D928A95E1F7C801805CC1
:107A60009F488F779927892B51F4F1E0FF1207C0C7
:107A7000BE016F5F7F4FC8018054904981D240E1C1
:107A8000BE016F5D7E4FC601DDDEB601CE018F57B0
:107A90009F4F4BDE80EF88168FEF980608F4B9CF22
:107AA00040E150E060EF7FEFCE018F5D9E4FC3D08D
:107AB00040E1B601CE018F5D9E4FCEDE811135C013
:107AC00044E050E0BE016F5B7E4FCE018B5B9E4F6A
:107AD0003FD1181619064CF1FF20E9F0EE20A1F075
:107AE000BE016F5F7E4FCE018F579F4F67DEB301A0
:107AF000CE018F579F4F62DE40E250E063E070E0BE
:107B0000CE018F5F9E4F4ED16DEA7EED80E090E01A
:107B100060D10C940000F39492E0F91225CF80E03C
:107B200090E0C85BDE4FEEE0FCC0F11013C081E0D6
:107B300069D068EE81E490E03ED162E982E490E0B1
:107B40003AD16FE083E490E036D16CE384E490E0D6
:107B500032D1DACFFFCF80E1FE01EF5DFE4FD501DC
:107B600001900D928A95E1F78ACFA0E0B0E0EAEBB0
:107B7000FDE3C1C08C01EB017A012C986C0184E01B
:107B8000C80ED11CF80180818BD0F80181938F0140
:107B9000CE16DF06B9F78E010E0D1F1DC017D107D7
:107BA00021F088817DD08993F9CF2C9ACDB7DEB7AB
:107BB000E8E0BDC02C9887ED73D080E071D087FFDE
:107BC000FACF2C9A0895A4E0B0E0E8EEFDE399C066
:107BD0008FE9898340E050E0BE016F5F7F4FCB01AA
:107BE000C4DF8A818F3139F481E09B81953209F4B9
:107BF00080E0819501C08FEF2496E2E09EC0249A38
:107C00002C9A0895A4E0B0E0E7E0FEE37AC020E11A
:107C1000829FC00111242CE729839A838B831C82C5
:107C200040E050E0BE016F5F7F4FCB019EDFC2DFBF
:107C30002496E2E082C0A4E0B0E0E0E2FEE361C0AE
:107C40009C01CB01FA0168E071E037D0AB01542F01
:107C50004427550F842B952B43E04983660F672FEC
:107C6000661F770B71956A839B838C83AF01B90183
:107C7000CE0101967ADF2496E2E05FC0ECECF0E002
:107C8000118210828AB188628AB952985A9880EC1F
:107C90008093CA0088E18093C90011821082089500
:107CA0009091C80095FFFCCF8093CE008091C800D2
:107CB00087FFFCCF8091CE000895AA1BBB1B51E12A
:107CC00007C0AA1FBB1FA617B70710F0A61BB70B4C
:107CD000881F991F5A95A9F780959095BC01CD01F1
:107CE00008952F923F924F925F926F927F928F9260
:107CF0009F92AF92BF92CF92DF92EF92FF920F933B
:107D00001F93CF93DF93CDB7DEB7CA1BDB0B0FB644
:107D1000F894DEBF0FBECDBF09942A883988488801
:107D20005F846E847D848C849B84AA84B984C88497
:107D3000DF80EE80FD800C811B81AA81B981CE0F8E
:107D4000D11D0FB6F894DEBF0FBECDBFED01089573
:107D5000FB01DC0104C08D910190801921F4415098
:107D60005040C8F7881B990B0895DC01CB01FC013A
:107D7000F999FECF06C0F2BDE1BDF89A319600B484
:107D80000D9241505040B8F70895F999FECF92BD39
:107D900081BDF89A992780B50895A8E1B0E042E046
:107DA00050E0E5CFDC01CB0102C02D9105D0415060
:107DB0005040D8F70895262FF999FECF1FBA92BDEB
:107DC00081BD20BD0FB6F894FA9AF99A0FBE0196BC
:087DD0000895F1DF272FF0CF29
:107F800080382FE7920708F030C09C012F77332705
:107F9000232B59F54FB7F89423E0FC0120935700A9
:107FA000E89507B600FCFDCF20E030E051E0FB0192
:107FB000A191B191BF01FC01E20FF31F0D0150939C
:107FC0005700E89511242E5F3F4F2038310579F78F
:107FD00025E0FC0120935700E89507B600FCFDCF93
:0C7FE00081E180935700E8954FBF0895A1
:040000030000700089
:00000001FF
