:10000000DBC10000F6C10000F4C10000F2C1000035
:10001000F0C10000EEC10000ECC10000EAC1000028
:10002000E8C10000E6C100000C94B8270C942F260C
:100030000C94CC23DEC10000DCC10000DAC100005A
:10004000D8C100000C946621D4C10000D2C10000C8
:10005000D0C10000CEC10000CCC10000CAC1000068
:10006000C8C10000C6C10000C4C10000C2C1000078
:10007000C0C10000BEC10000BCC10000BAC1000088
:10008000B8C10000B6C10000B4C10000B2C1000098
:10009000B0C10000AEC10000ACC10000AAC10000A8
:1000A000A8C10000A6C10000A4C10000A002A702D0
:1000B000B702D702E60200030B04A904AF04750BD4
:1000C000750B350A220694074C089308BB08F808FC
:1000D00017099909750BE009070A2A09750B750BB1
:1000E000400A750B500AD102B104B804C3050409D3
:1000F000750B750B88062607AD06A1064306C106DB
:10010000F006E806FA060607750B57064D06DD06EB
:1001100073061A06F5020A067B0AB403820A8F0ADE
:10012000D430D8305B324333533374334933F533EF
:10013000880D880D880D880D880D880D880D880D17
:100140008D0D830D830D860D8F0D910D01AE02D5A2
:10015000F002A81F02D300014002AD8E02D80501B3
:10016000A101C802200002DA1205913F3F3F3F0281
:10017000818002D9C202DB0801A401A6920F003CD3
:100180000600730000002121210101010F01012B54
:10019000002800050080FF0008010000637C777BD9
:1001A000F26B6FC53001672BFED7AB76CA82C97D73
:1001B000FA5947F0ADD4A2AF9CA472C0B7FD932604
:1001C000363FF7CC34A5E5F171D8311504C723C308
:1001D0001896059A071280E2EB27B27509832C1A4C
:1001E0001B6E5AA0523BD6B329E32F8453D100EDA6
:1001F00020FCB15B6ACBBE394A4C58CFD0EFAAFB8A
:10020000434D338545F9027F503C9FA851A3408F51
:10021000929D38F5BCB6DA2110FFF3D2CD0C13EC69
:100220005F974417C4A77E3D645D197360814FDCFE
:10023000222A908846EEB814DE5E0BDBE0323A0AE2
:100240004906245CC2D3AC629195E479E7C8376D66
:100250008DD54EA96C56F4EA657AAE08BA78252E8B
:100260001CA6B4C6E8DD741F4BBD8B8A703EB56614
:100270004803F60E613557B986C11D9EE1F8981105
:1002800069D98E949B1E87E9CE5528DF8CA1890DF4
:10029000BFE6426841992D0FB054BB1616034D00BE
:1002A0006F006F006C0074006900700061007300E3
:1002B0007300000006035300450000000403090416
:1002C00005010906A10175019508050719E029E74F
:1002D00015002501810295017508810395057501B9
:1002E00005081901290591029501750391039506E9
:1002F0007508150025FF0507190029E78100C006CC
:1003000031FF0A7400A1017508150026FF00954011
:1003100009018102954009029102C00902420002CE
:1003200001008032090400000203000000092111CD
:10033000010001221C00070502034000010705819E
:10034000034000010904010001030101000921111A
:10035000010001223F00070583030800011201008C
:100360000200000020D016A00900010102000101D6
:10037000C13601C03601C10600000100005D031254
:10038000000200001B034200220000FF021C0021AB
:1003900000002D030900220100C0023F00210100DE
:1003A0004D030900030000BC020401030904B40268
:1003B00006020309049C021611241FBECFEFDAE0E7
:1003C000DEBFCDBF11E0A0E0B1E0EEE1FEE602C08D
:1003D00005900D92AA34B107D9F727E0AAE4B1E05D
:1003E00001C01D92A036B207E1F70E94D02D0C94F7
:1003F0000D3706CEAEEDB0E0E0E0F2E00C949236C0
:10040000182F7E0125E8E20EF11CC7010E94272863
:1004100081110C94750BC252DF4F1882CE5DD04013
:10042000D7011196DC90113019F0B9EBDB1222C024
:1004300019820E94B0258F3F19F4898181608983D8
:10044000113019F489818260898380915E01813045
:1004500019F4898184608983809100018C3019F4BA
:10046000898188608983AE014F5F5F4F61E089EBCE
:100470000C944E0BF7011081F3EADF1611F40C9483
:10048000690B29EAD21611F40C94690B82E48D0DE4
:10049000823010F40C94690B36EAD31699F089E592
:1004A0008D0D823010F40C946C0B86EBD81651F045
:1004B00097EBD91611F40C946F0BA8EDDA1223C048
:1004C0000C94720B0EE3011730F1112321F1602F10
:1004D00070E05701B2E0AB0EB11CC5010E94C535FA
:1004E000212F30E0019628173907A9F40A3359F46F
:1004F000D5018C91882339F090E00E94C336F50134
:1005000081935F01F5CF8BE38D0D803158F480919D
:100510006001811107C0AE0142525F4F61E08D2D35
:100520000C944E0B8D2D90E0FC01E15AF109EA3359
:10053000F10510F00C94750BEA5AFF4F0C948636B7
:1005400046E0B70180E00E94B5250C94750B8BE066
:10055000E5E2F1E0DE01119601900D928A95E1F756
:10056000AE014F5F5F4F6BE082EA0C944E0B8091BF
:100570006001813011F40E94432080915E0181303E
:1005800011F083E008C060E0C70102960E94571591
:10059000811110C781E0C252DF4F8883CE5DD04009
:1005A000BACF80915E01813061F761E0EDCFC70184
:1005B0000E943A148111FEC6F70101900020E9F76C
:1005C0006E2F6E19A70184EA0C944E0BC7010E948E
:1005D0000C168111EFC6F70101900020E9F76E2F8C
:1005E0006E19A70185EA0C944E0B80914D01813064
:1005F00009F0E0C68091DF04882309F4DBC69FC7B9
:1006000080914D01882309F4D5C610924E011092B5
:100610004A0160E070E083E00E9459235701B2E094
:10062000AB0EB11CB5018091590190915A010E9405
:10063000D10B90934C0180934B01892B21F081E0E9
:1006400080934E01A7CF8BE496E090935201809364
:1006500051018AE10E940D1490935401809353013B
:10066000B0925601A092550161E571E083E00E94CD
:10067000950F882311F01FEF72C00E94750D84E85A
:10068000E2EFF4E0DF011D928A95E9F764E175E09D
:1006900086E595E00E948A15412F50E0B50187E17B
:1006A00095E00E94D83684E20E940D14BC0188EFC8
:1006B00094E00E94E836A0905901B0905A018091D0
:1006C000F2049091F3049F7390649093F3048093E9
:1006D000F20480915C0190915D01909311058093EB
:1006E00010059093130580931205B5018BE895E0F2
:1006F0000E94C11280909105909092050FE325E22F
:10070000AE014F5F5F4FB40182EF94E00E949620EC
:100710008111B1CF89819A818816990681F0B5013E
:100720008BE895E00E94C11289819A81909392058D
:10073000809391056BE875E0C5010E947912B701BD
:100740006E5F7F4FC5010E94D10B90934C01809347
:100750004B0181E080934A0180934E0110E00E949A
:10076000770D111127C616CF80914E01882309F409
:1007700021C680914D01882309F41CC6609159015E
:1007800070915A0183E496E00E94EC1260914B0153
:1007900070914C0182EF94E00E94CE1280914A0148
:1007A00081111CC08BE496E090935201809351011B
:1007B0008AE40E940D14909354018093530187E1C1
:1007C00095E0909356018093550161E571E083E0D7
:1007D0000E94950F8111EDC50E94770D00914B018C
:1007E00010914C01B80182EF94E00E94CE1288E192
:1007F000F7013296A8EFB4E001900D928A95E1F7E7
:1008000062EF74E0C8010E947912B80182EF94E0AF
:100810000E94CE12BFCE80914E01882309F4CAC532
:1008200080914D01882309F4C5C5609159017091EB
:100830005A0183E496E00E94EC1260914B017091A2
:100840004C0182EF94E00E94CE1260E2611BC7016E
:100850000296810F911D0E9483238BE496E0909372
:100860005201809351018BE10E940D149093540129
:100870008093530187E195E0909356018093550151
:1008800080914A01813039F480914A0181110BC075
:100890000E94770D08C061E571E083E00E94950F2A
:1008A000882391F386C510924A01B2E0EB0EF11C49
:1008B000BE016F5F7F4FC7010E948A1500914B01F7
:1008C00010914C01B80182EF94E00E94CE12809109
:1008D0005C0190915D0190931105809310059093B8
:1008E00013058093120580E2F701A6E5B5E00190BB
:1008F0000D928A95E1F789819A81AB8180931405E5
:1009000090931505A093160562EF74E0C8010E944C
:100910007912B80182EF94E00E94CE1280917D0599
:10092000811138CECE018B539F4F0E949A11CB5329
:10093000DF4F8881C55CD0408F5FCB53DF4F88830A
:10094000C55CD04081E080937D05CE018B539F4FE5
:1009500076C18091E204882309F40CC6B7C640E052
:1009600001C041E0612FC70102960E94D31410CE4E
:10097000F701028180915B01882309F41BC58091F6
:100980005001811160C08091490690914A06892BDF
:1009900011F08DE401C084E30E940D149093520184
:1009A000809351018BE496E090935401809353011E
:1009B00061E571E082E00E94950F811142C0A09034
:1009C0004906B0904A06A114B104C9F0B50182EFFE
:1009D00094E00E94C1129090F404C090F50444E8A1
:1009E00050E06FEF70E082EF94E00E94E13662EF3A
:1009F00074E0C5010E947912A92CBC2CE4CF84E8D4
:100A0000E2EFF4E0DF011D928A95E9F7CC24C3946C
:100A1000C0924F0110926201C09250011092610188
:100A200080917C0581110DC0CE0101960E949A1122
:100A30008A818F5F8A83C0927C05CE0101960E94D5
:100A4000A7110E94770D80915001882309F4B2C448
:100A5000C09061018C2D90E08A509B4FF701339636
:100A600020E2DC0101900D922A95E1F7BE016B5363
:100A70007F4F0E948A15C1100DC0CB53DF4F888174
:100A80009981AA81C55CD0408093C4069093C50625
:100A9000A093C60680E28C0D80936101803819F026
:100AA000002309F46CC090E09093F3048093F20467
:100AB000C0904F01E0905901F0905A0120E040E0D1
:100AC00050E0BE016F5F7F4F82E00E94E01F8230E6
:100AD00009F070C4B1E0CB121BC0B7018BE895E000
:100AE0000E94C11246E050E063E476E08BE895E0B6
:100AF0000E94CB36892B09F05DC489819A8190933D
:100B00004A068093490663E476E0C7010E947912A1
:100B10008091F2049091F304907E20917E05922BB7
:100B20009F71906C9093F3048093F204011106C0BE
:100B30008B819C819093F5048093F40462EF74E0C0
:100B400089819A810E9479128B819C8190938A0578
:100B50008093890584E8E2EFF4E0DF011D928A9535
:100B6000E9F710924F0110926101002341F081E0FA
:100B700090E090934A0680934906109250011132FA
:100B800009F018C407CD80915B01882309F412C4D1
:100B90008091DF04811138C06091590170915A0130
:100BA00083E496E00E94EC128091C4069091C50601
:100BB000A091C6068093650190936601A09367019A
:100BC0008091490690914A06909364018093630155
:100BD00085E30E940D1490935201809351018BE4A0
:100BE00096E0909354018093530161E571E082E0B7
:100BF0000E94950F811107C068EE73E083E00E94A8
:100C000059231092620173D78091DF04882309F47D
:100C1000D1C3E7C420915E01213019F0D7011C92A5
:100C200005C0F7012193CF010E949A11A70163E04B
:100C300086ED34C5123009F0BDC3C70102960E948B
:100C4000A711A8CC10915E01113009F064CC81E2AB
:100C50000E940D14BC0181EF0E94950F811167C3A2
:100C60000E94871381110BC088E080930001C2525B
:100C7000DF4F1883CE5DD0401093600158C38AE0E7
:100C80008093000154C30E9410129A838983AE019D
:100C90004F5F5F4F62E089EC01C50E94F5119A83B6
:100CA0008983AE014F5F5F4F62E081EDF7C4123080
:100CB00009F080C3D70112964D915C911397242FB0
:100CC000277063E0569547956A95E1F7BE016F5F1F
:100CD0007F4F8FE10E94E01F682F660FAE014F5FCC
:100CE0005F4F80EDDBC481E080930001C252DF4F93
:100CF0008883CE5DD04010926E0110926D011092EB
:100D00006001F5D66ED70E9443200E942D2003CCAF
:100D1000123009F04FC3F701828193810E9489123A
:100D2000811148C3D70112966D917C911397CE0122
:100D300001960E94C112AE014F5F5F4F64E885ECDF
:100D4000ADC4153009F036C3F70145815681638182
:100D5000748182810E94CE111DCC113009F02AC30A
:100D6000AE014D5F5F4FBE016F5F7F4FD70112969F
:100D70008C910E94F612AE014F5F5F4F64E087ECEA
:100D80008DC4123009F016C3F701828193819A83D2
:100D90008983909384058093830560918105709188
:100DA00082059E012F5F3F4F42E050E080917F051A
:100DB000909180050E942C23EDCB123009F0FAC2ED
:100DC000D70112968D919C9113970E942912E2CB24
:100DD000133009F0EFC2C70102960E94C111DACBAD
:100DE000CE0101960E94B411AE014F5F5F4F63E0E8
:100DF0008BEC54C4183109F0DDC2B701665F7F4F38
:100E000040917E05C7010296A5D5C2CBF0907E0524
:100E100003E610E0C8010E941336F81210C048E142
:100E200050E0B8016F5F7F4FCE0101960E940336FC
:100E3000AE014F5F5F4F68E18FEC0E940A26075EAC
:100E40001F4F073EB3E01B0729F7A4CB133008F46C
:100E5000B1C2F7018481811116C0828193810E9401
:100E60008912811110C0D70112968D919C91139710
:100E700090936E0180936D0133E0969587953A9536
:100E8000E1F70E940E23F701A280B38080916D01EB
:100E900090916E01A816B90609F08CC2A114B10494
:100EA00009F488C22481FBE32F9FC0011124412F44
:100EB00050E043505109BC01640F751F653871053E
:100EC0000CF078C221110DC0D70115962D913C91DF
:100ED0001697307E60917E05362B16963C932E93A6
:100EE00015972A2D2770B4E82B9F800D911D112492
:100EF00024E829831A829B838C83B7016B5F7F4F21
:100F0000CE0101960E949A220E949122F7018481CB
:100F1000823009F03FCBC50123E0969587952A954D
:100F2000E1F70E94AC3536CB88E090E090936C01FD
:100F300080936B0110926A011092690182E690E041
:100F40000E941336C82E82E090E00E941336B82E1D
:100F500080ED97E00E947323103109F02BC280913D
:100F600000018B3031F0FBEABF1203C02DECC2123E
:100F700021C280E30E940D14CB52DF4F99838883F6
:100F8000C55DD04081E30E940D14C952DF4F9983A3
:100F90008883C75DD0408E010B531F4F80E1D8017D
:100FA0001D928A95E9F760E271E0C8010E94E83677
:100FB00046E050E068EF73E0C80104960E940336F3
:100FC0004EE150E063E270E0CE0101960E940336EC
:100FD00042E050E06EEF73E0CE014F960E94033680
:100FE000B801CE0101960E944D17F801D701129663
:100FF000B7016E5E7F4F80E021919D919227892BF2
:10100000A617B707C9F790E1F80111929A95E9F789
:10101000FBEABF16C1F00E94821E0E94AE1E81E054
:10102000C252DF4F8883CE5DD0408093680144E098
:1010300050E061E470E080E291E00E9420362BEA0B
:10104000B21269CA15C03DECC31629F381116FC1F4
:10105000BE016B527F4F82E068D7811168C18BE47B
:101060000E940D14BC0181E060D78823A1F25FC10A
:101070008DECC81609F44FCA8DE08093000137D576
:1010800060ED70ED80E090E00E94373660E67AEE29
:1010900087E00E9459233FCA809168018823B1F0FC
:1010A000A0906B01B0906C019FEFA916B10409F0FC
:1010B00068F4412F50E08091690190916A018A01A2
:1010C000080F191F0930A1E01A0740F0C252DF4F84
:1010D0001882CE5DD040109268011DCA24E8298391
:1010E0001A829B838C83B7016E5F7F4FCE0101967E
:1010F0000E949A220E94912210936A010093690132
:101100000830B1E01B0709F045CAC5010E94AC35A3
:1011100010926A0110926901C501019690936C01C9
:1011200080936B0137CA80916801813061F48091AE
:10113000690190916A01892B31F080916B01909146
:101140006C010E94AC3581E0C252DF4F8883CE5DD6
:10115000D0401092680182E090E00E9413368B3AF2
:1011600009F0D9C982E690E00E9413368D3C09F45B
:10117000D2C90E945821123009F01CC1F7018281A6
:101180008C3121F40E94B025811114C1D70112962F
:101190008C911297813238F490E013966C918F5BAA
:1011A0009F4F0E94293684E490E00E94133680937A
:1011B0005F0181E0C252DF4F8883CE5DD0408BE576
:1011C00090E00E94133691E899838A8362E0CE0111
:1011D00001960E949A1E8EE590E00E94133680933D
:1011E000C9068DE590E00E9413368093C80693C926
:1011F000F7018281813230F490E08F5B9F4F0E9433
:101200001336C9C980E0C7C9809100018C3029F02C
:1012100080915E01813009F0CDC0CE0101960E941F
:101220003019AE014F5F5F4F68E082EC37C28091AA
:1012300000018C3009F0BEC0D4D4E4D7811172C053
:101240000E94811A81E0C252DF4F8883CE5DD04078
:101250008BE016CD183109F0ADC0809100018C30C3
:1012600009F0A8C0CE0101960E943019BAD448E016
:1012700050E0B7016E5F7F4FCE0101960E94CB36E2
:10128000892B09F04FC0FDD781114CC0BBD781110C
:1012900049C0BE016B527F4FCE0183529F4F99D3FD
:1012A0008F3F09F43FC0C352DF4F8881CD5DD040EE
:1012B0000E944612C352DF4F8881CD5DD0409BD241
:1012C000CE018B539F4F0E943019C352DF4F48818C
:1012D000CD5DD040B701665F7F4FCE018B539F4FEE
:1012E00039D391E0811101C090E091111BC0AE0192
:1012F0004F5F5F4F68E188E30E940619C352DF4FDA
:101300008881CD5DD04077D2B701665F7F4FCE0137
:101310000196ACD2DDD281E0C252DF4F8883CE5D30
:10132000D040AECCC252DF4F1882CE5DD040DFD36A
:10133000F2C880915E01813021F0809100018C30F3
:10134000C9F586E20E940D14BC0181E0EED5811141
:1013500030C080915E01813049F5C9D3AE014F5F45
:101360005F4F6EE58CE90E940619AE014F5F5F4F3B
:101370006EE384EB0E940A26AE014F5F5F4F68E385
:1013800086E50E940619AE014F5F5F4F6EE384EB66
:101390000E940A26809100018C3009F0A6C10E94AB
:1013A0006B130E9480230E94CA1A9FC12BD78823E7
:1013B000A1F29DD3C252DF4F1882CE5DD040ABC8A0
:1013C00000915E010130B1F787E20E940D14BC016B
:1013D00081E0ABD58111A6CFAE014F5F5F4F6CE5C9
:1013E0008CE90E94061980E00E94551A412F50E0B6
:1013F000B7016E5F7F4FCE0103960E94D836AE01D3
:101400004F5F5F4F60E072E080EE92E026C0009197
:101410005E01013079F688E20E940D14BC0181E082
:1014200084D581117FCFAE014F5F5F4F66E186E5C6
:101430000E94061981E00E94551A412F50E0B70121
:101440006E5F7F4FCE0183960E94D836AE014F5F0C
:101450005F4F60E072E080EB90E00E944019C25262
:10146000DF4F0883CE5DD04062CF60E2CE010196AF
:101470000E948323AE014F5F5F4F60E28CEA0EC192
:1014800081E0C252DF4F8883CE5DD040D7011296F3
:101490008D919C91139790935D0180935C013BC863
:1014A000103109F087CF87EE93E00E9413368B3B13
:1014B00009F080CF40E150E068EE73E0CE01019684
:1014C0000E94033668EE73E083E00E945923B7015F
:1014D0006E5F7F4F40E150E0CE0101960E94CB3617
:1014E000CB53DF4F8883C55CD0408091DF048823D5
:1014F00009F4D7C0FACFBE0162527F4FC7010296EE
:1015000068D209C880915E01813009F053CF8AE02A
:1015100080930001ECD20E946B130C948B0224E0A8
:1015200030E04CE75FE760E070E0CE0101960E949A
:10153000C72DAE014F5F5F4F64E08AEDAFC0809171
:101540004E01813009F036CF60914B0170914C0112
:1015500082EF94E00E94CE1268EF74E0C7010E940F
:10156000E836F70101900020E9F76E2F6E19A70108
:1015700085ED94C080914E01882309F41BCF8091A2
:101580004D01882309F416CF60914B0170914C01F5
:1015900082EF94E00E94CE1264E175E086E595E06A
:1015A0000E94E215B7016E5F7F4F40E250E086E592
:1015B00095E00E94FF36892B49F480E2E6E5F5E0EC
:1015C000DF011D928A95E9F70C94CA0280E2E6E5F4
:1015D000F5E0DF011D928A95E9F760EA7FE084E09B
:1015E0000EC010916201111126C0609163017091CB
:1015F00064016115710531F460E070E083E00E94E0
:101600005923D8CE82EF94E0BCD78091F404909116
:10161000F50490936401809363018091F2049091AA
:10162000F30488279072892F992782958695877071
:10163000813009F4BFCE812F90E0FC01EA50FB4FCE
:101640006F0165E671E0CF010E94E21568EE73E07C
:1016500083E00E94592363E085E691E00E94951B98
:1016600063E085E691E00E94951B80E2F601D701D8
:1016700001900D928A95E1F7105E10936201812F1F
:1016800090E02091F2043091F304332782179307FE
:1016900010F010926201A70160E281EC0E940A261C
:1016A00024C0CB53DF4F8881C55CD040811182CEEE
:1016B00046E050E068EF73E0CE0101960E940336E9
:1016C000AE014F5F5F4F66E08DEBE8CF82E00C9498
:1016D000CB020AE30C94630200E20C9463020EE175
:1016E0000C94630208E10C946302C252DF4FECE0F9
:1016F0000C94AE36CF93DF93EC010E94821EBE01A4
:101700008AE00E94A6250E94AE1EDF91CF91089527
:10171000EF92FF920F931F93CF93DF938C01F62EDE
:10172000C42F46E0460F20E060E080E00E94201FCA
:101730008EE38093090181E0809352048C2F0E94F4
:101740000D14BC0185E00E94A6251092520480E889
:101750008093090182E00E94671EE80100E410E026
:1017600086E0E82E00935E07E0925D07F11611F027
:101770008AE206C088818A3010F0895C01C0805DF1
:101780000E946D241F5F0F5E2196143059F781E08F
:101790000E94671E0E94AE1ECDB7DEB7E6E00C9435
:1017A000B4360F931F93CF93DF938B01BC0183E477
:1017B00096E012D7C0914906D0914A06209719F4B5
:1017C00080E090E013C0BE0182EF94E0E7D64FE3E3
:1017D00050E0B80187E195E00E94FF36892B29F09F
:1017E000C091F604D091F704E9CFCE01DF91CF91FB
:1017F0001F910F910895CF93803108F0FFCFC82F2C
:101800008695869590E09093800580937F058C2F38
:10181000837022E4829FC0011124909382058093FB
:101820008105E3D59093860580938505F9D590933E
:10183000840580938305C0937E0510927C051092E9
:101840007D0520E040E050E069E875E081E00E941D
:10185000E01F811104C010928A05109289050E9430
:10186000432088E791E080D5CF910895CF93DF930F
:10187000EC0180E1FB01ABE7B1E001900D928A95AC
:10188000E1F7BE018CEC96E00E946C1C8BE791E0C6
:101890000E943F2980E2FE0111928A95E9F7DF91CB
:1018A000CF91089510924D0110924E0110924A016D
:1018B0001092600110925B011092500160E070E0A4
:1018C00083E00E94592310925E0110924F01089507
:1018D0008FB7F89491E090935E018FBF0895A8E0D0
:1018E000B0E0E5E7FCE00C9494367C016B015A0112
:1018F00000E010E0C8018D599F4F0E941336F5019A
:1019000080838031E0F448E050E0B8016C597F4FAB
:10191000CE0101960E94033648E050E0B701CE01A7
:1019200001960E94CB36892B51F4B80164597F4F40
:1019300040E150E0C6010E94033680E007C0075E28
:101940001F4F0438F3E01F07A9F68FEF2896EAE04F
:101950000C94B036A1E1B0E0E0EBFCE00C949336DF
:101960007C015B01942E00E010E0680183E6C80E64
:10197000D11CC6010E941336803140F4075E1F4F10
:10198000043883E0180789F78FEF1FC0AE014F5E60
:101990005F4FBE016F5F7F4FC701A1DF8F3FA1F790
:1019A000692DC6010E942936B8016C597F4F48E065
:1019B00050E0C7010E942036B80164597F4F40E1D2
:1019C00050E0C5010E94203680E06196EBE00C9467
:1019D000AF36A0E1B0E0EFEEFCE00C9493366C0182
:1019E0005B018E010F5F1F4F80E1F80111928A9514
:1019F000E9F783E6E82EF12C99249394C7010E941D
:101A00001336803120F4F801E80FF11D9082F9E1DE
:101A1000EF0EF11C87EEE81683E0F80679F7F50182
:101A200010829E012F5E3F4FD8018D91811104C01D
:101A3000F50180818F5F8083A217B307B1F780E043
:101A4000F80191918F01911104C0F601808380E02B
:101A500004C08F5F8031A1F78FEF6096EBE00C94AC
:101A6000AF361F93CF93DF93182FC3E6D0E0CE019C
:101A70000E941336811304C06FEFCE010E942936F5
:101A80006996C73E83E0D80791F7DF91CF911F9108
:101A90000895CF93DF93C2E4D0E0FE01E65CFE4FF1
:101AA0006491CE010E9429362196C236D105A9F74C
:101AB000DF91CF9108958FB7F89410927201109230
:101AC000580410925A041092560410925504109221
:101AD0005704109259048FBF08959FD60BDE80EDF6
:101AE00097E00C94732399D605CE80E0FCCF40910B
:101AF0000001842F90E08E309105C8F4FC01E85677
:101B0000FF4F0C94863621E040E00DC083E008C012
:101B1000440F440F405C21E006C082E201C08BE02C
:101B2000E2CF23E04EE060E080E00C94201F0895B7
:101B3000A6E0B0E0EEE9FDE00C94983620911201A9
:101B4000309113014091140129833A834B832091F2
:101B5000150130911601409117012C833D834E836E
:101B6000FB0101900020E9F731977F01E61AF70A9F
:101B7000082F10E0F801E758FA4F80819B01280FE9
:101B8000311DDE01A00FB11FFD0141E014966C91E3
:101B900081810E943925F801EA58FA4F9E2D981B41
:101BA00090832696E6E00C94B43683E0E9E7F5E00E
:101BB000DF011D928A95E9F70895A6E7B5E0E9E708
:101BC000F5E09D91992339F08081981719F08F5F86
:101BD000808301C01082319685E0EC37F80789F7E1
:101BE000089560E67AEE80E00E94592385E490E053
:101BF0000E941336682F70E089E00E94592383E425
:101C000090E00E9413368A3120F4873018F487E080
:101C100001C089E1782F770F770F60E081E00E94A3
:101C2000592380917001811104C00E94921E0E946C
:101C3000802380917301813011F410927301089513
:101C4000CF9390E021E0611102C09091590430914E
:101C50005704323029F43FB7F894209357043FBF1C
:101C600030915704333051F0911108C04091550420
:101C700050915604493E534008F453C03FB7F8947E
:101C80004091550450915604493E534020F04091F4
:101C900077014423E9F040915704433051F4911106
:101CA00019C0409177014423B9F010927701C7E041
:101CB0001AC040915704413029F419167CF0992339
:101CC00049F00EC0191674F0C1E091110CC002C0A9
:101CD000C4E009C0C0E007C0C3E005C0C6E003C05F
:101CE000C5E001C0C2E010925604109255044BEFBB
:101CF0004C0F423018F42093770103C0C1111092A9
:101D00005704611102C0109259043FBF882329F083
:101D1000CC2309F498CF65DF07C0C111FCCFC0E028
:101D200003C0811190CFFBCFC09372018C2FCF9154
:101D3000089521E020935204DDDC1092520460E00B
:101D400080E07EDF8823D9F30895A4E0B0E0EBEAD9
:101D5000FEE00C948F366C01962E81E690E00E9496
:101D60001336882ECE0101967C01811006C084E0D6
:101D7000F70111928A95E9F70DC064E00E94832370
:101D8000F7019E012B5F3F4F80818F7081932E174B
:101D90003F07D1F790DE492D60E0C701B9DC10E0C4
:101DA0000FEF30E1732E66246A9481E00E94FA01FD
:101DB00060E080E045DFB82E8FEF8B0D823010F5AC
:101DC000812F90E0F701E80FF91F20812F3029F4CF
:101DD00021E0B2120DC0608282C0211105C042E034
:101DE000B4127DC0708204C0E1E0BE1609F477C071
:101DF000F701E80FF91F808181508083492D612F01
:101E0000C70186DC0E94B025882339F08091D9046F
:101E1000811107C081E08093D904552453940FEFBA
:101E200001C0512CF4E0BF1228C0112311F1A12EE2
:101E3000B12C1150811009C0F701EA0DFB1D108271
:101E4000F701E10FF11D108222C0C501019762E088
:101E50008E0D9F1D0E948323F701EA0DFB1D8081DB
:101E60008F708083F701E10FF11D80818F70808377
:101E70000EC0552453940FEF0AC023E0B2120BC0DA
:101E8000133010F41F5F03C05524539400E0492D14
:101E9000612FC7013DDC552009F487CF898190E08F
:101EA000982F88279295907F2A81922B2C81822BC4
:101EB0002B8140E1249F90011124822B932BF6016A
:101EC0009183808384E0F70111928A95E9F781E09C
:101ED0000E94671E802F2496EFE00C94AB36F7012A
:101EE000E80FF91F80818F5F88CFA2E0B0E0EBE7B9
:101EF000FFE00C949A368C0128DF882311F08FEFD5
:101F000010C066E1CE01019620DF8111F8CFF80103
:101F10002081318181E049815A814217530709F4B8
:101F200080E02296E4E00C94B636ADE0B0E0EBE958
:101F3000FFE00C948C36182F262E772E807F69F0C8
:101F40001F708FE490E00E94133691E09A87811110
:101F500001C01A86E1E0EB8702C01A861B861F8249
:101F6000188619860E94821E81E78093090120E06D
:101F700043E060E00E94201F113031F4622D772D84
:101F80008AE00E94A62531C0123029F485E08983B9
:101F900080E18A8307C019828AE08A8385E18B8386
:101FA000123018F1822C972CCE0101965C012E0183
:101FB00094E0490E511C6501F401619171914F014A
:101FC000FB0101900020E9F731977F01E61AF70A3B
:101FD000F60181916F010E94A625E81AF201E192B3
:101FE0002F018C2D8A19811738F30E94AE1E80E8CC
:101FF00080930901F6DD5FDD64EF71E082E00E940D
:10200000592364EF71E088E00E94592355245394CA
:10201000312C4E01F7E08F0E911C8091D904811173
:10202000B4C081E08093D9040FEF0E94652881112C
:1020300001C00FEF8091EE04811119C091E09093DF
:10204000EE04EA85E13099F4F3E0F31580F0FF2423
:10205000F394F30C30FE02C086EA01C087EA0E94C6
:102060008D1E64EF71E088E00E9459233F2C61E0EF
:1020700080E0E6DD833021F0843019F403E001C014
:1020800002E00E94A129823019F48B85811102E0BF
:102090008091DC0481114AC0123008F447C00E94CC
:1020A000821E64EF71E082E00E94592391E79093D1
:1020B000090120E0511071C044E060E081E70E9416
:1020C000201FFE013496FD87EC87C22CD72CCE0151
:1020D00001965C017401EC85FD854190FD87EC87DC
:1020E000442009F45FC0F7016080F60160817181CE
:1020F000660D711DF50180810E94A625461409F424
:102100004EC06394F7016082FFEFEF1AFF0A82E08E
:10211000C80ED11C9FEFA91AB90A8E2D88198117F4
:10212000D0F20E94AE1EE0E8E093090180915904CC
:102130008823C1F056DD9FB7F8948091590410921E
:1021400059049FBF882371F020E0511002C043E082
:1021500001C044E060E081E70E94201FF1E05F26BB
:102160000E94AE1E002309F458CF86EA0E948D1EFD
:10217000023029F4852D8095817081951BC0033034
:1021800011F08FEF17C082E015C00E94B02591E0DA
:10219000811190E0092F019548CF43E08ECFF701E0
:1021A0001082B2CFF60160817181F50180810E94B9
:1021B000A625AACF2D96E2E10C94A836A2E0B0E0C5
:1021C000E4EEF0E10C949C36AE014F5F5F4F6CE0A3
:1021D0008EE00E940619498150E024E030E080E062
:1021E000BA01022E02C0759567950A94E2F760FD68
:1021F0008F5F2F5F3F4F2830310591F72296E2E045
:102200000C94B836A2E0B0E0E8E0F1E10C949A3624
:10221000D5DF813021F48CE460DC01E001C000E016
:1022200064E1CE01019691DD182F811124C0CE0109
:1022300001960E94221A853059F01CF48130A9F0D1
:1022400017C0863039F0893099F41A82198214C087
:1022500081E00CC08CE141DC011107C083E043DC6C
:102260000E94B0258111FCCF06C082E036DC03C09D
:102270008A5E33DCD5CF1FEF812F2296E4E00C94E9
:10228000B636CF93DF93D4E1BDD7C0E01EBC0DB40A
:1022900007FE03C0C83130F40BC00E94B0258F3F49
:1022A000B1F3F8CF8EB58F3F21F0A9D78FEF08C0DB
:1022B0008EB5CF5FC83351F7A2D7D15029F780E050
:1022C000DF91CF910895A2E0B0E0E9E6F1E10C944E
:1022D0009C3680E889831A82AE014F5F5F4F60E1D0
:1022E00070E080EB90E0CCD7AE014F5F5F4F60E1D4
:1022F00070E080EE92E0C4D72296E2E00C94B8360B
:10230000CF93DF93EC0188819981982789279827BB
:1023100099838883AE0160E170E080E590E0B0D7FA
:102320008881998198278927982799838883DF91C5
:10233000CF910895ECE7F5E065817681645C7F4F8D
:102340009C0142E050E0838194810C94E722ECE709
:10235000F5E065817681645C7F4F9C0142E050E04E
:10236000838194810C942C23ECE7F5E065817681E0
:10237000625C7F4F9C0143E050E0838194810C9428
:10238000E722ECE7F5E065817681625C7F4F9C0196
:1023900043E050E0838194810C942C23A4E0B0E0CE
:1023A000E4EDF1E10C949C367A8369835C834B8382
:1023B0008E3008F0FFCF60918105709182056E5FCD
:1023C0007F4F94E0899F600D711D11249E012F5F46
:1023D0003F4F44E050E080917F05909180050E943E
:1023E0002C232496E2E00C94B836A2E0B0E0EBEFA8
:1023F000F1E10C949C36ECE7F5E065817681665C52
:102400007F4F9E012F5F3F4F42E050E083819481D8
:102410000E94E72289819A812296E2E00C94B836E4
:10242000A2E0B0E0E6E1F2E10C949C36ECE7F5E0E6
:10243000658176819E012F5F3F4F42E050E08381AE
:1024400094810E94E72289819A812296E2E00C948D
:10245000B836A2E0B0E0EFE2F2E10C949C369A8349
:102460008983ECE7F5E09287818765817681665CF8
:102470007F4F9E012F5F3F4F42E050E08381948168
:102480000E942C232296E2E00C94B836A2E4B0E03D
:10249000ECE4F2E10C949C36803108F0FFCF9E0111
:1024A0002F5F3F4F92E4F90111929A95E9F7682F57
:1024B0006370F2E46F9FB00111248695869542E423
:1024C00050E090E00E942C23CE5BDF4FE2E00C94C2
:1024D000B8369B01482F477054E8459FB00111243E
:1024E00044E850E0E3E096958795EA95E1F70C948F
:1024F000E7229B01482F477054E8459FB001112403
:1025000044E850E0E3E096958795EA95E1F70C946E
:102510002C23A2E0B0E0EFE8F2E10C949A368C01B3
:1025200033E0169507953A95E1F7877094E8899F0F
:10253000B00111249E012F5F3F4F42E050E0C801DF
:102540000E94E72289819A819C0122273F71209174
:102550007E05231749F088279072892F9927829545
:1025600086958770813041F481E00F3F110511F0AD
:1025700008F080E0819501C08FEF2296E4E00C9492
:10258000B636CF93DF93EB01BC01CE01A2DFCE01C3
:10259000C0DF8111FFCFDF91CF9108950F931F937B
:1025A000CF93DF93EC018B01ECDF80915C01909184
:1025B0005D01009741F099A388A3BE01C80199DF8E
:1025C000B801CE01DEDF1D8ECD59DF4F1882DF91BD
:1025D000CF911F910F910895CF93DF93EC01D1DF3D
:1025E000C058DF4F1882DF91CF910895CF92DF92CC
:1025F000FF920F931F93CF93DF9300D000D000D0B2
:10260000CDB7DEB78E3008F0FFCF8A016B01F82E10
:1026100060918105709182056E5F7F4F24E0829FFB
:10262000600D711D11249E012F5F3F4F44E050E06B
:1026300080917F05909180050E94E72289819A818F
:10264000F601918380838B819C81F8019183808343
:10265000682F6770F4E86F9FB00111249E012B5F13
:102660003F4F42E050E0E3E096958795EA95E1F729
:102670000E94E7228D819E8188279072892F992759
:10268000829586958770813091F4F80180819181DF
:10269000892B99F040E050E060E070E08F2D7EDE05
:1026A000F60111821082F8011182108206C0F80131
:1026B000808191812EDF8111E8CF26960FB6F894A4
:1026C000DEBF0FBECDBFDF91CF911F910F91FF9065
:1026D000DF90CF900895A0E3B0E0E1E7F3E10C9440
:1026E0009C365BD5DFD8CE01019620E2FC01119229
:1026F0002A95E9F7BE016F5D7F4F20E1FB01119242
:102700002A95E9F7B3D8E096E2E00C94B836A0E158
:10271000B0E0EDE8F3E10C949C36CE010196A0D533
:10272000DADF0E94802336D7843011F08FEF17C094
:1027300080E00E94382B8111F9CFCE01099690D507
:1027400048E050E0BE01675F7F4FCE0101960E94D6
:10275000CB3621E0892B09F420E0822F8195609609
:10276000E2E00C94B836A2E0B0E0E9EBF3E10C94BF
:1027700098368C017B0142E050E060E478E0CE01C5
:1027800001960E94C12289819A8108171907A8F42D
:10279000019699F0B8016F5D7B4F660F771F42E09D
:1027A00050E0C7010E94C122F70180819181805CC5
:1027B000974F9183808380E001C08FEF2296E6E0FF
:1027C0000C94B436A3E0B0E0E8EEF3E10C949B3651
:1027D000162F99E29B838A3B20F4823918F482E910
:1027E00001C089EBBE016F5F7F4F90E0BCDF8111BC
:1027F0000FC069817A816115710551F06E517109BF
:10280000610F711D41E050E0CE0103960E94C1228C
:102810008B812396E3E00C94B736A2E0B0E0E3E1CD
:10282000F4E10C949A360091070110910801BE0161
:102830006F5F7F4F90E097DF811117C069817A81C8
:102840006115710591F040E250E0C8010E94C1227B
:1028500081E00B3A180719F48BE891E002C08BEA8B
:1028600091E09093080180930701C8012296E4E06B
:102870000C94B636EF92FF921F93CF93DF93209183
:102880004D01211102C08FEF88C0EC0110924E0162
:1028900010924A018091DF04882339F001C027D9C2
:1028A0008091DF04882379F366C0609159017091AB
:1028B0005A0183E496E090DE8091490690914A06A1
:1028C000892B09F31881112391F07E0182E0E80E33
:1028D000F11C1F33C0F66EE370E0C7010E94C535DE
:1028E000212F30E0019628173907E1F0CCCF60E0C6
:1028F0008091590190915A010E94BA2B90934C01FA
:1029000080934B01F4D880914B0190914C01892B1D
:1029100039F281E080934E0168EE73E083E00E941B
:102920005923BECFB7018091590190915A010E945D
:10293000D10B90934C0180934B01892B09F4B0CFBC
:102940008BE496E0909352018093510180E465DF1F
:102950009093540180935301F0925601E0925501F7
:1029600061E571E083E0E1DA811199CF81E0809344
:102970004E01BDD8D1CF80914E01813009F083CF77
:1029800060914B0170914C0182EF94E007DE67E1AA
:1029900075E0CE010E94E83680E0DF91CF911F9173
:1029A000FF90EF900895A4E0B0E0E9EDF4E10C941D
:1029B000983620915E01211102C08FEF74C0142F50
:1029C000062F7C01642F0E94EF2A892BB1F7111189
:1029D00002C089E101C083E320DF9093520180931C
:1029E0005101F0925401E092530161E571E082EFF0
:1029F0009CDA811155C079D8402F50E0B7018BE4A3
:102A000096E00E94D836111105C0E0908305F09041
:102A1000840504C0E0908505F090860510924A0672
:102A20001092490680914306909144069F731111BC
:102A3000906890934406809343060AE328E0AE0131
:102A40004D5F5F4FB70183E496E00E949620082F08
:102A500081111EC08B819C81E816F906C9F0111105
:102A600016C09A838983909384058093830560912F
:102A70008105709182059E012F5F3F4F42E050E03B
:102A800080917F05909180050E942C2301C0E1DC9C
:102A90000E94432011E0011101C010E0119501C016
:102AA0001FEF25D8812F2496E6E00C94B436CF93FF
:102AB000C62F0E94EF2A90935A01809359011092D9
:102AC0004D0110924E0110924A0110925B0110923A
:102AD000500160E070E083E00E94592310924F01A2
:102AE0006091590170915A016115710581F08091D1
:102AF0005E01813061F4C11103C080934D0105C0B6
:102B000080935B0183E496E067DD80E001C08FEF96
:102B1000CF910895A0E1B0E0E0E9F5E10C9498369A
:102B20007C018B0164E170E083E00E945923CE01B7
:102B300001961ADC43E050E068E771E0CE010196AF
:102B40000E94CB36892B71F48B8190E0805C9F4F83
:102B50008B83892F99272A81820F911D8A83CE0129
:102B600001960FDC80E1EBE7F1E0DE0111960190C8
:102B70000D928A95E1F743E068E771E0CE010E9689
:102B8000E2D5CE0101960E943F29C7010E944E293D
:102B90008091780190917901A0917A01F801808368
:102BA0009183A28363E088E791E0BFD563E088E783
:102BB00091E0BBD58091DF048111FCCF6096E6E007
:102BC0000C94B436A0E1B0E0E8EEF5E10C94983650
:102BD0008C017B0164E170E083E00E94592380E175
:102BE000EBE7F1E0DE01119601900D928A95E1F795
:102BF00043E0B701CE010E96A6D5CE0101960E9404
:102C00003F29C8010E944E298091DF048111FCCF29
:102C10006096E6E00C94B436CF93DF9320914D019B
:102C2000213029F52091DF04222309F120914E0162
:102C30002130E9F4EC0160914B0170914C0182EF7D
:102C400094E0ACDC64E175E086E595E0BBDF1092D2
:102C5000750566E575E0CE010E94E83680E2E6E59E
:102C6000F5E0DF011D928A95E9F780E001C08FEF62
:102C7000DF91CF910895AFE3B0E0E1E4F6E10C9489
:102C80009B368FE590E00E941336182F60E080E3BA
:102C900091E00DDF811137C010FF35C080915F07D3
:102CA000882389F181E0809374011982CE01019615
:102CB000E1DD811128C011FF03C060E088E204C09B
:102CC00014FF08C061E48CE40E94C02884EF91E006
:102CD0000E94732312FF09C01FAECE0101960E940D
:102CE000F02860E08BE20E94C028CE01019694DFBC
:102CF000811109C018A2CE0101960E94F02860E05F
:102D000088E20E94C028EF96E3E00C94B736A4E571
:102D1000B0E0EDE8F6E10C949B363CD4823010F440
:102D200082E003C0823029F481E00E946D0D35D22B
:102D3000A8C0833009F08FC08FE16FDDBC0181E056
:102D4000F4D8811186C065E1CE018F5A9F4FCDD84E
:102D5000811175C00E94750DBE016D5A7F4FCE0165
:102D60008C5A9F4F0E94E90C8F3F09F468C065960A
:102D70008FAD65978BDB65968FAD65970E94FB0BDA
:102D800068E0CE0181960E94832360E1CE018F5BD3
:102D90009F4F0E94832365964FAD6597BE016F5B81
:102DA0007F4FCE0181960E94AA0C811148C0AE01CE
:102DB0004F5D5F4F60E470E080E790E061D260E2D9
:102DC000CE0181960E948323AE014F5D5F4F60E08C
:102DD00071E080EC90E054D2AE014F5F5F4F68E14C
:102DE00088E314D2BE016F5B7F4FCE0181960E94B3
:102DF000360CCE018F5A9F4F83DACFD10E948023A9
:102E0000C9D3843059F0CE018F5A9F4F1BD379D349
:102E100065968FAD65970E94310D11C032DA811130
:102E2000F2CFCE018F5A9F4F0DD3893061F788E0E2
:102E30000E946D0D0E94680C10E081E005C089E0E1
:102E40000E946D0D1FEF8BE063961FAE1EAE639761
:102E50001AC08BE00EC08430A1F481E00E94382BB0
:102E6000811104C008DF10E081E00DC0813039F429
:102E70008CE0809300010E94770D1FEF08C08AE06C
:102E8000F8CF1FEF8BE0809300010E94770D812F18
:102E9000CC5ADF4FE3E00C94B7360F931F93CF93D8
:102EA000DF93EC018B0164E170E083E00E94592321
:102EB000BE018CEC96E010D5B8018CEC96E04DD4B8
:102EC0008091DF048111FCCF81E8ECECF6E0DF01BA
:102ED0001D928A95E9F780E2FE0111928A95E9F741
:102EE000DF91CF911F910F910895AF92BF92CF9232
:102EF000DF92FF920F931F93CF93DF93CDB7DEB78F
:102F000060970FB6F894DEBF0FBECDBF8C016B018A
:102F1000F42EF8D68F2D81DCBC0180E00E94A6251E
:102F200080E1F601DE01119601900D928A95E1F79C
:102F3000BE016F5F7F4FC801B0DF8E010F5F1F4F73
:102F40008BE8A82E81E0B82E9BEAC92E91E0D92EFD
:102F500028E0F22EB501F80181918F010E94B42D75
:102F6000B601F80187810E94B42DFA94F2E0AF0E09
:102F7000B11C82E0C80ED11CF110ECCF6BE871E0FF
:102F80008AE00E94A6256BEA71E085E10E94A625F1
:102F9000E5D660E081E00E94200E60960FB6F894BE
:102FA000DEBF0FBECDBFDF91CF911F910F91FF907C
:102FB000DF90CF90BF90AF9008958BE08A95F1F7A6
:102FC00008952998FADF299AF8CF299AF6DF2998E7
:102FD000F4CFCF93DF93DC01EB015D96EC915D972D
:102FE000F0E0E456FE4FE4918881E8278C91E827D1
:102FF000EC935E96EC915E97F0E0E456FE4FE49120
:1030000011968C911197E8271196EC9311975F9682
:10301000EC915F97F0E0E456FE4FE49112968C91AC
:103020001297E8271296EC9312975C96EC915C97B6
:10303000F0E0E456FE4FE49113968C911397E82745
:103040001396EC9313978881982F991F9927991FAE
:103050002BE1929F902D1124880F89278883ED0101
:10306000CD010C96FD0134812081232724833581F5
:1030700021812327258336812281232726833781B7
:103080002381232727833496E817F90761F71C96D5
:10309000EC911C97F0E0E456FE4FE49150962C9191
:1030A0005097E2275096EC9350971D96EC911D9700
:1030B000F0E0E456FE4FE49151962C915197E227AF
:1030C0005196EC9351971E96EC911E97F0E0E456C2
:1030D000FE4FE49152962C915297E2275296EC9330
:1030E00052971F96EC911F97F0E0E456FE4FE49143
:1030F00053962C915397E2275396EC933C89288959
:1031000023272C8B3D89298923272D8B3E892A89CA
:1031100023272E8B3F892B8923272F8B24968C17CF
:103120009D0761F7DF91CF910895AC0190E1915037
:1031300068F0292F30E0FA01E20FF31FDB01A20F44
:10314000B31F80812C9128272083F1CF08959C0103
:1031500090E1915050F0D901A90FB11DEC91F0E030
:10316000E456FE4FE491EC93F4CF0895CF93C82F2B
:103170002F9A23DFCC2311F02A9A01C02A981DDF51
:10318000299A1BDF2F9884E090E00E9473232998EE
:1031900014DF2A9812DFCF9108952D9A10925304CC
:1031A0002F982798889880981CBC219885B1897F92
:1031B00085B90895A1E0B0E0E0EEF8E10C949C360A
:1031C00080915404898389818130A1F08981882389
:1031D00089F08FB7F89490915404923021F491E0E3
:1031E0009093540406C090915404933011F41092BB
:1031F00054048FBF89812196E2E00C94B836889AF6
:103200002F98DBCE2F988898D8DED7CEA0E0B0E0FC
:10321000ECE0F9E10C949736E82ED62EF42E052F2B
:10322000F1DFCF2DD02F10E01E1591F01EBC0DB494
:1032300007FE06C01D1548F08EB58883219606C08E
:103240000E94B0258F3F99F3F5CF8EB51F5FECCF6D
:10325000D6DF8F2D902FCDB7DEB7E7E00C94B336D5
:10326000CF93DF93EC01AC016EE086E1CFDFCE01BE
:10327000DF91CF9108951CBC29982A989EDEC2CF79
:10328000A0E0B0E0E6E4F9E10C9494368C017B0117
:103290006A01F1DF003E82E0180718F4C0E0D0E0D8
:1032A00018C0CFEDD2E091DE2197E9F72A9A8DDEA2
:1032B0002A98C0E0D0E0580180EEA81A82E0B80A4F
:1032C000CA15DB0518F481DE2196FACFC0E0D0E004
:1032D00029C0C017D107D1F378DE2196FACFCE01ED
:1032E000800F911F8F709927892B01F12097F1F0A2
:1032F000FE0183E0F695E7958A95E1F7EC0DFD1D5B
:10330000808190E09E01209530952770332702C080
:10331000959587952A95E2F780FD02C081E026DF2A
:1033200054DE2196CE15DF05D1F603C080E01EDF06
:10333000DFCF65DF83E58CBDCDB7DEB7EAE00C9467
:10334000B036A4E0B0E0E7EAF9E10C949C36AE01B7
:103350004F5F5F4F62EB84EB59DF89819A818095E3
:1033600090959C838B83AE014D5F5F4F60E170E071
:1033700080E995E085DFAE014F5F5F4F62EB84EB44
:1033800045DF81E04B815C8129813A8142175307F7
:1033900009F080E081952496E2E00C94B8360F9312
:1033A0001F93CF93DF938C0166DFC0E5D0E009DE89
:1033B0002197E9F702DECFE0D0E0F801808191812A
:1033C0000C2E02C0969587950A94E2F780FF02C002
:1033D0002A9801C02A9AF1DDF4DD219770F7299827
:1033E000ECDDEBDD2A98E9DDE8DDC0E0D0E01B9BF9
:1033F0001AC081E0BBDE1B99FECF80E0B7DE1B99CF
:1034000009C0209749F0C130D10541F0229741F021
:10341000C4E007C0C0E005C0C1E003C0C2E001C015
:10342000C3E0D3DD06C0D1DD2196C430D105F9F665
:10343000C4E0E5DE83E58CBD8C2FDF91CF911F9139
:103440000F910895A4E0B0E0E8E2FAE10C949C3614
:10345000A6DF811123C075DF8F3F11F481E021C009
:10346000AE014D5F5F4F66E188E1D0DEAE014F5F98
:103470005F4F6CE58EE5CADE8B81803879F78C81F1
:103480008111ECCF8981803849F781E09A819111CF
:1034900001C080E08111E2CF89E003C00E94DE100C
:1034A0008B5F2496E2E00C94B8361F93CF93DF93A2
:1034B000182F882319F0C0EBD2E002C0C0EED4E090
:1034C000DADE219710F07DDDFCCF112319F0C0E387
:1034D000D0E002C0C0E2D0E070DD219718F06DDDD1
:1034E00070DDFBCF299869DD68DD2A9866DD65DD32
:1034F00080E03CDE84DE83E58CBDDF91CF911F91BF
:103500000895AAE0B0E0E7E8FAE10C949C3680EF79
:1035100090EF9A87898748E050E06FEF70E0CE0126
:1035200001960E94E136AE014F5F5F4F60E470E0AC
:1035300080E790E0A5DE80E0B8DF81E0B6DF0E94A2
:103540006311CE0109960E9480112A96E2E00C9444
:10355000B836CF93DF93882339F0823041F0813041
:1035600049F0C0E0D0E008C0C4EBD5E005C0C8E138
:10357000D6E002C0C9EFD5E07EDE219710F025DD50
:10358000FCCF889A81E0F2DD3ADE83E58CBDDF91E5
:10359000CF910895A4E2B0E0E0EDFAE10C949A3600
:1035A0002D9881E0809353042F98279A889A809AC7
:1035B00085B1897F85B984B1866084B983E58CBD86
:1035C0000E9480230E948023AE014B5E5F4F60E02B
:1035D00082E01CDE8D899E898F309F4089F5AE0187
:1035E0004F5F5F4F60EB82EB11DE89819A81059618
:1035F0009A838983AE014F5F5F4F60E170E080E89E
:1036000095E03EDEAE014B5E5F4F60EB82EBFEDD90
:103610002D893E8989819A812817390709F07EC052
:103620000E94DE10823071F030F4882309F478C0F3
:10363000813041F075C0833029F0843019F070C0BA
:1036400080E06FC0AE014B5E5F4F62EB84EBDEDD6E
:103650008D899E89019609F047C000EF10EF1CA3E9
:103660000BA3CE0183969BDE811158C01AA309A338
:1036700068DE882309F452C018A30F8F8FEF898367
:103680008A83AE014F5F5F4F61E070E081EA95E0B1
:10369000F7DDCE014F960E948011CE0181960E94E7
:1036A000801169E371E0CE0101960E94E836AE0117
:1036B0004F5F5F4F60E470E080E190E0E1DD87E024
:1036C0009EED9A838983AE014F5F5F4F60E170E0AA
:1036D00080E995E0D5DD0E94631180E03ADF81E06A
:1036E00038DF82E036DF16C0CE014596B9DD48E00E
:1036F00050E061E471E0CE0145960E94CB36892B03
:1037000059F480EF90EF9A838983CE0101969ADE77
:10371000893021F483E005C084E003C081E001C06A
:1037200082E0A496E4E00C94B636AC01662351F036
:103730006150FA01E60FF11D908121E0290F2083ED
:103740009F3FA1F30895DC01FB01415028F08191D6
:103750009C9189278D93F9CF0895A1E0B0E0E3EB28
:10376000FBE10C9492367C018B01AC01405E5F4F13
:1037700020E12150D0F0822F90E0FA01E80FF91FEC
:103780003081F701E80FF91F3083F801E80FF91FC6
:103790006081362730834096FA01E80FF91F3081A7
:1037A000F701E80FF91F3083E4CF81E08983992482
:1037B0009394680180E1C80ED11C8BE1882E5701DB
:1037C000E0E1AE0EB11CC801C2DCF8018181958137
:1037D000918391859583958591878587828592814F
:1037E0009287828383819785938393859787978137
:1037F000938787838685968196878683808161817A
:1038000052813381982F9627252F2327422F49272E
:1038100097FF03C0990F982501C0990F9427982707
:103820009083962F952797FF03C0990F982501C085
:10383000990F94279627918327FF03C0220F2825ED
:1038400001C0220F242725272283832787FF05C055
:10385000982F990F892F882501C0880F84278327E7
:1038600083833496CE16DF0649F690FE02C0B5017A
:1038700006C0BE016F5F7F4FC701ABDBB701C80158
:1038800054DC9394FEE09F129ECFC80160DCF801E7
:103890008181958191839185958395859187858790
:1038A0008285928192878283838197859383938592
:1038B0009787978193878783868596819687868366
:1038C000BE016F5F7F4FC70184DBB701C8012DDCEC
:1038D0002196ECE00C94AE36A1E0B0E0E2E7FCE12A
:1038E0000C94993621E02983DB01FC01B0968C0110
:1038F000005C1F4F8D9180A38193E017F107D1F7F2
:1039000088E0F82EFA94FF2031F0BE016F5F7F4F00
:10391000C8015FDBF7CF2196E5E00C94B536CF9375
:10392000DF93EC012D813E818B819C812817390723
:10393000E0F42F5F3F4F3E832D83898D803168F007
:103940006F81788540E150E0CE0109961AD68F81CB
:103950009885409698878F83198E898D91E0980F6E
:10396000998FC80FD11D898501C080E0DF91CF916B
:103970000895A2E0B0E0EFEBFCE10C949A368B01E5
:1039800090E080589F4F0E94B3138F3F89F0F80159
:103990006081718142E050E0CE010196F2D5F801DC
:1039A0008081918102969183808389819A8102C06E
:1039B0008FEF9FEF2296E4E00C94B636A8E0B0E0DB
:1039C000E4EEFCE10C949C3690910D019F3F11F4C4
:1039D00080E03FC08032E0F390E04C9760914C046F
:1039E00070914D04680F791F41E050E0CE010896B8
:1039F000C8D588858F3FD1F0688527E0629FB001E8
:103A000011246C5F7E4F80914C0490914D04680F9F
:103A1000791F47E050E0CE010196B3D58E819F819A
:103A2000019699F4898186958F5F13C060914C044B
:103A300070914D046D5D7F4F41E050E0CE010896DE
:103A4000A0D588858F3FC1F6C3CF8A818F5F9C81C7
:103A5000890F2896E2E00C94B836A4E1B0E0E3E3E5
:103A6000FDE10C948C365A019091C706DA012C9135
:103A7000192F120F1150160F412E4694469446945A
:103A800070E0690F711D1B0153E0359427945A951E
:103A9000E1F72C8610951770912F91959770998763
:103AA00011966D917C911297782E9FEF960F980F3B
:103AB0009D8787FF22C0482F419550E06417750706
:103AC00008F401C130E0295F3F4F43E03695279568
:103AD0004A95E1F7992781950CF49095289F7001FC
:103AE000299FF00C389FF00C1124B1E0EB1AF1087B
:103AF00018F0C50114DFF9CF712C88E0E8E1F1E09E
:103B0000DE01119601900D928A95E1F7842D65E012
:103B10000E94533640E8949F900111243F872E87DE
:103B200000E0842D90E0998B888B88E090E0DC01A8
:103B3000E985AE1BB109BB8BAA8BF8EFF10FFC8BAB
:103B400021E030E02C0F3D1F210F311D3B872A87DC
:103B50003D85371508F4B7C077FCB5C0D5016C902A
:103B6000542CEE84FF84872C912C852D052C000C81
:103B7000990B821593050CF4A4C0E889F9898E1776
:103B80009F07A1F5C501CBDEFC854F1211C0F401E2
:103B9000EE0DFF1DE553FE4FAA85BB85A60DB11D99
:103BA0009C919095AA85BB852C91922B208109C070
:103BB000F401EE0DFF1DE553FE4F2081AA85BB8564
:103BC0009C9192239083F401EE0DFF1DE553FE4F6F
:103BD000282F30E0012E02C0359527950A94E2F790
:103BE0009081292B2083BC896B0E60C02816390672
:103BF00009F03FC0111109C0C50191DEF701E5537D
:103C0000FE4FE80DF91D808351C0862D90E0940190
:103C10002E0D3F1DF901E553FE4F6F01E1E0F0E08D
:103C2000EC0FFD1FE80FF91F20812095D6013C9174
:103C300023232C93EA89FB89E817F9077CF4C50153
:103C40006EDE282F30E0012E02C0359527950A94AC
:103C5000E2F7D6019C91292B2C9301C0802F098477
:103C600001C0000F0A94EAF7F6019081092B008346
:103C70001DC0C50154DE970125533E4FF901E80DE3
:103C8000F91D111102C080830FC0098401C0000F0B
:103C90000A94EAF7282F30E0012E02C035952795C7
:103CA0000A94E2F7202B2083F8EF6F0E20E8E21A47
:103CB000F108F7FE03C0E12C92E0F92E5A94082F88
:103CC00054CF739445CF6496E2E10C94A836CF9319
:103CD000C82F6CE474E04DDE029791F4C0930D019F
:103CE00060914C0470914D0444E050E08EE494E007
:103CF00048D480915004813019F08FEF80930D01EA
:103D0000CF91089580E892E0EBECF1E0DF019C01B7
:103D10001D9221503040E1F708955F985C98F4D3EC
:103D20005F9A08957298ECD48FEAF7DF81E0809370
:103D3000700108950F931F93CF938C015F985C9847
:103D4000C62FCC2331F0F80181918F01DDD3C15012
:103D5000F8CF5F9ACF911F910F910895A6E0B0E040
:103D6000E4EBFEE10C94963681E2898380910C01AC
:103D70008A8381588B8310916F011695169516953D
:103D800082E28C831D831E838091C70690E0079694
:103D900068E270E00E9473367C0183E0F594E7945A
:103DA0008A95E1F7F694FE2CEE24F794E79404E06C
:103DB00020E8C22E22E0D22E63E0CE010196BADFC7
:103DC00063E0CE010496B6DFF701E553FE4F809124
:103DD000C80085FFFCCF1092CE008091C80087FFFD
:103DE000FCCF5F985C9ACF0180589F4FE817F90786
:103DF00071F021913091C80037FFFCCF3091CE0097
:103E00003091C80035FFFCCF2093CE00EFCF8091DA
:103E1000C80087FFFCCF8091CE005F9AC701805811
:103E20009F4FB6010E945F367C011F5F17701D8394
:103E30001E83015009F0C0CF2696E8E00C94B236FC
:103E4000A3E2B0E0E6E2FFE10C949936F82E162FDB
:103E5000842F022FBE016E5D7F4F8BDD019709F02D
:103E600094C06AA17BA147E050E0CE014B9689D374
:103E70004B8D5C8D8D8D2AA13BA1295F3F4F3987EA
:103E800028875B834A8389831F821E8290E19A8FF1
:103E900090E0079623E0969587952A95E1F7849F11
:103EA0009001859F300D949F300D11243D832C830C
:103EB00017FD05C0AE014F5F5F4F612F10C08091AD
:103EC0006F01811B8F7380936F018091C706811BE7
:103ED0008F718093C706AE014F5F5F4F60E08F2DFB
:103EE000BCDD002309F451C090916F018D8D890FC5
:103EF000810F8F7380936F0131DF0130B1F49091A6
:103F00004B0401E0090F00934B049F7380916F01F4
:103F1000891741F085E090E0E6D3802F8F738064AD
:103F2000FCDEEDCF80934B0420C00230B1F49091C1
:103F30004B040FEF090F00934B0480916F019F73A7
:103F4000981741F085E090E0CED3802F8F73806486
:103F5000E4DEEDCF90934B0408C0033031F4809140
:103F60006F0180934B048064D8DE2091C706812FB7
:103F7000110F990B820F911D2D8D820F911D68E2FB
:103F800070E00E9473368093C706A396E5E00C9418
:103F9000B536CF93C091C70610920C0180ECBDDE00
:103FA00080EABBDE8C2F90E0089668E270E00E9409
:103FB00073368093C706D2DEC093C706CF910895AB
:103FC000A2E0B0E0E6EEFFE10C949336B82EA62E08
:103FD000972E8A01E22E4F3F510509F010F400E0C0
:103FE00011E0F12C011580E1180790F5680183E0DC
:103FF000CC0CDD1C8A95E1F781E08E1528F184E870
:10400000E89EB00111249E012F5F3F4F42E050E037
:10401000C801DDD289819A8188279072892F9927DA
:10402000829586958770813069F4FB1488F4EA2DB7
:10403000F92DEF0DF11DEF0DF11DC6018E299183B4
:104040008083F394E394D8CF0F5F1F4FE12CCACF46
:104050008F2D2296EBE00C94AF364091890550915C
:104060008A05242F277083E0569547958A95E1F7B6
:1040700069E875E081E0A4DF811104C010928A052F
:10408000109289050895A9E0B0E0E9E4F0E20C940B
:104090009A36009183051091840584E3EFE0F6E001
:1040A000DF011D928A95E9F783E590E00E941336BF
:1040B000811128C00E941012909388058093870573
:1040C00031C0C80123E0969587952A95E1F78115BF
:1040D000B0E19B0738F5602F677024E8629FB0015C
:1040E00011249E012F5F3F4F49E050E070D2E985D7
:1040F0008FE98E0F8A3150F0109388050093870561
:104100000D811E8101151105E1F60CC0F0E0EE0FE6
:10411000FF1FE35BFA4F80819181892B69F711833F
:104120000083EACF2996E4E00C94B636A0E0B0E034
:10413000ECE9F0E20C949036FA0171836083E0912F
:104140008905F0918A05EF2B11F48FEFACC05A016D
:104150006B014C01FC0180819181907E30917E0544
:10416000932B9F7D91838083138212821582148208
:104170006115710579F4B4018091890590918A05E2
:104180000E947912B4018091890590918A050E945C
:10419000691280C07B01C22FD0E0602E712C8E018D
:1041A00005571A4FC80DD91DB7018BE895E00E943D
:1041B000C112A301B801CE010E94FF3618163CF5CA
:1041C00080918F0590919005009711F07C01ECCFC4
:1041D000F401F382E282B4018091890590918A050D
:1041E0000E9479128091890590918A05909390059B
:1041F00080938F056BE875E0C7010E94791260918A
:10420000890570918A05C4010E94C1124AC08823A1
:1042100009F49BCFF401F582E48280918D059091A1
:104220008E0593838283B4018091890590918A05DC
:104230000E947912B4018091890590918A050E94AB
:1042400069128091890590918A0590938E058093DB
:104250008D056BE875E0C7010E947912F401628157
:1042600073816115710599F08BE895E00E94C11288
:104270008091890590918A059093900580938F0590
:104280006BE875E0F401828193810E947912CE146B
:10429000DF0439F48091890590918A05F5019183B5
:1042A0008083DBDE80E0CDB7DEB7EEE00C94AC3689
:1042B000F894A89584B7877F84BF80916000886157
:1042C000809360008FE080936000FFCF1F920F9279
:1042D0000FB60F9211242F933F934F935F936F93D9
:1042E0007F938F939F93AF93BF93EF93FF933799F0
:1042F00016C08091C4048A3F41F4809154048330F5
:1043000051F182E08093540404C08091C4048F3F33
:1043100011F18091C4048F5F8093C4041CC080910C
:10432000C404882341F080915304882321F00E9423
:10433000CD180E94520C80915404813021F483E006
:104340008093540406C080915404833011F010927D
:1043500054041092C4048091C5049091C60401963F
:104360009093C6048093C50480E090E0893031F4D6
:104370002091C5043091C604232BB1F4FC01EE0F4B
:10438000FF1FE80FF91FEC52FB4F20813181232BD7
:1043900059F020813181A901415051095183408355
:1043A0002130310509F4128201968A309105F1F627
:1043B0008FB19FB181FB222720F99072892F90E065
:1043C00034E0959587953A95E1F7822B39F0823064
:1043D00039F091E0813029F090E003C092E001C013
:1043E00093E0492F50E02091C80430E02F5F3F4F09
:1043F000237033274217530789F4811104C081E0E9
:1044000080935A0432C0833081F580915A04813000
:1044100061F58091CA068823D9F01EC02091C80496
:1044200030E0215031092370332742175307F9F444
:10443000811104C081E08093580417C08330A9F42F
:1044400080915804813089F48091CA06882321F034
:1044500080915904815003C0809159048F5F8093EB
:10446000590410925A04109258049093C8047C99ED
:1044700026C08091C704823339F480915704833079
:1044800019F082E0809357048091C7048F3F29F090
:104490008091C7048F5F8093C70480915704813057
:1044A00021F0809157048230F1F48091550490916D
:1044B00056040196909356048093550414C080913D
:1044C0005704813021F483E0809357040AC080911F
:1044D0005704833031F01092560410925504109214
:1044E00057041092C704FF91EF91BF91AF919F9134
:1044F0008F917F916F915F914F913F912F910F908D
:104500000FBE0F901F9018959091C80095FFFCCF9B
:104510008093CE008091C80087FFFCCF8091CE00B1
:1045200008952C9887EDF0DF80E0EEDF87FFFACF6B
:104530002C9A0895A0E0B0E0E0EAF2E20C949636FE
:104540008C01EB017A012C986C0184E0C80ED11C1F
:10455000F8018081D9DFF80181938F01CE16DF0643
:10456000B9F78E010E0D1F1DC017D10721F08881EC
:10457000CBDF8993F9CF2C9ACDB7DEB7E8E00C9466
:10458000B236A4E0B0E0E7ECF2E20C949C369C0179
:10459000CB01FA0168E071E00E945F36AB01542F55
:1045A0004427550F842B952B43E04983660F672FD3
:1045B000661F770B71956A839B838C83AF01B9016A
:1045C000CE010196B7DF2496E2E00C94B836A4E061
:1045D000B0E0EDEEF2E20C949C36FB01811560E157
:1045E000960708F0FFCFDA011197AE0FBF1FA83072
:1045F000B14008F0FFCFB90123E02983880F991F4C
:104600002F2F3327822B932B9A838B83EC83CE011E
:10461000019690DF2496E2E00C94B836A4E0B0E076
:10462000E4E1F3E20C949C36811520E1920708F056
:10463000FFCF23E52983880F991F9A838B831C82E0
:1046400040E050E0BE016F5F7F4FCB0173DF69DF59
:104650002496E2E00C94B836A4E0B0E0E2E3F3E2A2
:104660000C9494368115A0E19A0708F0FFCFFA0167
:104670003197E60FF71FE830F14008F0FFCF5901FE
:104680006A017B018C01CADF82E88983000F111F58
:104690008F2D9927082B192B1A830B83EC82A601E7
:1046A000B501CE01019646DF3CDF2496EAE00C948A
:1046B000B03690E0FC01EE0FFF1F8E0F9F1FFC0134
:1046C000EC52FB4F808191818617970759F08FB785
:1046D000F89471836083672B11F4128202C091E019
:1046E00092838FBF0895BC016F5F7F4F85E0E1DF4C
:1046F0008091E5048111FCCF81E08093E504089569
:1047000082E890E0F0CFCF92DF92EF92FF92282FD5
:10471000DC0134E08A2F821B8617C8F58091C30420
:1047200081112AC08091BE048823E1F34FB7F89429
:10473000E091BD0484E0E89FF0011124E358FB4FB1
:10474000C080D180E280F3808091BD0490E001962A
:104750008F7099278093BD048091BE04815080930F
:10476000BE044FBFC092BF04D092C004E092C10407
:10477000F092C2043093C304E091C304E150E0938B
:10478000C304F0E0E154FB4F80818D93C3CFFF90D1
:10479000EF90DF90CF9008951F920F920FB60F9277
:1047A0001124CF92DF92EF92FF920F931F932F93DA
:1047B0003F934F935F936F937F938F939F93AF93A9
:1047C000BF93CF93DF93EF93FF93E0917C0486B583
:1047D000F0E0E45AFB4F808380917C048F5F8093EC
:1047E0007C0480917C04803208F45EC010927C04CA
:1047F000E0915B04F0E0CCE5D4E00CE714E020E0CD
:1048000030E0A9018991280F311D411D511DA1E002
:10481000B4E00E943A366B017C01A6E0F694E7947E
:10482000D794C794AA95D1F79B01AC012C253D25BF
:104830004E255F250C171D0729F7A9E0B0E00E945F
:104840003A368B019C014BE03695279517950795D5
:104850004A95D1F7A90198012627372748275927D4
:10486000A1E0B0E80E943A36EE0FFF1FEE0FFF1FE7
:10487000E358FB4F608371838283938380915B0451
:1048800090E001968F70992780935B048091BE041D
:10489000803129F480915B048093BD0405C0809130
:1048A000BE048F5F8093BE04FF91EF91DF91CF91A3
:1048B000BF91AF919F918F917F916F915F914F9138
:1048C0003F912F911F910F91FF90EF90DF90CF902C
:1048D0000F900FBE0F901F901895A2E2B0E0E3E793
:1048E000F4E20C9498368A3061F490915204992342
:1048F00089F090915D0780914E04890F80935D0748
:1049000006C08D3039F490915204992319F0109219
:104910005E07AAC0182F52D820915E0790E0820F40
:10492000911D2091090130E0281739077CF480910E
:104930005204811102C08FEF98C090915D07809161
:104940004E04890F80935D0710925E07F0905D071B
:1049500020914E048F2D90E0820F911D81975CF77E
:1049600080910D018F3F11F480E079C01032E0F3A7
:1049700000915E07812F90E04C9760914C047091FC
:104980004D04680F791F41E050E0CE018296F9DDB9
:104990008AA18F3FF1F08AA127E0E22EE89EC001B4
:1049A00011248C5F9E4F60914C0470914D04680FF0
:1049B000791F47E050E0CE014B96E3DD48A159A1B5
:1049C0004F3F8FEF5807A1F41E8E8B8D182F169531
:1049D00043C060914C0470914D046D5D7F4F41E088
:1049E00050E0CE018296CDDD8AA18F3FA1F6BCCFEB
:1049F0001C8D2D8D8E8D6F8D6F0DE12FF0E09091C0
:104A00005104E99E400D511D11244C5F5E4FA09151
:104A10004C04B0914D044A0F5B1F59874887FB83B4
:104A2000EA8329831F821E8290E19A8F30E0295FFA
:104A30003F4F93E0369527959A95E1F72E9FA00179
:104A40002F9F500D3E9F500D11245D834C83AE016E
:104A50004F5F5F4F800F01D88E8D8F5F810F9091D8
:104A60005E07890F80935E0780E0A296E6E00C94D3
:104A7000B436A0E0B0E0EFE3F5E20C949536C82F31
:104A8000C62EB42E8901D0900901D0E0E12CF12C82
:104A9000F801ED0FF11D8081811104C082E0B81290
:104AA00023C008C08D30D1F30E94DE1CE80EF11C3B
:104AB000DF5FEECF2C2F30E090917101892F90E0D5
:104AC000A901480F591F4E0D5F1D6D2D70E046174F
:104AD000570728F5EB01C20FD31FC80FD91FCE19F6
:104AE000DF09D695C7951BC081E0B81218C0CD1557
:104AF00010F4C0930901809171019701280F311DB5
:104B00004C2F50E04217530738F4C09109014C2F45
:104B100050E02417350710F4CE1901C0C82FC093F8
:104B20005E07C0925D07F02EC02FD12F1C2F1F19DA
:104B30008991882319F0D1DE8823C1F3D09209012D
:104B4000812FCDB7DEB7E9E00C94B1369B0142E08E
:104B5000682F80E08ECF8091E80080FFFCCF089521
:104B600086B18095880F880B0895EF92FF920F937E
:104B70001F93CF93DF93182FF62EE72ED42F882381
:104B800011F0CEE301C0C0E4CD1BC7FD3DC0809154
:104B90005F078823C9F10FB7F89462E370E085E0FE
:104BA00088DD81E08093E90091E08091E80085FD57
:104BB00009C00FBF8091E50481111DC081E0809381
:104BC000E50423C0112321F0D093F1001093F100EC
:104BD000EF2DFE2DD15020F081918093F100FACF7E
:104BE000C15018F01092F100FBCF8AE38093E800E7
:104BF0000FBF80E00AC080915F07882329F00FB7BC
:104C0000F8949093E900D1CF8FEFCDB7DEB7E6E00F
:104C10000C94B4360F931F93CF93DF93D82FC62FE6
:104C20008A01CE3358F04EE3B8018D2F9EDF8111FB
:104C300010C0025C1F4FCE53A1F70CC04C2FB8011F
:104C40008D2F93DF91E0811101C090E0892F819534
:104C500001C08FEFDF91CF911F910F9108951F92A7
:104C60000F920FB60F9211241F932F933F934F93E0
:104C70005F936F937F938F939F93AF93BF93CF93E4
:104C8000DF93EF93FF931092E9008091E80083FF98
:104C900058C11091F1008091F1002091F1009091A4
:104CA000F10030E0392BC091F1009091F100D0E09B
:104CB000D92B4091F1005091F10092EB9093E800D4
:104CC000863009F049C089E793E0FC016591749151
:104CD00026173707E1F4FC01329665917491C617E7
:104CE000D707A9F4FC01349665917491FC013696BE
:104CF0008491242F30E0352B2F3F310519F010F02F
:104D00002FEF30E0281708F4822F3EEF0DC00796F2
:104D100063E0883B9607C9F614C1690F711D891BB2
:104D20003093E8008823A9F09091E800292F25709E
:104D3000D9F392FD09C1982F813208F090E2FB016E
:104D4000292F222351F344914093F10021503196B1
:104D5000F8CF903249F3F8C0853069F42F7720936B
:104D6000E3008EEF8093E800F6DE8091E300806838
:104D70008093E300E9C0893039F5111168C02093B0
:104D80005F078EEF8093E80041E08FE693E0409369
:104D9000E9009C012F5F3F4FFC0154915093EB00C1
:104DA000552359F0F90124912093EC009C012D5FCB
:104DB0003F4F3196E491E093ED004F5F453011F0A5
:104DC000C901E5CF8EE13EC0883039F4103809F0D2
:104DD0003EC0C1DE80915F0792C0811113C0BBDE6F
:104DE000123851F4C093E9008091EB0085FB8827CD
:104DF00080F91092E90001C080E08093F1001092E8
:104E0000F1009BC0982F9D7F913009F51230F9F485
:104E1000232B09F096C0CF779FEF9C0F943008F0BA
:104E200090C09EEF9093E800C093E900833009F4AE
:104E300088C089E18093EB0081E090E001C0880F99
:104E4000CA95EAF78093EA001092EA007DC02097A5
:104E500099F5113AF9F4813009F073C080E43EEF1E
:104E60009091E800292F2570D9F392FD6DC0982FFD
:104E7000813208F090E2292F222321F01092F100D4
:104E80002150FACF891B3093E8008111E9CF90328D
:104E900039F35AC0113209F054C0893009F051C0B9
:104EA0009BEF8091E80082FD9093E8008091E800FC
:104EB00086FFF7CF50DE41C0219709F042C0113A7A
:104EC00009F5813089F447DE8091D3048093F100A5
:104ED0001092F100EAECF4E081918093F10064E03B
:104EE000E03DF607C9F729C0823021F434DE809115
:104EF0000B0105C0833029F52EDE80910A018093D5
:104F0000F1001BC01132E9F4893061F48091E800AE
:104F100082FFFCCF8091F1008093D2048BEF8093CD
:104F2000E8000BC08A3029F430930B011092D104B1
:104F300004C08B3031F420930A018EEF8093E80097
:104F400003C081E28093EB00FF91EF91DF91CF915D
:104F5000BF91AF919F918F917F916F915F914F9191
:104F60003F912F911F910F900FBE0F901F9018959A
:104F70001F920F920FB60F9211242F933F934F93CE
:104F80005F936F937F938F939F93AF93BF93EF93B1
:104F9000FF938091E1001092E10083FF0FC0109217
:104FA000E90091E09093EB001092EC0092E2909374
:104FB000ED0098E09093F00010925F0782FF36C0FA
:104FC00080915F07882391F18091E6049091E70436
:104FD000892B19F481E08093C90468EE7DEF86E0A7
:104FE00068DB80910B01882309F18091D0048F5FE9
:104FF0008093D0048370D1F483E08093E9008091A2
:10500000E80085FF13C08091D1048F5F8093D104A5
:1050100090910B0189130AC087E01092F100815032
:10502000E1F78AE38093E8001092D104FF91EF91B9
:10503000BF91AF919F918F917F916F915F914F91B0
:105040003F912F910F900FBE0F901F9018951F93B7
:10505000CF93DF9320915F07211102C08FEF31C002
:10506000EC011FB7F89464E070E085E022DB82E099
:105070008093E90092E08091E80085FD09C01FBFA0
:105080008091E504811114C081E08093E50419C08A
:10509000FE01CE01805C9F4F2091F10021938E177D
:1050A0009F07D1F78BE68093E8001FBF80E009C01F
:1050B00080915F07882391F21FB7F8949093E900DD
:1050C000DACFDF91CF911F910895A0E4B0E0EBE635
:1050D000F8E20C949C36CE010196B9DF811109C02B
:1050E0009A81933C39F0AE014F5F5F4F60E084ECF2
:1050F00091DD8FEFC05CDF4FE2E00C94B836CF93C8
:1051000080915F07811102C08FEF38C0CFB7F8944C
:1051100083E08093E90062E370E085E0CADA83E02F
:105120009091E80095FD0DC0CFBF90915F07992346
:1051300059F39091E50491111CC081E08093E5043E
:105140001DC08091D3048093F1001092F100EAEC2D
:10515000F4E080ED94E021912093F1008E179F07F9
:10516000D1F78AE38093E8001092D104CFBF80E0AA
:1051700005C0CFB7F8948093E900D2CFCF910895BE
:105180000F931F93CF93C82F162F88E590E00E94AE
:105190001336882331F089E590E00E941336082FFA
:1051A00001C000E01093D3041092CA04A8DF81115B
:1051B00013C010E0C80197DAC093CA04A0DF8111C0
:1051C0000BC0C80190DA1092D3041092CA0497DF82
:1051D000C82FC80188DA8C2FCF911F910F910895A5
:1051E0000F931F93CF938C0180E0F801C1918F0141
:1051F000CC2309F440C081113EC0CA3019F460E0EC
:1052000088E235C0C93019F460E08BE230C080EE2E
:105210008C0F8F3570F582E490E00E9413366C2F6E
:105220000E94E213982F907C282F2F73233079F45B
:10523000903C31F0903831F0903431F460E405C0A6
:1052400062E403C062E001C060E084E610C0903C0C
:1052500019F462E4822F0BC0903819F462E08F7762
:1052600006C0903419F460E48F7B01C060E088DFF1
:10527000BCCF8FEFBACFCF911F910F910895ECE281
:10528000F7E09C01205F3F4FDC014D91CD01419340
:10529000A217B307C9F710924C070895A0E0B0E039
:1052A000E4E5F9E20C9491368C01C0E0D0E08CE3A7
:1052B000E82E87E0F82E90E1792E20E2C22ED12C44
:1052C00030E1A32EB12C80914C0781110FC0ECE28C
:1052D000F7E081918787EE16FF06D9F76CE377E058
:1052E0008CEC96E00E94AD1B70924C0780914C07AD
:1052F00090E046018C1A9D0A8815990508F44C0126
:10530000B501681B790B645C784F482DC8018C0F80
:105310009D1F0E94A31BC80DD91D80914C078819A1
:1053200080934C07811105C060E18CE297E00E94F8
:10533000951BC032D10538F2CDB7DEB7EDE00C9445
:10534000AD36AAE0B0E0E7EAF9E20C9498361A86A6
:1053500019868091CB06882309F414C1489B0AC1A1
:10536000599888EAD1D88E010F5F1F4F7E0127E040
:10537000E20EF11C80E0C8D8F80181938F01EE168F
:10538000FF06C1F7599A1E8180915B0790915C07D7
:10539000212F012E000C330B8115FFEF9F07A8F47E
:1053A00060915A07462F062E000C550B61172CF4FE
:1053B000B901641B750BAB0102C0421B530B840F78
:1053C000951F90935C0780935B078091580790919D
:1053D0005907280F391F30935907209358072C81FC
:1053E0008091560790915707820F911D27FD9A953E
:1053F0009093570780935607209154073091550793
:105400002F5F3F4F309355072093540721153140AC
:10541000C1F58130EAE39E0734F080910C018823C6
:1054200009F4B2C007C08115964C24F480910C0198
:105430008111C6C0109257071092560780915807E5
:105440009091590797FF02C081509F4F90935A0740
:1054500080915B0790915C078130924018F0109228
:10546000530703C081E080935307109259071092AD
:105470005807109255071092540710925C0710922B
:105480005B0780915A0781171CF4181B812F01C0FC
:10549000811B90915207911118C0082E000C990B96
:1054A0002091C90630E0281739070CF063C081E06D
:1054B00080935207109251071092500710924F0795
:1054C00010924E0710924D0755C0913009F042C01E
:1054D000082E000C990B4091C90650E020914F070F
:1054E00030915007481759074CF580914D0790911E
:1054F0004E07A901481B590B4932510580F0809194
:105500005307882361F08091C806882341F01092E8
:105510004E0710924D0782E0809352075CC0309393
:105520004E0720934D078091510791E0980F90937B
:105530005107853118F082E080935207C901019626
:105540009093500780934F072D32314098F010927E
:10555000520710C0923071F480914D0790914E0720
:105560009C012F5F3F4F30934E0720934D078139A9
:10557000914068F781E020915B0730915C07213012
:10558000324048F580E027C00091C70684E0809350
:105590000C0188EC0E948D1E81EA0E948D1E802FD6
:1055A00090E0089668E270E00E9473368093C70628
:1055B0000E94AE1E0093C7061092CA0660E006C0A5
:1055C0000E94C91F81E08093CA0661E08AE590E0ED
:1055D0000E9429362FCF2A96E6E00C94B4360F931A
:1055E0001F93CF93DF938C0161111FC0DC01EC91FD
:1055F0008FE98E0F8A31A0F4F0E0EE0FFF1FE35B1E
:10560000FA4FC081D1812097C1F4E82FEE0FFF0B34
:10561000E15FF94FC081D181209779F48150A8F7DB
:10562000C0918305D091840503C00E94F511EC015F
:10563000209719F480E090E016C0BE0183E496E064
:105640000E94EC124FE350E06BE476E0C8010E9448
:10565000FF36882339F087FDEDCFC0914706D09102
:105660004806E6CFCE01DF91CF911F910F910895AB
:10567000A1E5B0E0EEE3FBE20C949A36082FCE01F0
:1056800001960E943019AE014F5A5F4FBE016F5B09
:105690007F4FCE0101960E946F0C811162C080E69F
:1056A00090E00E9413368823D1F00023C1F04EE130
:1056B00050E063E270E0CE0181960E94033642E042
:1056C00050E06EEF73E0CE01CF960E94033648E4BF
:1056D000BE016F5B7F4FCE0181960E9475170E94BD
:1056E0004111882319F08EE40E946D0D0E94021171
:1056F000182F811138C0AE014F5F5F4F68E188E31A
:105700000E94061980E690E00E9413368823D1F0AB
:105710000023C1F04EE150E063E270E0CE018196DB
:105720000E94033642E050E06EEF73E0CE01CF9668
:105730000E94033649E4BE016F5F7F4FCE01819620
:105740000E94751762968FAD62970E94FB0BBE0197
:105750006F5B7F4FCE0101960E94360C0E94680C51
:1057600003C011E001C01FEF812FCF5ADF4FE4E0EB
:105770000C94B636ACE0B0E0E0ECFBE20C948C3676
:10578000009709F40DC1162FBC0183E496E00E9436
:10579000EC12E0904906F0904A06E114F10421F47D
:1057A0008AE30E946D0DFCC0B70182EF94E00E9475
:1057B000CE128091F6049091F704892BD9F48BE4F2
:1057C00096E09A83898387E10E940D149C838B83E2
:1057D00087E195E09E838D83113051F0BE016F5FAC
:1057E0007F4F83EF0E94950F882311F0E12CF12C5D
:1057F000C701E3C03E2C2F2C412C4394632D722D06
:1058000082EF94E00E94CE128091F6049091F7040A
:10581000009719F0382E292EF0CF0E945B0D0E94C0
:10582000F10D64EF71E082E00E9459238701552455
:105830005394BB24B394CE0101966C01642C712C5B
:105840008FE1882E912CB11007C08091DC0481116A
:105850006DC00E94DD0D02C00E94D50D64EF71E0A5
:1058600082E00E9459230E94821EF6018AE0119272
:105870008A95E9F781E40E940D145C01EBE4F6E0FF
:1058800001900020E9F7CF018C5496409C878B87CC
:105890006091790570E0655B794F80E057D99B8511
:1058A000981B909376054AE0B601852D90E00E9402
:1058B000D035F60101900020E9F731978FE280831F
:1058C000F60101900020E9F7BF01615071094AE03B
:1058D000C3010E94D035F50101900020E9F731970E
:1058E000EA19FB09A4014E1B5F0BB601C5010E941A
:1058F000EF36B5018AE02AD9B80182EF94E00E9420
:10590000CE12E7E1F5E001900020E9F7CF018851E0
:1059100095405C0160917A0570E0695E7A4F85E19F
:1059200015D9A81AA09277050E94AE1E60E080E00B
:105930000E94200E833011F1823071F40091F40442
:105940001091F5040115110511F4032D122D91E0AC
:105950005916C1F05A941AC0813061F40091F604CE
:105960001091F7040115110509F48701541461F031
:1059700053940CC08430A1F0A12C02C0AA24A3949B
:10598000B12C07C0542C02C055245394A12CBB2425
:10599000B3948091D904811106C081E08093D90429
:1059A00080E090E00AC0DCD88823D1F38EDB882326
:1059B000B9F3AA2009F447CFC8012C96E2E10C9470
:1059C000A836A8E0B0E0E7EEFCE20C949C36009725
:1059D00009F472C0BC0182EF94E00E94CE128BE405
:1059E00096E09A838983809117058823B1F180918D
:1059F0005F07882309F182E10E940D149C838B8349
:105A0000BE016F5F7F4F82E00E94950F811110C031
:105A100087E195E0E5DB84E590E00E94133688237A
:105A2000E1F085E590E00E94133660E0A9DB15C047
:105A3000823099F482E065C08AE20E940D149C8352
:105A40008B83BE016F5F7F4F82E00E94950F8111B3
:105A5000EFCF87E195E00E94990E64E175E086E55D
:105A600095E00E94E2151092750580915F078823EA
:105A700049F183E10E940D149C838B83BE016F5F0B
:105A80007F4F82E00E94950F811118C086E595E056
:105A9000A7DB80E2E6E5F5E0DF011D928A95E9F7F4
:105AA00086E590E00E941336882331F087E590E088
:105AB0000E94133660E064DB80E023C08230D9F0BE
:105AC0008FEF1FC08BE20E940D149C838B83BE015D
:105AD0006F5F7F4F82E00E94950F8111EFCF86E5C7
