:10000000DBC10000F6C10000F4C10000F2C1000035
:10001000F0C10000EEC10000ECC10000EAC1000028
:10002000E8C10000E6C100000C94E7270C945E26AE
:100030000C94FB23DEC10000DCC10000DAC100002B
:10004000D8C100000C949521D4C10000D2C1000099
:10005000D0C10000CEC10000CCC10000CAC1000068
:10006000C8C10000C6C10000C4C10000C2C1000078
:10007000C0C10000BEC10000BCC10000BAC1000088
:10008000B8C10000B6C10000B4C10000B2C1000098
:10009000B0C10000AEC10000ACC10000AAC10000A8
:1000A000A8C10000A6C10000A4C10000A002A702D0
:1000B000B702D702E60200030B04A904AF04770BD2
:1000C000770B370A220694074C089308BB08F808F8
:1000D00017099B09770BE209090A2B09770B770BA4
:1000E000420A770B520AD102B104B804C3050409CD
:1000F000770B770B88062607AD06A1064306C106D7
:10010000F006E806FA060607770B57064D06DD06E9
:1001100073061A06F5020A067D0AB403840A910AD8
:10012000033107318A3272338233A3337833283470
:10013000B70DB70DB70DB70DB70DB70DB70DB70D9F
:10014000BC0DB20DB20DB50DBE0DC00D01AE02D588
:10015000F002A81F02D300014002AD8E02D80501B3
:10016000A101C802200002DA1205913F3F3F3F0281
:10017000818002D9C202DB0801A401A6920F003CD3
:100180000600730000002121210101010F01012B54
:10019000002800050080FF0008010000637C777BD9
:1001A000F26B6FC53001672BFED7AB76CA82C97D73
:1001B000FA5947F0ADD4A2AF9CA472C0B7FD932604
:1001C000363FF7CC34A5E5F171D8311504C723C308
:1001D0001896059A071280E2EB27B27509832C1A4C
:1001E0001B6E5AA0523BD6B329E32F8453D100EDA6
:1001F00020FCB15B6ACBBE394A4C58CFD0EFAAFB8A
:10020000434D338545F9027F503C9FA851A3408F51
:10021000929D38F5BCB6DA2110FFF3D2CD0C13EC69
:100220005F974417C4A77E3D645D197360814FDCFE
:10023000222A908846EEB814DE5E0BDBE0323A0AE2
:100240004906245CC2D3AC629195E479E7C8376D66
:100250008DD54EA96C56F4EA657AAE08BA78252E8B
:100260001CA6B4C6E8DD741F4BBD8B8A703EB56614
:100270004803F60E613557B986C11D9EE1F8981105
:1002800069D98E949B1E87E9CE5528DF8CA1890DF4
:10029000BFE6426841992D0FB054BB1616034D00BE
:1002A0006F006F006C0074006900700061007300E3
:1002B0007300000006035300450000000403090416
:1002C00005010906A10175019508050719E029E74F
:1002D00015002501810295017508810395057501B9
:1002E00005081901290591029501750391039506E9
:1002F0007508150025FF0507190029E78100C006CC
:1003000031FF0A7400A1017508150026FF00954011
:1003100009018102954009029102C00902420002CE
:1003200001008032090400000203000000092111CD
:10033000010001221C00070502034000010705819E
:10034000034000010904010001030101000921111A
:10035000010001223F00070583030800011201008C
:100360000200000020D016A00900010102000101D6
:10037000C13601C03601C10600000100005D031254
:10038000000200001B034200220000FF021C0021AB
:1003900000002D030900220100C0023F00210100DE
:1003A0004D030900030000BC020401030904B40268
:1003B00006020309049C021611241FBECFEFDAE0E7
:1003C000DEBFCDBF11E0A0E0B1E0E4E8FEE602C090
:1003D00005900D92AA34B107D9F727E0AAE4B1E05D
:1003E00001C01D92A036B207E1F70E94FF2D0C94C8
:1003F000403706CEAEEDB0E0E0E0F2E00C94C5365A
:10040000182F7E0125E8E20EF11CC7010E94562834
:1004100081110C94770BC252DF4F1882CE5DD04011
:10042000D7011196DC90113019F0B9EBDB1222C024
:1004300019820E94DF258F3F19F4898181608983A9
:10044000113019F489818260898380915E01813045
:1004500019F4898184608983809100018C3019F4BA
:10046000898188608983AE014F5F5F4F61E089EBCE
:100470000C94500BF7011081F3EADF1611F40C9481
:100480006B0B29EAD21611F40C946B0B82E48D0DE0
:10049000823010F40C946B0B36EAD31699F089E590
:1004A0008D0D823010F40C946E0B86EBD81651F043
:1004B00097EBD91611F40C94710BA8EDDA1223C046
:1004C0000C94740B0EE3011730F1112321F1602F0E
:1004D00070E05701B2E0AB0EB11CC5010E94F835C7
:1004E000212F30E0019628173907A9F40A3359F46F
:1004F000D5018C91882339F090E00E94F636F50101
:1005000081935F01F5CF8BE38D0D803158F480919D
:100510006001811107C0AE0142525F4F61E08D2D35
:100520000C94500B8D2D90E0FC01E15AF109EA3357
:10053000F10510F00C94770BEA5AFF4F0C94B93682
:1005400046E0B70180E00E94E4250C94770B8BE035
:10055000E5E2F1E0DE01119601900D928A95E1F756
:10056000AE014F5F5F4F6BE082EA0C94500B8091BD
:100570006001813011F40E94722080915E0181300F
:1005800011F083E008C060E0C70102960E94861562
:10059000811112C781E0C252DF4F8883CE5DD04007
:1005A000BACF80915E01813061F761E0EDCFC70184
:1005B0000E946914811100C7F70101900020E9F73A
:1005C0006E2F6E19A70184EA0C94500BC7010E948C
:1005D0003B168111F1C6F70101900020E9F76E2F5B
:1005E0006E19A70185EA0C94500B80914D01813062
:1005F00009F0E2C68091DF04882309F4DDC6A1C7B3
:1006000080914D01882309F4D7C610924E011092B3
:100610004A0160E070E083E00E9488235701B2E065
:10062000AB0EB11CB5018091590190915A010E9405
:10063000000C90934C0180934B01892B21F081E0B9
:1006400080934E01A7CF8BE496E090935201809364
:1006500051018AE10E943C1490935401809353010C
:10066000B0925601A092550161E571E083E00E94CD
:10067000C40F882311F01FEF72C00E94A40D84E8FC
:10068000E2EFF4E0DF011D928A95E9F764E175E09D
:1006900086E595E00E94B915412F50E0B50187E14C
:1006A00095E00E940B3784E20E943C14BC0188EF65
:1006B00094E00E941B37A0905901B0905A0180919C
:1006C000F2049091F3049F7390649093F3048093E9
:1006D000F20480915C0190915D01909311058093EB
:1006E00010059093130580931205B5018BE895E0F2
:1006F0000E94F01280909105909092050FE325E200
:10070000AE014F5F5F4FB40182EF94E00E94C520BD
:100710008111B1CF89819A818816990681F0B5013E
:100720008BE895E00E94F01289819A81909392055E
:10073000809391056BE875E0C5010E94A812B7018E
:100740006E5F7F4FC5010E94000C90934C01809317
:100750004B0181E080934A0180934E0110E00E949A
:10076000A60D111129C616CF80914E01882309F4D8
:1007700023C680914D01882309F41EC6609159015A
:1007800070915A0183E496E00E941B1360914B0123
:1007900070914C0182EF94E00E94FD1280914A0119
:1007A00081111CC08BE496E090935201809351011B
:1007B0008AE40E943C14909354018093530187E192
:1007C00095E0909356018093550161E571E083E0D7
:1007D0000E94C40F8111EFC50E94A60D00914B012C
:1007E00010914C01B80182EF94E00E94FD1288E163
:1007F000F7013296A8EFB4E001900D928A95E1F7E7
:1008000062EF74E0C8010E94A812B80182EF94E080
:100810000E94FD12BFCE80914E01882309F4CCC501
:1008200080914D01882309F4C7C5609159017091E9
:100830005A0183E496E00E941B1360914B01709172
:100840004C0182EF94E00E94FD1260E2611BC7013F
:100850000296810F911D0E94B2238BE496E0909343
:100860005201809351018BE10E943C1490935401FA
:100870008093530187E195E0909356018093550151
:1008800080914A01813039F480914A0181110BC075
:100890000E94A60D08C061E571E083E00E94C40FCC
:1008A000882391F388C510924A01B2E0EB0EF11C47
:1008B000BE016F5F7F4FC7010E94B91500914B01C8
:1008C00010914C01B80182EF94E00E94FD128091DA
:1008D0005C0190915D0190931105809310059093B8
:1008E00013058093120580E2F701A6E5B5E00190BB
:1008F0000D928A95E1F789819A81AB8180931405E5
:1009000090931505A093160562EF74E0C8010E944C
:10091000A812B80182EF94E00E94FD1280917D053B
:10092000811138CECE018B539F4F0E94C911CB53FA
:10093000DF4F8881C55CD0408F5FCB53DF4F88830A
:10094000C55CD04081E080937D05CE018B539F4FE5
:1009500076C18091E204882309F40EC6B9C640E04E
:1009600001C041E0612FC70102960E94021510CE1E
:10097000F701028180915B01882309F41DC58091F4
:100980005001811160C08091490690914A06892BDF
:1009900011F08DE401C084E30E943C149093520155
:1009A000809351018BE496E090935401809353011E
:1009B00061E571E082E00E94C40F811142C0A09005
:1009C0004906B0904A06A114B104C9F0B50182EFFE
:1009D00094E00E94F0129090F404C090F50444E872
:1009E00050E06FEF70E082EF94E00E94143762EF06
:1009F00074E0C5010E94A812A92CBC2CE4CF84E8A5
:100A0000E2EFF4E0DF011D928A95E9F7CC24C3946C
:100A1000C0924F0110926201C09250011092610188
:100A200080917C0581110DC0CE0101960E94C911F3
:100A30008A818F5F8A83C0927C05CE0101960E94D5
:100A4000D6110E94A60D80915001882309F4B4C4E8
:100A5000C09061018C2D90E08A509B4FF701339636
:100A600020E2DC0101900D922A95E1F7BE016B5363
:100A70007F4F0E94B915C1100DC0CB53DF4F888145
:100A80009981AA81C55CD0408093C4069093C50625
:100A9000A093C60680E28C0D80936101803819F026
:100AA000002309F46CC090E09093F3048093F20467
:100AB000C0904F01E0905901F0905A0120E040E0D1
:100AC00050E0BE016F5F7F4F82E00E940F208230B6
:100AD00009F072C4B1E0CB121BC0B7018BE895E0FE
:100AE0000E94F01246E050E063E476E08BE895E087
:100AF0000E94FE36892B09F05FC489819A81909308
:100B00004A068093490663E476E0C7010E94A81272
:100B10008091F2049091F304907E20917E05922BB7
:100B20009F71906C9093F3048093F204011106C0BE
:100B30008B819C819093F5048093F40462EF74E0C0
:100B400089819A810E94A8128B819C8190938A0549
:100B50008093890584E8E2EFF4E0DF011D928A9535
:100B6000E9F710924F0110926101002341F081E0FA
:100B700090E090934A0680934906109250011132FA
:100B800009F01AC407CD80915B01882309F414C4CD
:100B90008091DF04811138C06091590170915A0130
:100BA00083E496E00E941B138091C4069091C506D1
:100BB000A091C6068093650190936601A09367019A
:100BC0008091490690914A06909364018093630155
:100BD00085E30E943C1490935201809351018BE471
:100BE00096E0909354018093530161E571E082E0B7
:100BF0000E94C40F811107C068EE73E083E00E9479
:100C0000882310926201A2D78091DF04882309F41F
:100C1000D3C3E9C420915E01213019F0D7011C92A1
:100C200005C0F7012193CF010E94C911A70163E01C
:100C300086ED36C5123009F0BFC3C70102960E9487
:100C4000D611A8CC10915E01113009F064CC81E27C
:100C50000E943C14BC0181EF0E94C40F811169C342
:100C60000E94B61381110BC088E080930001C2522C
:100C7000DF4F1883CE5DD040109360015AC38AE0E5
:100C80008093000156C30E943F129A838983AE016C
:100C90004F5F5F4F62E089EC03C50E9424129A8384
:100CA0008983AE014F5F5F4F62E081EDF9C412307E
:100CB00009F082C3D70112964D915C911397242FAE
:100CC000277063E0569547956A95E1F7BE016F5F1F
:100CD0007F4F8FE10E940F20682F660FAE014F5F9C
:100CE0005F4F80EDDDC481E080930001C252DF4F91
:100CF0008883CE5DD04010926E0110926D011092EB
:100D0000600124D79DD70E9472200E945C2003CCF2
:100D1000123009F051C3F701828193810E94B81209
:100D200081114AC3D70112966D917C911397CE0120
:100D300001960E94F012AE014F5F5F4F64E885ECB0
:100D4000AFC4153009F038C3F7014581568163817E
:100D5000748182810E94FD111DCC113009F02CC3D9
:100D6000AE014D5F5F4FBE016F5F7F4FD70112969F
:100D70008C910E942513AE014F5F5F4F64E087ECBA
:100D80008FC4123009F018C3F701828193819A83CE
:100D90008983909384058093830560918105709188
:100DA00082059E012F5F3F4F42E050E080917F051A
:100DB000909180050E945B23EDCB123009F0FCC2BC
:100DC000D70112968D919C9113970E945812E2CBF5
:100DD000133009F0F1C2C70102960E94F011DACB7C
:100DE000CE0101960E94E311AE014F5F5F4F63E0B9
:100DF0008BEC56C4183109F0DFC2B701665F7F4F34
:100E000040917E05C7010296D4D5C2CBF0907E05F5
:100E100003E610E0C8010E944636F81210C048E10F
:100E200050E0B8016F5F7F4FCE0101960E943636C9
:100E3000AE014F5F5F4F68E18FEC0E943926075E7D
:100E40001F4F073EB3E01B0729F7A4CB133008F46C
:100E5000B3C2F7018481811116C0828193810E94FF
:100E6000B812811110C0D70112968D919C911397E1
:100E700090936E0180936D0133E0969587953A9536
:100E8000E1F70E943D23F701A280B38080916D01BC
:100E900090916E01A816B90609F08EC2A114B10492
:100EA00009F48AC22481FBE32F9FC0011124412F42
:100EB00050E043505109BC01640F751F653871053E
:100EC0000CF07AC221110DC0D70115962D913C91DD
:100ED0001697307E60917E05362B16963C932E93A6
:100EE00015972A2D2770B4E82B9F800D911D112492
:100EF00024E829831A829B838C83B7016B5F7F4F21
:100F0000CE0101960E94C9220E94C022F70184816D
:100F1000823009F03FCBC50123E0969587952A954D
:100F2000E1F70E94DF3536CB88E090E090936C01CA
:100F300080936B0110926A011092690182E690E041
:100F40000E944636C82E82E090E00E944636B82EB7
:100F500080ED97E00E94A223103109F02DC280910C
:100F600000018B3031F0FBEABF1203C02DECC2123E
:100F700023C280E30E943C14CB52DF4F99838883C5
:100F8000C55DD04081E30E943C14C952DF4F998374
:100F90008883C75DD0408E010B531F4F80E1D8017D
:100FA0001D928A95E9F760E271E0C8010E941B3743
:100FB00046E050E068EF73E0C80104960E943636C0
:100FC0004EE150E063E270E0CE0101960E943636B9
:100FD00042E050E06EEF73E0CE014F960E9436364D
:100FE000B801CE0101960E947C17F801D701129634
:100FF000B7016E5E7F4F80E021919D919227892BF2
:10100000A617B707C9F790E1F80111929A95E9F789
:10101000FBEABF16C1F00E94B11E0E94DD1E81E0F6
:10102000C252DF4F8883CE5DD0408093680144E098
:1010300050E061E470E080E291E00E9453362BEAD8
:10104000B21269CA15C03DECC31629F3811171C1F2
:10105000BE016B527F4F82E097D781116AC18BE44A
:101060000E943C14BC0181E08FD78823A1F261C1AA
:101070008DECC81609F44FCA8DE08093000166D547
:1010800060ED70ED80E090E00E946A3660E67AEEF6
:1010900087E00E9488233FCA809168018823B1F0CD
:1010A000A0906B01B0906C019FEFA916B10409F0FC
:1010B00068F4412F50E08091690190916A018A01A2
:1010C000080F191F0930A1E01A0740F0C252DF4F84
:1010D0001882CE5DD040109268011DCA24E8298391
:1010E0001A829B838C83B7016E5F7F4FCE0101967E
:1010F0000E94C9220E94C02210936A0100936901D4
:101100000830B1E01B0709F045CAC5010E94DF3570
:1011100010926A0110926901C501019690936C01C9
:1011200080936B0137CA80916801813061F48091AE
:10113000690190916A01892B31F080916B01909146
:101140006C010E94DF3581E0C252DF4F8883CE5DA3
:10115000D0401092680182E090E00E9446368B3ABF
:1011600009F0D9C982E690E00E9446368D3C09F428
:10117000D2C90E948721123009F01EC1F701828175
:101180008C3121F40E94DF25811116C1D7011296FE
:101190008C911297813238F490E013966C918F5BAA
:1011A0009F4F0E945C3684E490E00E944636809314
:1011B0005F0181E0C252DF4F8883CE5DD0408BE576
:1011C00090E00E94463691E899838A8362E0CE01DE
:1011D00001960E94C91E8EE590E00E9446368093DB
:1011E000C9068DE590E00E9446368093C80693C9F3
:1011F000F7018281813230F490E08F5B9F4F0E9433
:101200004636C9C980E0C7C9809100018C3029F0F9
:1012100080915E01813009F0CFC0CE0101960E941D
:101220005F19AE014F5F5F4F68E082EC39C2809179
:1012300000018C3009F0C0C003D50E94311181112A
:1012400073C00E94B01A81E0C252DF4F8883CE5D26
:10125000D0408BE015CD183109F0AEC0809100016F
:101260008C3009F0A9C0CE0101960E945F19E8D424
:1012700048E050E0B7016E5F7F4FCE0101960E94BB
:10128000FE36892B09F050C00E94701181114CC0AC
:10129000E8D7811149C0BE016B527F4FCE01835206
:1012A0009F4FC6D38F3F09F43FC0C352DF4F8881A1
:1012B000CD5DD0400E947512C352DF4F8881CD5D55
:1012C000D040C8D2CE018B539F4F0E945F19C352AA
:1012D000DF4F4881CD5DD040B701665F7F4FCE01C3
:1012E0008B539F4F66D391E0811101C090E0911123
:1012F0001BC0AE014F5F5F4F68E188E30E94351964
:10130000C352DF4F8881CD5DD040A4D2B701665F64
:101310007F4FCE010196D9D20AD381E0C252DF4F6E
:101320008883CE5DD040ACCCC252DF4F1882CE5DF8
:10133000D0400CD4F0C880915E01813021F08091C2
:1013400000018C30C9F586E20E943C14BC0181E0AA
:101350001BD6811130C080915E01813049F5F6D3F2
:10136000AE014F5F5F4F6EE58CE90E943519AE010B
:101370004F5F5F4F6EE384EB0E943926AE014F5FF3
:101380005F4F68E386E50E943519AE014F5F5F4FFE
:101390006EE384EB0E943926809100018C3009F0C5
:1013A000A6C10E949A130E94AF230E94F91A9FC1FE
:1013B00058D78823A1F2CAD3C252DF4F1882CE5D1C
:1013C000D040A9C800915E010130B1F787E20E94C8
:1013D0003C14BC0181E0D8D58111A6CFAE014F5F8E
:1013E0005F4F6CE58CE90E94351980E00E94841AF9
:1013F000412F50E0B7016E5F7F4FCE0103960E94F0
:101400000B37AE014F5F5F4F60E072E080EE92E01D
:1014100026C000915E01013079F688E20E943C14FA
:10142000BC0181E0B1D581117FCFAE014F5F5F4F2D
:1014300066E186E50E94351981E00E94841A412FF9
:1014400050E0B7016E5F7F4FCE0183960E940B374D
:10145000AE014F5F5F4F60E072E080EB90E00E9472
:101460006F19C252DF4F0883CE5DD04062CF60E279
:10147000CE0101960E94B223AE014F5F5F4F60E242
:101480008CEA0EC181E0C252DF4F8883CE5DD0402E
:10149000D70112968D919C91139790935D01809343
:1014A0005C0139C8103109F087CF87EE93E00E94C4
:1014B00046368B3B09F080CF40E150E068EE73E0A8
:1014C000CE0101960E94363668EE73E083E00E94FA
:1014D0008823B7016E5F7F4F40E150E0CE01019657
:1014E0000E94FE36CB53DF4F8883C55CD04080918D
:1014F000DF04882309F4D7C0FACFBE0162527F4FC0
:10150000C701029695D207C880915E01813009F02B
:1015100053CF8AE08093000119D30E949A130C9450
:101520008B0224E030E04CE75FE760E070E0CE0142
:1015300001960E94F62DAE014F5F5F4F64E08AED89
:10154000AFC080914E01813009F036CF60914B01E0
:1015500070914C0182EF94E00E94FD1268EF74E0FC
:10156000C7010E941B37F70101900020E9F76E2F99
:101570006E19A70185ED94C080914E01882309F46E
:101580001BCF80914D01882309F416CF60914B0148
:1015900070914C0182EF94E00E94FD1264E175E0CD
:1015A00086E595E00E941116B7016E5F7F4F40E21D
:1015B00050E086E595E00E943237892B49F480E2BD
:1015C000E6E5F5E0DF011D928A95E9F70C94CA0281
:1015D00080E2E6E5F5E0DF011D928A95E9F760EA31
:1015E0007FE084E00EC010916201111126C060916D
:1015F0006301709164016115710531F460E070E080
:1016000083E00E948823D8CE82EF94E0E9D78091CE
:10161000F4049091F50490936401809363018091A8
:10162000F2049091F30488279072892F992782956C
:1016300086958770813009F4BFCE812F90E0FC0140
:10164000EA50FB4F6F0165E671E0CF010E94111671
:1016500068EE73E083E00E94882363E085E691E012
:101660000E94C41B63E085E691E00E94C41B80E2F7
:10167000F601D70101900D928A95E1F7105E109363
:101680006201812F90E02091F2043091F30433271E
:101690008217930710F010926201A70160E281ECBB
:1016A0000E94392624C0CB53DF4F8881C55CD040CF
:1016B000811182CE46E050E068EF73E0CE010196E2
:1016C0000E943636AE014F5F5F4F66E08DEBE8CF8C
:1016D00082E00C94CB020AE30C94630200E20C94C7
:1016E00063020EE10C94630208E10C946302C2529F
:1016F000DF4FECE00C94E136CF93DF93EC010E94D6
:10170000B11EBE018AE00E94D5250E94DD1EDF9138
:10171000CF910895A1E0B0E0E0E9FBE00C94C83679
:101720008C01F62EE42E80E289830E94B11E46E0F1
:101730004F0D20E060E08EE30E944F1F8EE3809308
:10174000090181E0809352048E2D0E943C14BC015B
:1017500085E00E94D5251092520480E8809309010B
:1017600082E00E94961E81E1F89E802D1124805C0B
:1017700080935E0786E080935D07CF2CD12CF80123
:10178000EC0DFD1D80818A3010F0895C01C0805D08
:10179000898389810E949C2480E4E82E00E010E087
:1017A00096E0B92E8FEFC81AD80AE0925E07B09281
:1017B0005D07C016D10629F083E0F81207C0023099
:1017C00029F48FE00E94961E898106C0F01631F040
:1017D00082E00E94961E8AE20E949C240F5F1F4FA7
:1017E00081E1E80E0430110501F781E00E94961EA8
:1017F0000E94DD1E80E289832196E9E00C94E436A4
:101800000F931F93CF93DF938B01BC0183E496E08A
:1018100012D7C0914906D0914A06209719F480E06A
:1018200090E013C0BE0182EF94E0E7D64FE350E0B2
:10183000B80187E195E00E943237892B29F0C091E9
:10184000F604D091F704E9CFCE01DF91CF911F913B
:101850000F910895CF93803108F0FFCFC82F869560
:10186000869590E09093800580937F058C2F837000
:1018700022E4829FC0011124909382058093810508
:10188000E3D59093860580938505F9D590938405DB
:1018900080938305C0937E0510927C0510927D0590
:1018A00020E040E050E069E875E081E00E940F2010
:1018B000811104C010928A05109289050E9472203D
:1018C00088E791E080D5CF910895CF93DF93EC0125
:1018D00080E1FB01ABE7B1E001900D928A95E1F761
:1018E000BE018CEC96E00E949B1C8BE791E00E946D
:1018F0006E2980E2FE0111928A95E9F7DF91CF917E
:10190000089510924D0110924E0110924A011092CA
:10191000600110925B011092500160E070E083E082
:101920000E94882310925E0110924F0108958FB794
:10193000F89491E090935E018FBF0895A8E0B0E025
:10194000E4EAFCE00C94C7367C016B015A0100E02C
:1019500010E0C8018D599F4F0E944636F5018083E3
:101960008031E0F448E050E0B8016C597F4FCE017F
:1019700001960E94363648E050E0B701CE0101964C
:101980000E94FE36892B51F4B80164597F4F40E123
:1019900050E0C6010E94363680E007C0075E1F4F48
:1019A0000438F3E01F07A9F68FEF2896EAE00C94BD
:1019B000E336A1E1B0E0EFEDFCE00C94C6367C012B
:1019C0005B01942E00E010E0680183E6C80ED11C94
:1019D000C6010E944636803140F4075E1F4F04382E
:1019E00083E0180789F78FEF1FC0AE014F5E5F4F8E
:1019F000BE016F5F7F4FC701A1DF8F3FA1F7692D48
:101A0000C6010E945C36B8016C597F4F48E050E037
:101A1000C7010E945336B80164597F4F40E150E03E
:101A2000C5010E94533680E06196EBE00C94E236EB
:101A3000A0E1B0E0EEE1FDE00C94C6366C015B0184
:101A40008E010F5F1F4F80E1F80111928A95E9F72F
:101A500083E6E82EF12C99249394C7010E94463620
:101A6000803120F4F801E80FF11D9082F9E1EF0ECA
:101A7000F11C87EEE81683E0F80679F7F50110828D
:101A80009E012F5E3F4FD8018D91811104C0F50159
:101A900080818F5F8083A217B307B1F780E0F801E0
:101AA00091918F01911104C0F601808380E004C000
:101AB0008F5F8031A1F78FEF6096EBE00C94E236F8
:101AC0001F93CF93DF93182FC3E6D0E0CE010E947F
:101AD0004636811304C06FEFCE010E945C366996D2
:101AE000C73E83E0D80791F7DF91CF911F9108950A
:101AF000CF93DF93C2E4D0E0FE01E65CFE4F649139
:101B0000CE010E945C362196C236D105A9F7DF913D
:101B1000CF9108958FB7F8941092720110925804E3
:101B200010925A04109256041092550410925704C1
:101B3000109259048FBF08959FD6DEDD80ED97E0A7
:101B40000C94A22399D6D8CD80E0FCCF409100011F
:101B5000842F90E08E309105C8F4FC01E856FF4FC9
:101B60000C94B93621E040E00DC083E008C0440F7A
:101B7000440F405C21E006C082E201C08BE0E2CF6E
:101B800023E04EE060E080E00C944F1F0895A6E053
:101B9000B0E0EDECFDE00C94CB36209112013091D9
:101BA00013014091140129833A834B83209115013D
:101BB00030911601409117012C833D834E83FB0128
:101BC00001900020E9F731977F01E61AF70A082F04
:101BD00010E0F801E758FA4F80819B01280F311D72
:101BE000DE01A00FB11FFD0141E014966C918181CF
:101BF0000E946825F801EA58FA4F9E2D981B9083A1
:101C00002696E6E00C94E73683E0E9E7F5E0DF01AD
:101C10001D928A95E9F70895A6E7B5E0E9E7F5E0B2
:101C20009D91992339F08081981719F08F5F8083F7
:101C300001C01082319685E0EC37F80789F70895E6
:101C400060E67AEE80E00E94882385E490E00E94BE
:101C50004636682F70E089E00E94882383E490E094
:101C60000E9446368A3120F4873018F487E001C09C
:101C700089E1782F770F770F60E081E00E94882359
:101C800080917001811104C00E94C11E0E94AF2387
:101C900080917301813011F4109273010895CF93F4
:101CA00090E021E0611102C09091590430915704F5
:101CB000323029F43FB7F894209357043FBF309156
:101CC0005704333051F0911108C0409155045091A0
:101CD0005604493E534008F453C03FB7F89440912E
:101CE000550450915604493E534020F040917701ED
:101CF0004423E9F040915704433051F4911119C045
:101D0000409177014423B9F010927701C7E01AC0DF
:101D100040915704413029F419167CF0992349F079
:101D20000EC0191674F0C1E091110CC002C0C4E0DD
:101D300009C0C0E007C0C3E005C0C6E003C0C5E0FD
:101D400001C0C2E010925604109255044BEF4C0FA4
:101D5000423018F42093770103C0C1111092570448
:101D6000611102C0109259043FBF882329F0CC238F
:101D700009F498CF65DF07C0C111FCCFC0E003C0F4
:101D8000811190CFFBCFC09372018C2FCF9108951A
:101D900021E020935204B0DC1092520460E080E015
:101DA0007EDF8823D9F30895A4E0B0E0EAEDFEE0F9
:101DB0000C94C2366C01962E81E690E00E94463665
:101DC000882ECE0101967C01811006C084E0F701C7
:101DD00011928A95E9F70DC064E00E94B223F701E1
:101DE0009E012B5F3F4F80818F7081932E173F079D
:101DF000D1F790DE492D60E0C7018CDC10E00FEFD9
:101E000030E1732E66246A9481E00E94FA0160E05A
:101E100080E045DFB82E8FEF8B0D823010F5812FDB
:101E200090E0F701E80FF91F20812F3029F421E01D
:101E3000B2120DC0608282C0211105C042E0B4120E
:101E40007DC0708204C0E1E0BE1609F477C0F701DE
:101E5000E80FF91F808181508083492D612FC701D0
:101E600059DC0E94DF25882339F08091D904811143
:101E700007C081E08093D904552453940FEF01C02B
:101E8000512CF4E0BF1228C0112311F1A12EB12C66
:101E90001150811009C0F701EA0DFB1D1082F701F6
:101EA000E10FF11D108222C0C501019762E08E0D85
:101EB0009F1D0E94B223F701EA0DFB1D80818F70E8
:101EC0008083F701E10FF11D80818F7080830EC048
:101ED000552453940FEF0AC023E0B2120BC0133005
:101EE00010F41F5F03C05524539400E0492D612F67
:101EF000C70110DC552009F487CF898190E0982F25
:101F000088279295907F2A81922B2C81822B2B817E
:101F100040E1249F90011124822B932BF6019183A1
:101F2000808384E0F70111928A95E9F781E00E94AD
:101F3000961E802F2496EFE00C94DE36F701E80F12
:101F4000F91F80818F5F88CFA2E0B0E0EAEAFFE06E
:101F50000C94CD368C0128DF882311F08FEF10C050
:101F600066E1CE01019620DF8111F8CFF8012081D2
:101F7000318181E049815A814217530709F480E099
:101F80002296E4E00C94E936ADE0B0E0EAECFFE044
:101F90000C94BF36182F262E772E807F69F01F7085
:101FA0008FE490E00E94463691E09A87811101C04B
:101FB0001A86E1E0EB8702C01A861B861F8218860C
:101FC00019860E94B11E81E78093090120E043E059
:101FD00060E00E944F1F113031F4622D772D8AE0AE
:101FE0000E94D52531C0123029F485E0898380E133
:101FF0008A8307C019828AE08A8385E18B83123045
:1020000018F1822C972CCE0101965C012E0194E0F0
:10201000490E511C6501F401619171914F01FB0161
:1020200001900020E9F731977F01E61AF70AF601DF
:1020300081916F010E94D525E81AF201E1922F01EA
:102040008C2D8A19811738F30E94DD1E80E8809359
:102050000901F6DD5FDD64EF71E082E00E94882314
:1020600064EF71E088E00E94882355245394312C5A
:102070004E01F7E08F0E911C8091D9048111B4C0FC
:1020800081E08093D9040FEF0E949428811101C050
:102090000FEF8091EE04811119C091E09093EE044E
:1020A000EA85E13099F4F3E0F31580F0FF24F3942E
:1020B000F30C30FE02C086EA01C087EA0E94BC1E13
:1020C00064EF71E088E00E9488233F2C61E080E0AB
:1020D000E6DD833021F0843019F403E001C002E032
:1020E0000E94D029823019F48B85811102E0809101
:1020F000DC0481114AC0123008F447C00E94B11EAE
:1021000064EF71E082E00E94882391E790930901D7
:1021100020E0511071C044E060E081E70E944F1F51
:10212000FE013496FD87EC87C22CD72CCE01019698
:102130005C017401EC85FD854190FD87EC874420AE
:1021400009F45FC0F7016080F60160817181660D5E
:10215000711DF50180810E94D525461409F44EC0F9
:102160006394F7016082FFEFEF1AFF0A82E0C80E66
:10217000D11C9FEFA91AB90A8E2D88198117D0F2A8
:102180000E94DD1EE0E8E093090180915904882354
:10219000C1F056DD9FB7F89480915904109259040C
:1021A0009FBF882371F020E0511002C043E001C0BE
:1021B00044E060E081E70E944F1FF1E05F260E944B
:1021C000DD1E002309F458CF86EA0E94BC1E0230AF
:1021D00029F4852D8095817081951BC0033011F005
:1021E0008FEF17C082E015C00E94DF2591E08111BA
:1021F00090E0092F019548CF43E08ECFF701108280
:10220000B2CFF60160817181F50180810E94D525F0
:10221000AACF2D96E2E10C94DB36A2E0B0E0E3E138
:10222000F1E10C94CF36AE014F5F5F4F6CE08EE072
:102230000E943519498150E024E030E080E0BA0185
:10224000022E02C0759567950A94E2F760FD8F5FD4
:102250002F5F3F4F2830310591F72296E2E00C9432
:10226000EB36A2E0B0E0E7E3F1E10C94CD36D5DF48
:10227000813021F48CE460DC01E001C000E064E125
:10228000CE01019691DD182F811124C0CE01019657
:102290000E94511A853059F01CF48130A9F017C002
:1022A000863039F0893099F41A82198214C081E09D
:1022B0000CC08CE141DC011107C083E043DC0E94CB
:1022C000DF258111FCCF06C082E036DC03C08A5EC8
:1022D00033DCD5CF1FEF812F2296E4E00C94E93652
:1022E000CF93DF93D4E1BDD7C0E01EBC0DB407FE91
:1022F00003C0C83130F40BC00E94DF258F3FB1F31B
:10230000F8CF8EB58F3F21F0A9D78FEF08C08EB5DB
:10231000CF5FC83351F7A2D7D15029F780E0DF91C2
:10232000CF910895A2E0B0E0E8E9F1E10C94CF3656
:1023300080E889831A82AE014F5F5F4F60E170E0F1
:1023400080EB90E0CCD7AE014F5F5F4F60E170E073
:1023500080EE92E0C4D72296E2E00C94EB36CF9365
:10236000DF93EC01888199819827892798279983A1
:102370008883AE0160E170E080E590E0B0D78881AD
:10238000998198278927982799838883DF91CF910E
:102390000895ECE7F5E065817681645C7F4F9C01F0
:1023A00042E050E0838194810C941623ECE7F5E041
:1023B00065817681645C7F4F9C0142E050E08381BF
:1023C00094810C945B23ECE7F5E065817681625C97
:1023D0007F4F9C0143E050E0838194810C9416234D
:1023E000ECE7F5E065817681625C7F4F9C0143E01C
:1023F00050E0838194810C945B23A4E0B0E0E3E09F
:10240000F2E10C94CF367A8369835C834B838E3000
:1024100008F0FFCF60918105709182056E5F7F4F5C
:1024200094E0899F600D711D11249E012F5F3F4F25
:1024300044E050E080917F05909180050E945B23ED
:102440002496E2E00C94EB36A2E0B0E0EAE2F2E19E
:102450000C94CF36ECE7F5E065817681665C7F4FC2
:102460009E012F5F3F4F42E050E0838194810E94A4
:10247000162389819A812296E2E00C94EB36A2E041
:10248000B0E0E5E4F2E10C94CF36ECE7F5E06581ED
:1024900076819E012F5F3F4F42E050E0838194811F
:1024A0000E94162389819A812296E2E00C94EB36F1
:1024B000A2E0B0E0EEE5F2E10C94CF369A83898396
:1024C000ECE7F5E09287818765817681665C7F4FD6
:1024D0009E012F5F3F4F42E050E0838194810E9434
:1024E0005B232296E2E00C94EB36A2E4B0E0EBE74B
:1024F000F2E10C94CF36803108F0FFCF9E012F5FC0
:102500003F4F92E4F90111929A95E9F7682F6370B1
:10251000F2E46F9FB00111248695869542E450E065
:1025200090E00E945B23CE5BDF4FE2E00C94EB3641
:102530009B01482F477054E8459FB001112444E89F
:1025400050E0E3E096958795EA95E1F70C94162321
:102550009B01482F477054E8459FB001112444E87F
:1025600050E0E3E096958795EA95E1F70C945B23BC
:10257000A2E0B0E0EEEBF2E10C94CD368C0133E05A
:10258000169507953A95E1F7877094E8899FB00111
:1025900011249E012F5F3F4F42E050E0C8010E948E
:1025A000162389819A819C0122273F7120917E0503
:1025B000231749F088279072892F9927829586954D
:1025C0008770813041F481E00F3F110511F008F070
:1025D00080E0819501C08FEF2296E4E00C94E9360B
:1025E000CF93DF93EB01BC01CE01A2DFCE01C0DFB0
:1025F0008111FFCFDF91CF9108950F931F93CF9358
:10260000DF93EC018B01ECDF80915C0190915D0127
:10261000009741F099A388A3BE01C80199DFB801D2
:10262000CE01DEDF1D8ECD59DF4F1882DF91CF91B5
:102630001F910F910895CF93DF93EC01D1DFC05824
:10264000DF4F1882DF91CF910895CF92DF92FF92F2
:102650000F931F93CF93DF9300D000D000D0CDB75E
:10266000DEB78E3008F0FFCF8A016B01F82E609143
:102670008105709182056E5F7F4F24E0829F600D1F
:10268000711D11249E012F5F3F4F44E050E0809167
:102690007F05909180050E94162389819A81F60119
:1026A000918380838B819C81F80191838083682F43
:1026B0006770F4E86F9FB00111249E012B5F3F4FBC
:1026C00042E050E0E3E096958795EA95E1F70E94B5
:1026D00016238D819E8188279072892F9927829554
:1026E00086958770813091F4F80180819181892BE2
:1026F00099F040E050E060E070E08F2D7EDEF60162
:1027000011821082F8011182108206C0F8018081C6
:1027100091812EDF8111E8CF26960FB6F894DEBFA7
:102720000FBECDBFDF91CF911F910F91FF90DF9032
:10273000CF900895A0E3B0E0E0EAF3E10C94CF3647
:102740005BD5DFD8CE01019620E2FC0111922A95DB
:10275000E9F7BE016F5D7F4F20E1FB0111922A95E1
:10276000E9F7B3D8E096E2E00C94EB36A0E1B0E0F4
:10277000ECEBF3E10C94CF36CE010196A0D5DADF75
:102780000E94AF2336D7843011F08FEF17C080E05E
:102790000E94672B8111F9CFCE01099690D548E0B0
:1027A00050E0BE01675F7F4FCE0101960E94FE366A
:1027B00021E0892B09F420E0822F81956096E2E0E8
:1027C0000C94EB36A2E0B0E0E8EEF3E10C94CB36EB
:1027D0008C017B0142E050E060E478E0CE0101969C
:1027E0000E94F02289819A8108171907A8F401969E
:1027F00099F0B8016F5D7B4F660F771F42E050E0A4
:10280000C7010E94F022F70180819181805C974F7F
:102810009183808380E001C08FEF2296E6E00C94E4
:10282000E736A3E0B0E0E7E1F4E10C94CE36162FF2
:1028300099E29B838A3B20F4823918F482E901C033
:1028400089EBBE016F5F7F4F90E0BCDF81110FC04D
:1028500069817A816115710551F06E517109610FBD
:10286000711D41E050E0CE0103960E94F0228B8161
:102870002396E3E00C94EA36A2E0B0E0E2E4F4E16F
:102880000C94CD360091070110910801BE016F5FD5
:102890007F4F90E097DF811117C069817A816115C0
:1028A000710591F040E250E0C8010E94F02281E001
:1028B0000B3A180719F48BE891E002C08BEA91E01B
:1028C0009093080180930701C8012296E4E00C94DC
:1028D000E936EF92FF921F93CF93DF9320914D0142
:1028E000211102C08FEF88C0EC0110924E011092AE
:1028F0004A018091DF04882339F001C027D98091F3
:10290000DF04882379F366C06091590170915A0100
:1029100083E496E090DE8091490690914A06892BE7
:1029200009F31881112391F07E0182E0E80EF11C79
:102930001F33C0F66EE370E0C7010E94F835212F07
:1029400030E0019628173907E1F0CCCF60E08091A4
:10295000590190915A010E94E92B90934C01809368
:102960004B01F4D880914B0190914C01892B39F2A5
:1029700081E080934E0168EE73E083E00E9488233B
:10298000BECFB7018091590190915A010E94000C6D
:1029900090934C0180934B01892B09F4B0CF8BE4C9
:1029A00096E0909352018093510180E465DF90930B
:1029B000540180935301F0925601E092550161E574
:1029C00071E083E0E1DA811199CF81E080934E01DB
:1029D000BDD8D1CF80914E01813009F083CF609175
:1029E0004B0170914C0182EF94E007DE67E175E0E6
:1029F000CE010E941B3780E0DF91CF911F91FF90A5
:102A0000EF900895A4E0B0E0E8E0F5E10C94CB3657
:102A100020915E01211102C08FEF74C0142F062F88
:102A20007C01642F0E941E2B892BB1F7111102C06B
:102A300089E101C083E320DF90935201809351012B
:102A4000F0925401E092530161E571E082EF9CDA6B
:102A5000811155C079D8402F50E0B7018BE496E042
:102A60000E940B37111105C0E0908305F09084059A
:102A700004C0E0908505F090860510924A061092F9
:102A8000490680914306909144069F731111906806
:102A900090934406809343060AE328E0AE014D5F1D
:102AA0005F4FB70183E496E00E94C520082F811193
:102AB0001EC08B819C81E816F906C9F0111116C061
:102AC0009A8389839093840580938305609181051F
:102AD000709182059E012F5F3F4F42E050E0809150
:102AE0007F05909180050E945B2301C0E1DC0E947C
:102AF000722011E0011101C010E0119501C01FEF1B
:102B000025D8812F2496E6E00C94E736CF93C62F84
:102B10000E941E2B90935A018093590110924D01EF
:102B200010924E0110924A0110925B0110925001D6
:102B300060E070E083E00E94882310924F01609172
:102B4000590170915A016115710581F080915E0102
:102B5000813061F4C11103C080934D0105C08093A1
:102B60005B0183E496E067DD80E001C08FEFCF91E9
:102B70000895A0E1B0E0EFEBF5E10C94CB367C01D9
:102B80008B0164E170E083E00E948823CE0101960E
:102B90001ADC43E050E068E771E0CE0101960E9444
:102BA000FE36892B71F48B8190E0805C9F4F8B8384
:102BB000892F99272A81820F911D8A83CE01019640
:102BC0000FDC80E1EBE7F1E0DE01119601900D9260
:102BD0008A95E1F743E068E771E0CE010E96E2D511
:102BE000CE0101960E946E29C7010E947D29809125
:102BF000780190917901A0917A01F8018083918305
:102C0000A28363E088E791E0BFD563E088E791E0C5
:102C1000BBD58091DF048111FCCF6096E6E00C9477
:102C2000E736A0E1B0E0E7E1F6E10C94CB368C01A9
:102C30007B0164E170E083E00E94882380E1EBE7A0
:102C4000F1E0DE01119601900D928A95E1F743E0E3
:102C5000B701CE010E96A6D5CE0101960E946E292F
:102C6000C8010E947D298091DF048111FCCF60960C
:102C7000E6E00C94E736CF93DF9320914D012130AD
:102C800029F52091DF04222309F120914E01213002
:102C9000E9F4EC0160914B0170914C0182EF94E0FA
:102CA000ACDC64E175E086E595E0BBDF109275056C
:102CB00066E575E0CE010E941B3780E2E6E5F5E0AF
:102CC000DF011D928A95E9F780E001C08FEFDF9167
:102CD000CF910895AFE3B0E0E0E7F6E10C94CE3693
:102CE0008FE590E00E944636182F60E080E391E087
:102CF0000DDF811137C010FF35C080915F07882339
:102D000089F181E0809374011982CE010196E1DDA1
:102D1000811128C011FF03C060E088E204C014FFE5
:102D200008C061E48CE40E94EF2884EF91E00E94E7
:102D3000A22312FF09C01FAECE0101960E941F29D7
:102D400060E08BE20E94EF28CE01019694DF8111B2
:102D500009C018A2CE0101960E941F2960E088E2F6
:102D60000E94EF28EF96E3E00C94EA36A4E5B0E089
:102D7000ECEBF6E10C94CE363CD4823010F482E0D9
:102D800003C0823029F481E00E949C0D35D2A8C096
:102D9000833009F08FC08FE16FDDBC0181E0F4D892
:102DA000811186C065E1CE018F5A9F4FCDD8811128
:102DB00075C00E94A40DBE016D5A7F4FCE018C5A82
:102DC0009F4F0E94180D8F3F09F468C065968FAD24
:102DD00065978BDB65968FAD65970E942A0C68E03E
:102DE000CE0181960E94B22360E1CE018F5B9F4F9E
:102DF0000E94B22365964FAD6597BE016F5B7F4F12
:102E0000CE0181960E94D90C811148C0AE014F5D60
:102E10005F4F60E470E080E790E061D260E2CE0155
:102E200081960E94B223AE014F5D5F4F60E071E07A
:102E300080EC90E054D2AE014F5F5F4F68E188E3D1
:102E400014D2BE016F5B7F4FCE0181960E94650C4C
:102E5000CE018F5A9F4F83DACFD10E94AF23C9D3BF
:102E6000843059F0CE018F5A9F4F1BD379D365968A
:102E70008FAD65970E94600D11C032DA8111F2CFDB
:102E8000CE018F5A9F4F0DD3893061F788E00E94A1
:102E90009C0D0E94970C10E081E005C089E00E9423
:102EA0009C0D1FEF8BE063961FAE1EAE63971AC09A
:102EB0008BE00EC08430A1F481E00E94672B811169
:102EC00004C008DF10E081E00DC0813039F48CE0EF
:102ED000809300010E94A60D1FEF08C08AE0F8CF82
:102EE0001FEF8BE0809300010E94A60D812FCC5A2A
:102EF000DF4FE3E00C94EA360F931F93CF93DF93F9
:102F0000EC018B0164E170E083E00E948823BE0144
:102F10008CEC96E010D5B8018CEC96E04DD4809105
:102F2000DF048111FCCF81E8ECECF6E0DF011D92BB
:102F30008A95E9F780E2FE0111928A95E9F7DF911F
:102F4000CF911F910F910895AF92BF92CF92DF92D0
:102F5000FF920F931F93CF93DF93CDB7DEB76097A8
:102F60000FB6F894DEBF0FBECDBF8C016B01F42EFF
:102F7000F8D68F2D81DCBC0180E00E94D52580E150
:102F8000F601DE01119601900D928A95E1F7BE01DE
:102F90006F5F7F4FC801B0DF8E010F5F1F4F8BE85F
:102FA000A82E81E0B82E9BEAC92E91E0D92E28E008
:102FB000F22EB501F80181918F010E94E32DB60137
:102FC000F80187810E94E32DFA94F2E0AF0EB11C64
:102FD00082E0C80ED11CF110ECCF6BE871E08AE002
:102FE0000E94D5256BEA71E085E10E94D525E5D6E2
:102FF00060E081E00E944F0E60960FB6F894DEBF4D
:103000000FBECDBFDF91CF911F910F91FF90DF9049
:10301000CF90BF90AF9008958BE08A95F1F7089517
:103020002998FADF299AF8CF299AF6DF2998F4CF60
:10303000CF93DF93DC01EB015D96EC915D97F0E0BF
:10304000E456FE4FE4918881E8278C91E827EC93C1
:103050005E96EC915E97F0E0E456FE4FE491119697
:103060008C911197E8271196EC9311975F96EC914C
:103070005F97F0E0E456FE4FE49112968C91129720
:10308000E8271296EC9312975C96EC915C97F0E02F
:10309000E456FE4FE49113968C911397E82713960C
:1030A000EC9313978881982F991F9927991F2BE1EB
:1030B000929F902D1124880F89278883ED01CD01DF
:1030C0000C96FD01348120812327248335812181C1
:1030D0002327258336812281232726833781238155
:1030E000232727833496E817F90761F71C96EC919C
:1030F0001C97F0E0E456FE4FE49150962C915097C7
:10310000E2275096EC9350971D96EC911D97F0E0B6
:10311000E456FE4FE49151962C915197E227519637
:10312000EC9351971E96EC911E97F0E0E456FE4FFB
:10313000E49152962C915297E2275296EC93529733
:103140001F96EC911F97F0E0E456FE4FE4915396E2
:103150002C915397E2275396EC933C892889232797
:103160002C8B3D89298923272D8B3E892A8923276A
:103170002E8B3F892B8923272F8B24968C179D0715
:1031800061F7DF91CF910895AC0190E1915068F023
:10319000292F30E0FA01E20FF31FDB01A20FB31F6A
:1031A00080812C9128272083F1CF08959C0190E104
:1031B000915050F0D901A90FB11DEC91F0E0E45607
:1031C000FE4FE491EC93F4CF0895CF93C82F2F9A3C
:1031D00023DFCC2311F02A9A01C02A981DDF299AF7
:1031E0001BDF2F9884E090E00E94A223299814DF2F
:1031F0002A9812DFCF9108952D9A109253042F9898
:103200002798889880981CBC219885B1897F85B9BA
:103210000895A1E0B0E0EFE0F9E10C94CF368091A1
:103220005404898389818130A1F08981882389F0C0
:103230008FB7F89490915404923021F491E09093D8
:10324000540406C090915404933011F41092540425
:103250008FBF89812196E2E00C94EB36889A2F98F3
:10326000DBCE2F988898D8DED7CEA0E0B0E0EBE395
:10327000F9E10C94CA36E82ED62EF42E052FF1DF94
:10328000CF2DD02F10E01E1591F01EBC0DB407FEFF
:1032900006C01D1548F08EB58883219606C00E9491
:1032A000DF258F3F99F3F5CF8EB51F5FECCFD6DFCB
:1032B0008F2D902FCDB7DEB7E7E00C94E636CF9395
:1032C000DF93EC01AC016EE086E1CFDFCE01DF9150
:1032D000CF9108951CBC29982A989EDEC2CFA0E009
:1032E000B0E0E5E7F9E10C94C7368C017B016A0197
:1032F000F1DF003E82E0180718F4C0E0D0E018C00B
:10330000CFEDD2E091DE2197E9F72A9A8DDE2A9857
:10331000C0E0D0E0580180EEA81A82E0B80ACA15D1
:10332000DB0518F481DE2196FACFC0E0D0E029C099
:10333000C017D107D1F378DE2196FACFCE01800FE6
:10334000911F8F709927892B01F12097F1F0FE01D1
:1033500083E0F695E7958A95E1F7EC0DFD1D8081F8
:1033600090E09E01209530952770332702C09595F7
:1033700087952A95E2F780FD02C081E026DF54DEC2
:103380002196CE15DF05D1F603C080E01EDFDFCF2A
:1033900065DF83E58CBDCDB7DEB7EAE00C94E3369C
:1033A000A4E0B0E0E6EDF9E10C94CF36AE014F5F5A
:1033B0005F4F62EB84EB59DF89819A81809590950C
:1033C0009C838B83AE014D5F5F4F60E170E080E9CD
:1033D00095E085DFAE014F5F5F4F62EB84EB45DF29
:1033E00081E04B815C8129813A814217530709F0C2
:1033F00080E081952496E2E00C94EB360F931F93C6
:10340000CF93DF938C0166DFC0E5D0E009DE219722
:10341000E9F702DECFE0D0E0F801808191810C2E47
:1034200002C0969587950A94E2F780FF02C02A9819
:1034300001C02A9AF1DDF4DD219770F72998ECDDBF
:10344000EBDD2A98E9DDE8DDC0E0D0E01B9B1AC087
:1034500081E0BBDE1B99FECF80E0B7DE1B9909C07F
:10346000209749F0C130D10541F0229741F0C4E0E6
:1034700007C0C0E005C0C1E003C0C2E001C0C3E0B6
:10348000D3DD06C0D1DD2196C430D105F9F6C4E004
:10349000E5DE83E58CBD8C2FDF91CF911F910F91DD
:1034A0000895A4E0B0E0E7E5FAE10C94CF36A6DF9A
:1034B000811123C075DF8F3F11F481E021C0AE017F
:1034C0004D5F5F4F66E188E1D0DEAE014F5F5F4F39
:1034D0006CE58EE5CADE8B81803879F78C818111AD
:1034E000ECCF8981803849F781E09A81911101C040
:1034F00080E08111E2CF89E003C00E940D118B5F53
:103500002496E2E00C94EB361F93CF93DF93182FB1
:10351000882319F0C0EBD2E002C0C0EED4E0DADEBE
:10352000219710F07DDDFCCF112319F0C0E3D0E02E
:1035300002C0C0E2D0E070DD219718F06DDD70DDD3
:10354000FBCF299869DD68DD2A9866DD65DD80E0BE
:103550003CDE84DE83E58CBDDF91CF911F91089521
:10356000AAE0B0E0E6EBFAE10C94CF3680EF90EF02
:103570009A87898748E050E06FEF70E0CE010196AE
:103580000E941437AE014F5F5F4F60E470E080E748
:1035900090E0A5DE80E0B8DF81E0B6DF0E94921106
:1035A000CE0109960E94AF112A96E2E00C94EB3608
:1035B000CF93DF93882339F0823041F0813049F096
:1035C000C0E0D0E008C0C4EBD5E005C0C8E1D6E05B
:1035D00002C0C9EFD5E07EDE219710F025DDFCCFDB
:1035E000889A81E0F2DD3ADE83E58CBDDF91CF91F0
:1035F0000895A4E2B0E0EFEFFAE10C94CD362D98F7
:1036000081E0809353042F98279A889A809A85B1F5
:10361000897F85B984B1866084B983E58CBD0E94B9
:10362000AF230E94AF23AE014B5E5F4F60E082E0AC
:103630001CDE8D899E898F309F4089F5AE014F5FDA
:103640005F4F60EB82EB11DE89819A8105969A8348
:103650008983AE014F5F5F4F60E170E080E895E0E5
:103660003EDEAE014B5E5F4F60EB82EBFEDD2D89EF
:103670003E8989819A812817390709F07EC00E9406
:103680000D11823071F030F4882309F478C0813054
:1036900041F075C0833029F0843019F070C080E0AB
:1036A0006FC0AE014B5E5F4F62EB84EBDEDD8D8958
:1036B0009E89019609F047C000EF10EF1CA30BA3F1
:1036C000CE0183969BDE811158C01AA309A368DE40
:1036D000882309F452C018A30F8F8FEF89838A8340
:1036E000AE014F5F5F4F61E070E081EA95E0F7DD8A
:1036F000CE014F960E94AF11CE0181960E94AF116C
:1037000069E371E0CE0101960E941B37AE014F5F65
:103710005F4F60E470E080E190E0E1DD87E09EEDE6
:103720009A838983AE014F5F5F4F60E170E080E96B
:1037300095E0D5DD0E94921180E03ADF81E038DF2C
:1037400082E036DF16C0CE014596B9DD48E050E094
:1037500061E471E0CE0145960E94FE36892B59F452
:1037600080EF90EF9A838983CE0101969ADE8930AB
:1037700021F483E005C084E003C081E001C082E061
:10378000A496E4E00C94E936AC01662351F0615054
:10379000FA01E60FF11D908121E0290F20839F3F60
:1037A000A1F30895DC01FB01415028F081919C9127
:1037B00089278D93F9CF0895A1E0B0E0E2EEFBE117
:1037C0000C94C5367C018B01AC01405E5F4F20E15B
:1037D0002150D0F0822F90E0FA01E80FF91F3081DC
:1037E000F701E80FF91F3083F801E80FF91F608136
:1037F000362730834096FA01E80FF91F3081F70130
:10380000E80FF91F3083E4CF81E0898399249394F2
:10381000680180E1C80ED11C8BE1882E5701E0E1E0
:10382000AE0EB11CC801C2DCF80181819581918383
:1038300091859583958591878587828592819287E9
:1038400082838381978593839385978797819387D5
:103850008783868596819687868380816181528160
:103860003381982F9627252F2327422F492797FF0B
:1038700003C0990F982501C0990F9427982790832A
:10388000962F952797FF03C0990F982501C0990F90
:1038900094279627918327FF03C0220F282501C074
:1038A000220F242725272283832787FF05C0982FEF
:1038B000990F892F882501C0880F84278327838348
:1038C0003496CE16DF0649F690FE02C0B50106C05A
:1038D000BE016F5F7F4FC701ABDBB701C80154DC8E
:1038E0009394FEE09F129ECFC80160DCF8018181B5
:1038F000958191839185958395859187858782852B
:10390000928192878283838197859383938597871A
:103910009781938787838685968196878683BE0164
:103920006F5F7F4FC70184DBB701C8012DDC219693
:10393000ECE00C94E136A1E0B0E0E1EAFCE10C94AB
:10394000CC3621E02983DB01FC01B0968C01005CC0
:103950001F4F8D9180A38193E017F107D1F788E085
:10396000F82EFA94FF2031F0BE016F5F7F4FC8013F
:103970005FDBF7CF2196E5E00C94E836CF93DF9339
:10398000EC012D813E818B819C8128173907E0F461
:103990002F5F3F4F3E832D83898D803168F06F818B
:1039A000788540E150E0CE0109961AD68F8198853E
:1039B000409698878F83198E898D91E0980F998F03
:1039C000C80FD11D898501C080E0DF91CF91089596
:1039D000A2E0B0E0EEEEFCE10C94CD368B0190E07D
:1039E00080589F4F0E94E2138F3F89F0F801608159
:1039F000718142E050E0CE010196F2D5F80180815C
:103A0000918102969183808389819A8102C08FEF90
:103A10009FEF2296E4E00C94E936A8E0B0E0E3E101
:103A2000FDE10C94CF3690910D019F3F11F480E0A1
:103A30003FC08032E0F390E04C9760914C0470916D
:103A40004D04680F791F41E050E0CE010896C8D5BB
:103A500088858F3FD1F0688527E0629FB0011124EF
:103A60006C5F7E4F80914C0490914D04680F791FDC
:103A700047E050E0CE010196B3D58E819F8101963B
:103A800099F4898186958F5F13C060914C04709181
:103A90004D046D5D7F4F41E050E0CE010896A0D50A
:103AA00088858F3FC1F6C3CF8A818F5F9C81890F44
:103AB0002896E2E00C94EB36A4E1B0E0E2E6FDE10A
:103AC0000C94BF365A019091C706DA012C91192F38
:103AD000120F1150160F412E46944694469470E0F2
:103AE000690F711D1B0153E0359427945A95E1F736
:103AF0002C8610951770912F919597709987119634
:103B00006D917C911297782E9FEF960F980F9D875D
:103B100087FF22C0482F419550E06417750708F4CD
:103B200001C130E0295F3F4F43E0369527954A9524
:103B3000E1F7992781950CF49095289F7001299FB2
:103B4000F00C389FF00C1124B1E0EB1AF10818F0DA
:103B5000C50114DFF9CF712C88E0E8E1F1E0DE0166
:103B6000119601900D928A95E1F7842D65E00E94EF
:103B7000863640E8949F900111243F872E8700E00D
:103B8000842D90E0998B888B88E090E0DC01E985BA
:103B9000AE1BB109BB8BAA8BF8EFF10FFC8B21E0B8
:103BA00030E02C0F3D1F210F311D3B872A873D85BB
:103BB000371508F4B7C077FCB5C0D5016C90542C0C
:103BC000EE84FF84872C912C852D052C000C990BFD
:103BD000821593050CF4A4C0E889F9898E179F0714
:103BE000A1F5C501CBDEFC854F1211C0F401EE0D2D
:103BF000FF1DE553FE4FAA85BB85A60DB11D9C9107
:103C00009095AA85BB852C91922B208109C0F40147
:103C1000EE0DFF1DE553FE4F2081AA85BB859C91CB
:103C200092239083F401EE0DFF1DE553FE4F282FE4
:103C300030E0012E02C0359527950A94E2F7908175
:103C4000292B2083BC896B0E60C02816390609F029
:103C50003FC0111109C0C50191DEF701E553FE4FC8
:103C6000E80DF91D808351C0862D90E094012E0D42
:103C70003F1DF901E553FE4F6F01E1E0F0E0EC0F6D
:103C8000FD1FE80FF91F20812095D6013C912323C9
:103C90002C93EA89FB89E817F9077CF4C5016EDEED
:103CA000282F30E0012E02C0359527950A94E2F7BF
:103CB000D6019C91292B2C9301C0802F098401C02F
:103CC000000F0A94EAF7F6019081092B00831DC0CA
:103CD000C50154DE970125533E4FF901E80DF91D4A
:103CE000111102C080830FC0098401C0000F0A9423
:103CF000EAF7282F30E0012E02C0359527950A9467
:103D0000E2F7202B2083F8EF6F0E20E8E21AF1088B
:103D1000F7FE03C0E12C92E0F92E5A94082F54CFFD
:103D2000739445CF6496E2E10C94DB36CF93C82FB1
:103D30006CE474E04DDE029791F4C0930D01609144
:103D40004C0470914D0444E050E08EE494E048D47B
:103D500080915004813019F08FEF80930D01CF9145
:103D6000089580E892E0EBECF1E0DF019C011D9208
:103D700021503040E1F708955F985C98F4D35F9A42
:103D800008957298ECD48FEAF7DF81E08093700198
:103D900008950F931F93CF938C015F985C98C62F63
:103DA000CC2331F0F80181918F01DDD3C150F8CFE0
:103DB0005F9ACF911F910F910895A6E0B0E0E3EED6
:103DC000FEE10C94C93681E2898380910C018A83DB
:103DD00081588B8310916F0116951695169582E286
:103DE0008C831D831E838091C70690E0079668E24E
:103DF00070E00E94A6367C0183E0F594E7948A95F2
:103E0000E1F7F694FE2CEE24F794E79404E020E822
:103E1000C22E22E0D22E63E0CE010196BADF63E02B
:103E2000CE010496B6DFF701E553FE4F8091C8003E
:103E300085FFFCCF1092CE008091C80087FFFCCF99
:103E40005F985C9ACF0180589F4FE817F90771F08F
:103E500021913091C80037FFFCCF3091CE003091D6
:103E6000C80035FFFCCF2093CE00EFCF8091C80073
:103E700087FFFCCF8091CE005F9AC70180589F4F8B
:103E8000B6010E9492367C011F5F17701D831E834E
:103E9000015009F0C0CF2696E8E00C94E536A3E285
:103EA000B0E0E5E5FFE10C94CC36F82E162F842F18
:103EB000022FBE016E5D7F4F8BDD019709F094C02C
:103EC0006AA17BA147E050E0CE014B9689D34B8D90
:103ED0005C8D8D8D2AA13BA1295F3F4F39872887B3
:103EE0005B834A8389831F821E8290E19A8F90E0D0
:103EF000079623E0969587952A95E1F7849F900190
:103F0000859F300D949F300D11243D832C8317FD28
:103F100005C0AE014F5F5F4F612F10C080916F01F0
:103F2000811B8F7380936F018091C706811B8F71F6
:103F30008093C706AE014F5F5F4F60E08F2DBCDD01
:103F4000002309F451C090916F018D8D890F810F6D
:103F50008F7380936F0131DF0130B1F490914B0486
:103F600001E0090F00934B049F7380916F01891743
:103F700041F085E090E0E6D3802F8F738064FCDE13
:103F8000EDCF80934B0420C00230B1F490914B04EC
:103F90000FEF090F00934B0480916F019F739817E7
:103FA00041F085E090E0CED3802F8F738064E4DE13
:103FB000EDCF90934B0408C0033031F480916F0132
:103FC00080934B048064D8DE2091C706812F110FA7
:103FD000990B820F911D2D8D820F911D68E270E06B
:103FE0000E94A6368093C706A396E5E00C94E836B7
:103FF000CF93C091C70610920C0180ECBDDE80EA21
:10400000BBDE8C2F90E0089668E270E00E94A63636
:104010008093C706D2DEC093C706CF910895A2E071
:10402000B0E0E5E1F0E20C94C636B82EA62E972E4D
:104030008A01E22E4F3F510509F010F400E011E033
:10404000F12C011580E1180790F5680183E0CC0C94
:10405000DD1C8A95E1F781E08E1528F184E8E89E61
:10406000B00111249E012F5F3F4F42E050E0C80194
:10407000DDD289819A8188279072892F992782952C
:1040800086958770813069F4FB1488F4EA2DF92D48
:10409000EF0DF11DEF0DF11DC6018E299183808377
:1040A000F394E394D8CF0F5F1F4FE12CCACF8F2D2D
:1040B0002296EBE00C94E2364091890550918A05F6
:1040C000242F277083E0569547958A95E1F769E894
:1040D00075E081E0A4DF811104C010928A0510927E
:1040E00089050895A9E0B0E0E8E7F0E20C94CD3648
:1040F000009183051091840584E3EFE0F6E0DF0191
:104100001D928A95E9F783E590E00E944636811179
:1041100028C00E943F12909388058093870531C084
:10412000C80123E0969587952A95E1F78115B0E1BE
:104130009B0738F5602F677024E8629FB001112457
:104140009E012F5F3F4F49E050E070D2E9858FE933
:104150008E0F8A3150F010938805009387050D81EA
:104160001E8101151105E1F60CC0F0E0EE0FFF1FF6
:10417000E35BFA4F80819181892B69F7118300837A
:10418000EACF2996E4E00C94E936A0E0B0E0EBEC4D
:10419000F0E20C94C336FA0171836083E0918905E3
:1041A000F0918A05EF2B11F48FEFACC05A016B012F
:1041B0004C01FC0180819181907E30917E05932B92
:1041C0009F7D9183808313821282158214826115F0
:1041D000710579F4B4018091890590918A050E9456
:1041E000A812B4018091890590918A050E949812C5
:1041F00080C07B01C22FD0E0602E712C8E0105574C
:104200001A4FC80DD91DB7018BE895E00E94F01236
:10421000A301B801CE010E94323718163CF58091F7
:104220008F0590919005009711F07C01ECCFF4017F
:10423000F382E282B4018091890590918A050E94FF
:10424000A8128091890590918A059093900580939A
:104250008F056BE875E0C7010E94A812609189057F
:1042600070918A05C4010E94F0124AC0882309F4A3
:104270009BCFF401F582E48280918D0590918E05AB
:1042800093838283B4018091890590918A050E946D
:10429000A812B4018091890590918A050E94981214
:1042A0008091890590918A0590938E0580938D0564
:1042B0006BE875E0C7010E94A812F4016281738166
:1042C0006115710599F08BE895E00E94F0128091DC
:1042D000890590918A059093900580938F056BE8EE
:1042E00075E0F401828193810E94A812CE14DF044C
:1042F00039F48091890590918A05F5019183808335
:10430000DBDE80E0CDB7DEB7EEE00C94DF36F8946C
:10431000A89584B7877F84BF80916000886180936F
:1043200060008FE080936000FFCF1F920F920FB666
:104330000F9211242F933F934F935F936F937F932B
:104340008F939F93AF93BF93EF93FF93379916C0CB
:104350008091C4048A3F41F480915404833051F128
:1043600082E08093540404C08091C4048F3F11F113
:104370008091C4048F5F8093C4041CC08091C404E6
:10438000882341F080915304882321F00E94FC1877
:104390000E94810C80915404813021F483E0809349
:1043A000540406C080915404833011F010925404D8
:1043B0001092C4048091C5049091C6040196909314
:1043C000C6048093C50480E090E0893031F42091E8
:1043D000C5043091C604232BB1F4FC01EE0FFF1F7E
:1043E000E80FF91FEC52FB4F20813181232B59F04C
:1043F00020813181A90141505109518340832130ED
:10440000310509F4128201968A309105F1F68FB1D7
:104410009FB181FB222720F99072892F90E034E030
:10442000959587953A95E1F7822B39F0823039F0EE
:1044300091E0813029F090E003C092E001C093E068
:10444000492F50E02091C80430E02F5F3F4F237088
:1044500033274217530789F4811104C081E0809308
:104460005A0432C0833081F580915A04813061F55D
:104470008091CA068823D9F01EC02091C80430E07C
:10448000215031092370332742175307F9F4811162
:1044900004C081E08093580417C08330A9F4809150
:1044A0005804813089F48091CA06882321F08091D4
:1044B0005904815003C0809159048F5F809359043F
:1044C00010925A04109258049093C8047C9926C004
:1044D0008091C704823339F480915704833019F0F6
:1044E00082E0809357048091C7048F3F29F0809128
:1044F000C7048F5F8093C70480915704813021F0F7
:10450000809157048230F1F48091550490915604C3
:104510000196909356048093550414C080915704DB
:10452000813021F483E0809357040AC080915704BE
:10453000833031F0109256041092550410925704B3
:104540001092C704FF91EF91BF91AF919F918F910E
:104550007F916F915F914F913F912F910F900FBE7F
:104560000F901F9018959091C80095FFFCCF8093F5
:10457000CE008091C80087FFFCCF8091CE000895C7
:104580002C9887EDF0DF80E0EEDF87FFFACF2C9AE2
:104590000895A0E0B0E0EFECF2E20C94C9368C0193
:1045A000EB017A012C986C0184E0C80ED11CF80153
:1045B0008081D9DFF80181938F01CE16DF06B9F72C
:1045C0008E010E0D1F1DC017D10721F08881CBDF92
:1045D0008993F9CF2C9ACDB7DEB7E8E00C94E53695
:1045E000A4E0B0E0E6EFF2E20C94CF369C01CB0100
:1045F000FA0168E071E00E949236AB01542F442723
:10460000550F842B952B43E04983660F672F661F58
:10461000770B71956A839B838C83AF01B901CE01BF
:104620000196B7DF2496E2E00C94EB36A4E0B0E00C
:10463000ECE1F3E20C94CF36FB01811560E19607C3
:1046400008F0FFCFDA011197AE0FBF1FA830B140BD
:1046500008F0FFCFB90123E02983880F991F2F2F7E
:104660003327822B932B9A838B83EC83CE01019685
:1046700090DF2496E2E00C94EB36A4E0B0E0E3E4B3
:10468000F3E20C94CF36811520E1920708F0FFCFBA
:1046900023E52983880F991F9A838B831C8240E02E
:1046A00050E0BE016F5F7F4FCB0173DF69DF24965F
:1046B000E2E00C94EB36A4E0B0E0E1E6F3E20C9427
:1046C000C7368115A0E19A0708F0FFCFFA013197AC
:1046D000E60FF71FE830F14008F0FFCF59016A01FB
:1046E0007B018C01CADF82E88983000F111F8F2DA7
:1046F0009927082B192B1A830B83EC82A601B5018D
:10470000CE01019646DF3CDF2496EAE00C94E336C6
:1047100090E0FC01EE0FFF1F8E0F9F1FFC01EC527B
:10472000FB4F808191818617970759F08FB7F894D6
:1047300071836083672B11F4128202C091E092832F
:104740008FBF0895BC016F5F7F4F85E0E1DF8091EF
:10475000E5048111FCCF81E08093E504089582E8AF
:1047600090E0F0CFCF92DF92EF92FF92282FDC0102
:1047700034E08A2F821B8617C8F58091C30481110B
:104780002AC08091BE048823E1F34FB7F894E091EA
:10479000BD0484E0E89FF0011124E358FB4FC08082
:1047A000D180E280F3808091BD0490E001968F700B
:1047B00099278093BD048091BE0481508093BE04EC
:1047C0004FBFC092BF04D092C004E092C104F092E7
:1047D000C2043093C304E091C304E150E093C304E6
:1047E000F0E0E154FB4F80818D93C3CFFF90EF90B9
:1047F000DF90CF9008951F920F920FB60F92112461
:10480000CF92DF92EF92FF920F931F932F933F93DC
:104810004F935F936F937F938F939F93AF93BF93C8
:10482000CF93DF93EF93FF93E0917C0486B5F0E0A4
:10483000E45AFB4F808380917C048F5F80937C04DB
:1048400080917C04803208F45EC010927C04E09178
:104850005B04F0E0CCE5D4E00CE714E020E030E0CD
:10486000A9018991280F311D411D511DA1E0B4E01E
:104870000E946D366B017C01A6E0F694E794D79414
:10488000C794AA95D1F79B01AC012C253D254E2557
:104890005F250C171D0729F7A9E0B0E00E946D36CF
:1048A0008B019C014BE036952795179507954A9506
:1048B000D1F7A90198012627372748275927A1E0D2
:1048C000B0E80E946D36EE0FFF1FEE0FFF1FE3589A
:1048D000FB4F608371838283938380915B0490E0BC
:1048E00001968F70992780935B048091BE0480317C
:1048F00029F480915B048093BD0405C08091BE04BF
:104900008F5F8093BE04FF91EF91DF91CF91BF91B4
:10491000AF919F918F917F916F915F914F913F9157
:104920002F911F910F91FF90EF90DF90CF900F90FC
:104930000FBE0F901F901895A2E2B0E0E2EAF4E2F9
:104940000C94CB368A3061F490915204992389F00B
:1049500090915D0780914E04890F80935D0706C09A
:104960008D3039F490915204992319F010925E071A
:10497000AAC0182F52D820915E0790E0820F911D97
:104980002091090130E0281739077CF48091520406
:10499000811102C08FEF98C090915D0780914E0405
:1049A000890F80935D0710925E07F0905D0720915C
:1049B0004E048F2D90E0820F911D81975CF78091BE
:1049C0000D018F3F11F480E079C01032E0F30091C7
:1049D0005E07812F90E04C9760914C0470914D04DC
:1049E000680F791F41E050E0CE018296F9DD8AA17F
:1049F0008F3FF1F08AA127E0E22EE89EC00111244A
:104A00008C5F9E4F60914C0470914D04680F791F2C
:104A100047E050E0CE014B96E3DD48A159A14F3F5E
:104A20008FEF5807A1F41E8E8B8D182F169543C05B
:104A300060914C0470914D046D5D7F4F41E050E0FA
:104A4000CE018296CDDD8AA18F3FA1F6BCCF1C8D11
:104A50002D8D8E8D6F8D6F0DE12FF0E090915104B3
:104A6000E99E400D511D11244C5F5E4FA0914C04F6
:104A7000B0914D044A0F5B1F59874887FB83EA8337
:104A800029831F821E8290E19A8F30E0295F3F4F79
:104A900093E0369527959A95E1F72E9FA0012F9FD9
:104AA000500D3E9F500D11245D834C83AE014F5F2E
:104AB0005F4F800F01D88E8D8F5F810F90915E07C1
:104AC000890F80935E0780E0A296E6E00C94E736BB
:104AD000A0E0B0E0EEE6F5E20C94C836C82FC62E92
:104AE000B42E8901D0900901D0E0E12CF12CF8011D
:104AF000ED0FF11D8081811104C082E0B81223C046
:104B000008C08D30D1F30E940D1DE80EF11CDF5F4F
:104B1000EECF2C2F30E090917101892F90E0A90108
:104B2000480F591F4E0D5F1D6D2D70E0461757073A
:104B300028F5EB01C20FD31FC80FD91FCE19DF090B
:104B4000D695C7951BC081E0B81218C0CD1510F4DA
:104B5000C0930901809171019701280F311D4C2FDD
:104B600050E04217530738F4C09109014C2F50E030
:104B70002417350710F4CE1901C0C82FC0935E0763
:104B8000C0925D07F02EC02FD12F1C2F1F198991C5
:104B9000882319F0D1DE8823C1F3D0920901812F37
:104BA000CDB7DEB7E9E00C94E4369B0142E0682F14
:104BB00080E08ECF8091E80080FFFCCF089586B121
:104BC0008095880F880B0895EF92FF920F931F93A3
:104BD000CF93DF93182FF62EE72ED42F882311F0D2
:104BE000CEE301C0C0E4CD1BC7FD3DC080915F078F
:104BF0008823C9F10FB7F89462E370E085E088DD9F
:104C000081E08093E90091E08091E80085FD09C092
:104C10000FBF8091E50481111DC081E08093E50400
:104C200023C0112321F0D093F1001093F100EF2D58
:104C3000FE2DD15020F081918093F100FACFC15028
:104C400018F01092F100FBCF8AE38093E8000FBFC9
:104C500080E00AC080915F07882329F00FB7F8949D
:104C60009093E900D1CF8FEFCDB7DEB7E6E00C949B
:104C7000E7360F931F93CF93DF93D82FC62F8A0168
:104C8000CE3358F04EE3B8018D2F9EDF811110C056
:104C9000025C1F4FCE53A1F70CC04C2FB8018D2FD3
:104CA00093DF91E0811101C090E0892F819501C0CF
:104CB0008FEFDF91CF911F910F9108951F920F9267
:104CC0000FB60F9211241F932F933F934F935F932F
:104CD0006F937F938F939F93AF93BF93CF93DF9304
:104CE000EF93FF931092E9008091E80083FF58C191
:104CF0001091F1008091F1002091F1009091F1006C
:104D000030E0392BC091F1009091F100D0E0D92B27
:104D10004091F1005091F10092EB9093E8008630C1
:104D200009F049C089E793E0FC0165917491261769
:104D30003707E1F4FC01329665917491C617D707E5
:104D4000A9F4FC01349665917491FC013696849126
:104D5000242F30E0352B2F3F310519F010F02FEFC5
:104D600030E0281708F4822F3EEF0DC0079663E06D
:104D7000883B9607C9F614C1690F711D891B3093D2
:104D8000E8008823A9F09091E800292F2570D9F335
:104D900092FD09C1982F813208F090E2FB01292F82
:104DA000222351F344914093F10021503196F8CFE2
:104DB000903249F3F8C0853069F42F772093E300EF
:104DC0008EEF8093E800F6DE8091E30080688093A8
:104DD000E300E9C0893039F5111168C020935F07FD
:104DE0008EEF8093E80041E08FE693E04093E90086
:104DF0009C012F5F3F4FFC0154915093EB005523D2
:104E000059F0F90124912093EC009C012D5F3F4F54
:104E10003196E491E093ED004F5F453011F0C90108
:104E2000E5CF8EE13EC0883039F4103809F03EC03D
:104E3000C1DE80915F0792C0811113C0BBDE1238C2
:104E400051F4C093E9008091EB0085FB882780F93D
:104E50001092E90001C080E08093F1001092F1000F
:104E60009BC0982F9D7F913009F51230F9F4232BC8
:104E700009F096C0CF779FEF9C0F943008F090C058
:104E80009EEF9093E800C093E900833009F488C056
:104E900089E18093EB0081E090E001C0880FCA9522
:104EA000EAF78093EA001092EA007DC0209799F516
:104EB000113AF9F4813009F073C080E43EEF90912B
:104EC000E800292F2570D9F392FD6DC0982F81320B
:104ED00008F090E2292F222321F01092F1002150B6
:104EE000FACF891B3093E8008111E9CF903239F372
:104EF0005AC0113209F054C0893009F051C09BEFFB
:104F00008091E80082FD9093E8008091E80086FFA0
:104F1000F7CF50DE41C0219709F042C0113A09F5A0
:104F2000813089F447DE8091D3048093F1001092A0
:104F3000F100EAECF4E081918093F10064E0E03D5F
:104F4000F607C9F729C0823021F434DE80910B01C5
:104F500005C0833029F52EDE80910A018093F1008F
:104F60001BC01132E9F4893061F48091E80082FFBE
:104F7000FCCF8091F1008093D2048BEF8093E80006
:104F80000BC08A3029F430930B011092D10404C075
:104F90008B3031F420930A018EEF8093E80003C038
:104FA00081E28093EB00FF91EF91DF91CF91BF9170
:104FB000AF919F918F917F916F915F914F913F91B1
:104FC0002F911F910F900FBE0F901F9018951F9259
:104FD0000F920FB60F9211242F933F934F935F932D
:104FE0006F937F938F939F93AF93BF93EF93FF93B1
:104FF0008091E1001092E10083FF0FC01092E90060
:1050000091E09093EB001092EC0092E29093ED000F
:1050100098E09093F00010925F0782FF36C0809175
:105020005F07882391F18091E6049091E704892B32
:1050300019F481E08093C90468EE7DEF86E068DBB7
:1050400080910B01882309F18091D0048F5F8093B8
:10505000D0048370D1F483E08093E9008091E8006C
:1050600085FF13C08091D1048F5F8093D10490910C
:105070000B0189130AC087E01092F1008150E1F71B
:105080008AE38093E8001092D104FF91EF91BF91E1
:10509000AF919F918F917F916F915F914F913F91D0
:1050A0002F910F900FBE0F901F9018951F93CF93C5
:1050B000DF9320915F07211102C08FEF31C0EC0117
:1050C0001FB7F89464E070E085E022DB82E0809313
:1050D000E90092E08091E80085FD09C01FBF809142
:1050E000E504811114C081E08093E50419C0FE013C
:1050F000CE01805C9F4F2091F10021938E179F0776
:10510000D1F78BE68093E8001FBF80E009C0809153
:105110005F07882391F21FB7F8949093E900DACFE4
:10512000DF91CF911F910895A0E4B0E0EAE9F8E2A1
:105130000C94CF36CE010196B9DF811109C09A8156
:10514000933C39F0AE014F5F5F4F60E084EC91DD3E
:105150008FEFC05CDF4FE2E00C94EB36CF93809191
:105160005F07811102C08FEF38C0CFB7F89483E09A
:105170008093E90062E370E085E0CADA83E0909111
:10518000E80095FD0DC0CFBF90915F07992359F3BB
:105190009091E50491111CC081E08093E5041DC04D
:1051A0008091D3048093F1001092F100EAECF4E0D6
:1051B00080ED94E021912093F1008E179F07D1F7A5
:1051C0008AE38093E8001092D104CFBF80E005C04D
:1051D000CFB7F8948093E900D2CFCF9108950F9381
:1051E0001F93CF93C82F162F88E590E00E94463674
:1051F000882331F089E590E00E944636082F01C0EF
:1052000000E01093D3041092CA04A8DF811113C0E8
:1052100010E0C80197DAC093CA04A0DF81110BC067
:10522000C80190DA1092D3041092CA0497DFC82FF5
:10523000C80188DA8C2FCF911F910F9108950F9399
:105240001F93CF938C0180E0F801C1918F01CC2393
:1052500009F440C081113EC0CA3019F460E088E210
:1052600035C0C93019F460E08BE230C080EE8C0F9D
:105270008F3570F582E490E00E9446366C2F0E94D4
:105280001114982F907C282F2F73233079F4903CA1
:1052900031F0903831F0903431F460E405C062E4CC
:1052A00003C062E001C060E084E610C0903C19F4E5
:1052B00062E4822F0BC0903819F462E08F7706C049
:1052C000903419F460E48F7B01C060E088DFBCCFCC
:1052D0008FEFBACFCF911F910F910895ECE2F7E0D5
:1052E0009C01205F3F4FDC014D91CD014193A217FE
:1052F000B307C9F710924C070895A0E0B0E0E3E8C7
:10530000F9E20C94C4368C01C0E0D0E08CE3E82EC6
:1053100087E0F82E90E1792E20E2C22ED12C30E1E8
:10532000A32EB12C80914C0781110FC0ECE2F7E065
:1053300081918787EE16FF06D9F76CE377E08CEC56
:1053400096E00E94DC1B70924C0780914C0790E025
:1053500046018C1A9D0A8815990508F44C01B5017F
:10536000681B790B645C784F482DC8018C0F9D1F1A
:105370000E94D21BC80DD91D80914C0788198093BB
:105380004C07811105C060E18CE297E00E94C41BCC
:10539000C032D10538F2CDB7DEB7EDE00C94E0367F
:1053A000AAE0B0E0E6EDF9E20C94CB361A86198655
:1053B0008091CB06882309F414C1489B0AC15998EF
:1053C00088EAD1D88E010F5F1F4F7E0127E0E20EE1
:1053D000F11C80E0C8D8F80181938F01EE16FF061A
:1053E000C1F7599A1E8180915B0790915C07212F2C
:1053F000012E000C330B8115FFEF9F07A8F460917D
:105400005A07462F062E000C550B61172CF4B901D4
:10541000641B750BAB0102C0421B530B840F951F1D
:1054200090935C0780935B07809158079091590790
:10543000280F391F30935907209358072C818091EA
:10544000560790915707820F911D27FD9A959093CB
:1054500057078093560720915407309155072F5FC7
:105460003F4F309355072093540721153140C1F524
:105470008130EAE39E0734F080910C01882309F41F
:10548000B2C007C08115964C24F480910C018111A3
:10549000C6C01092570710925607809158079091F6
:1054A000590797FF02C081509F4F90935A078091F0
:1054B0005B0790915C078130924018F0109253077F
:1054C00003C081E080935307109259071092580748
:1054D000109255071092540710925C0710925B07C8
:1054E00080915A0781171CF4181B812F01C0811B62
:1054F00090915207911118C0082E000C990B209121
:10550000C90630E0281739070CF063C081E08093AA
:105510005207109251071092500710924F071092A5
:105520004E0710924D0755C0913009F042C0082E29
:10553000000C990B4091C90650E020914F07309123
:105540005007481759074CF580914D0790914E0729
:10555000A901481B590B4932510580F0809153072E
:10556000882361F08091C806882341F010924E078D
:1055700010924D0782E0809352075CC030934E0733
:1055800020934D078091510791E0980F9093510718
:10559000853118F082E080935207C90101969093FB
:1055A000500780934F072D32314098F010925207E8
:1055B00010C0923071F480914D0790914E079C017C
:1055C0002F5F3F4F30934E0720934D078139914015
:1055D00068F781E020915B0730915C072130324011
:1055E00048F580E027C00091C70684E080930C0155
:1055F00088EC0E94BC1E81EA0E94BC1E802F90E0B5
:10560000089668E270E00E94A6368093C7060E9462
:10561000DD1E0093C7061092CA0660E006C00E9415
:10562000F81F81E08093CA0661E08AE590E00E945D
:105630005C362FCF2A96E6E00C94E7360F931F9343
:10564000CF93DF938C0161111FC0DC01EC918FE9D6
:105650008E0F8A31A0F4F0E0EE0FFF1FE35BFA4FEC
:10566000C081D1812097C1F4E82FEE0FFF0BE15FDD
:10567000F94FC081D181209779F48150A8F7C0916A
:105680008305D091840503C00E942412EC01209769
:1056900019F480E090E016C0BE0183E496E00E9419
:1056A0001B134FE350E06BE476E0C8010E943237F1
:1056B000882339F087FDEDCFC0914706D091480689
:1056C000E6CFCE01DF91CF911F910F910895A1E513
:1056D000B0E0EDE6FBE20C94CD36082FCE0101964A
:1056E0000E945F19AE014F5A5F4FBE016F5B7F4F43
:1056F000CE0101960E949E0C811162C080E690E06E
:105700000E9446368823D1F00023C1F04EE150E0DC
:1057100063E270E0CE0181960E94363642E050E0AE
:105720006EEF73E0CE01CF960E94363648E4BE019C
:105730006F5B7F4FCE0181960E94A4170E9470116B
:10574000882319F08EE40E949C0D0E943111182FBD
:10575000811138C0AE014F5F5F4F68E188E30E945E
:10576000351980E690E00E9446368823D1F0002368
:10577000C1F04EE150E063E270E0CE0181960E94FC
:10578000363642E050E06EEF73E0CE01CF960E94D5
:10579000363649E4BE016F5F7F4FCE0181960E948D
:1057A000A41762968FAD62970E942A0CBE016F5BB0
:1057B0007F4FCE0101960E94650C0E94970C03C09A
:1057C00011E001C01FEF812FCF5ADF4FE4E00C94AE
:1057D000E936ACE0B0E0EFEEFBE20C94BF360097A8
:1057E00009F40DC1162FBC0183E496E00E941B133F
:1057F000E0904906F0904A06E114F10421F48AE3AE
:105800000E949C0DFCC0B70182EF94E00E94FD1243
:105810008091F6049091F704892BD9F48BE496E0FB
:105820009A83898387E10E943C149C838B8387E160
:1058300095E09E838D83113051F0BE016F5F7F4FE5
:1058400083EF0E94C40F882311F0E12CF12CC701D3
:10585000E3C03E2C2F2C412C4394632D722D82EFFC
:1058600094E00E94FD128091F6049091F704009755
:1058700019F0382E292EF0CF0E948A0D0E94200E9A
:1058800064EF71E082E00E948823870155245394DD
:10589000BB24B394CE0101966C01642C712C8FE172
:1058A000882E912CB11007C08091DC0481116DC04D
:1058B0000E940C0E02C00E94040E64EF71E082E0B0
:1058C0000E9488230E94B11EF6018AE011928A95F7
:1058D000E9F781E40E943C145C01EBE4F6E00190FE
:1058E0000020E9F7CF018C5496409C878B8760910C
:1058F000790570E0655B794F80E057D99B85981BEF
:10590000909376054AE0B601852D90E00E9403361B
:10591000F60101900020E9F731978FE28083F601CC
:1059200001900020E9F7BF01615071094AE0C3010D
:105930000E940336F50101900020E9F73197EA193A
:10594000FB09A4014E1B5F0BB601C5010E94223763
:10595000B5018AE02AD9B80182EF94E00E94FD12D5
:10596000E7E1F5E001900020E9F7CF01885195408B
:105970005C0160917A0570E0695E7A4F85E115D926
:10598000A81AA09277050E94DD1E60E080E00E94C8
:105990004F0E833011F1823071F40091F4041091B4
:1059A000F5040115110511F4032D122D91E059167E
:1059B000C1F05A941AC0813061F40091F60410913C
:1059C000F7040115110509F48701541461F053948B
:1059D0000CC08430A1F0A12C02C0AA24A394B12C45
:1059E00007C0542C02C055245394A12CBB24B3945B
:1059F0008091D904811106C081E08093D90480E0B0
:105A000090E00AC0DCD88823D1F38EDB8823B9F379
:105A1000AA2009F447CFC8012C96E2E10C94DB36AA
:105A2000A8E0B0E0E6E1FDE20C94CF36009709F47F
:105A300072C0BC0182EF94E00E94FD128BE496E0FC
:105A40009A838983809117058823B1F180915F073C
:105A5000882309F182E10E943C149C838B83BE0160
:105A60006F5F7F4F82E00E94C40F811110C087E1F9
:105A700095E0E5DB84E590E00E9446368823E1F07E
:105A800085E590E00E94463660E0A9DB15C08230D3
:105A900099F482E065C08AE20E943C149C838B8367
:105AA000BE016F5F7F4F82E00E94C40F8111EFCF74
:105AB00087E195E00E94C80E64E175E086E595E017
:105AC0000E9411161092750580915F07882349F195
:105AD00083E10E943C149C838B83BE016F5F7F4FE8
