:10000000DBC10000F6C10000F4C10000F2C1000035
:10001000F0C10000EEC10000ECC10000EAC1000028
:10002000E8C10000E6C100000C9447270C94BE25EF
:100030000C945322DEC10000DCC10000DAC10000D4
:10004000D8C100000C94ED1FD4C10000D2C1000043
:10005000D0C10000CEC10000CCC10000CAC1000068
:10006000C8C10000C6C10000C4C10000C2C1000078
:10007000C0C10000BEC10000BCC10000BAC1000088
:10008000B8C10000B6C10000B4C10000B2C1000098
:10009000B0C10000AEC10000ACC10000AAC10000A8
:1000A000A8C10000A6C10000A4C10000A002A702D0
:1000B000B702D702E60200030B04A904AF047A0BCF
:1000C0007A0B3A0A2306970752089908C108FE08D6
:1000D0001C099F097A0BE6090D0A2F097A0B7A0B86
:1000E000450A7A0B550AD102B104B804C3050A09BE
:1000F0007A0B7A0B8A062907AF06A3064406C306C5
:10010000F206EA06FC0609077A0B58064E06DF06D9
:1001100074061B06F5020B06800AB403880A960AC9
:10012000F230F6309F325E336E338F3364330E34E9
:10013000511751175117511751175117511751177F
:1001400056174C174C174F1758175A17637C777B65
:10015000F26B6FC53001672BFED7AB76CA82C97DC3
:10016000FA5947F0ADD4A2AF9CA472C0B7FD932654
:10017000363FF7CC34A5E5F171D8311504C723C358
:100180001896059A071280E2EB27B27509832C1A9C
:100190001B6E5AA0523BD6B329E32F8453D100EDF6
:1001A00020FCB15B6ACBBE394A4C58CFD0EFAAFBDA
:1001B000434D338545F9027F503C9FA851A3408FA2
:1001C000929D38F5BCB6DA2110FFF3D2CD0C13ECBA
:1001D0005F974417C4A77E3D645D197360814FDC4F
:1001E000222A908846EEB814DE5E0BDBE0323A0A33
:1001F0004906245CC2D3AC629195E479E7C8376DB7
:100200008DD54EA96C56F4EA657AAE08BA78252EDB
:100210001CA6B4C6E8DD741F4BBD8B8A703EB56664
:100220004803F60E613557B986C11D9EE1F8981155
:1002300069D98E949B1E87E9CE5528DF8CA1890D44
:10024000BFE6426841992D0FB054BB16920F003C97
:100250000600730000002121210101010F01012B83
:10026000002800050080FF000801000001AE02D553
:10027000F002A81F02D300014002AD8E02D8050192
:10028000A101C802200002DA1205913F3F3F3F0260
:10029000818002D9C202DB0801A401A616034D0029
:1002A0006F006F006C0074006900700061007300E3
:1002B0007300000006035300450000000403090416
:1002C00005010906A10175019508050719E029E74F
:1002D00015002501810295017508810395057501B9
:1002E00005081901290591029501750391039506E9
:1002F0007508150025FF0507190029E78100C006CC
:1003000031FF0A7400A1017508150026FF00954011
:1003100009018102954009029102C00902420002CE
:1003200001008032090400000203000000092111CD
:10033000010001221C00070502034000010705819E
:10034000034000010904010001030101000921111A
:10035000010001223F00070583030800011201008C
:100360000200000020D016A00900010102000101D6
:10037000C13601C03601C10600000100005D031254
:10038000000200001B034200220000FF021C0021AB
:1003900000002D030900220100C0023F00210100DE
:1003A0004D030900030000BC020401030904B40268
:1003B00006020309049C021611241FBECFEFDAE0E7
:1003C000DEBFCDBF11E0A0E0B1E0E2E2FFE602C097
:1003D00005900D92AA34B107D9F727E0AAE4B1E05D
:1003E00001C01D92A136B207E1F70E945A2D0C946C
:1003F0008F3706CEAEEDB0E0E0E0F2E00C941437BB
:10040000182F7E0125E8E20EF11CC7010E94B627D5
:1004100081110C947A0BC252DF4F1882CE5DD0400E
:10042000D7011196DC90113019F0B9EBDB1222C024
:1004300019820E943F258F3F19F489818160898349
:10044000113019F489818260898380915E01813045
:1004500019F4898184608983809100018C3019F4BA
:10046000898188608983AE014F5F5F4F61E089EBCE
:100470000C94530BF7011081F3EADF1611F40C947E
:100480006E0B29EAD21611F40C946E0B82E48D0DDA
:10049000823010F40C946E0B36EAD31699F089E58D
:1004A0008D0D823010F40C94710B86EBD81651F040
:1004B00097EBD91611F40C94740BA8EDDA1223C043
:1004C0000C94770B0EE3011730F1112321F1602F0B
:1004D00070E05701B2E0AB0EB11CC5010E94473677
:1004E000212F30E0019628173907A9F40A3359F46F
:1004F000D5018C91882339F090E00E944537F501B1
:1005000081935F01F5CF8BE38D0D803158F480919D
:100510006001811107C0AE0142525F4F61E08D2D35
:100520000C94530B8D2D90E0FC01E15AF109EA3354
:10053000F10510F00C947A0BEA5AFF4F0C9408372F
:1005400046E0B70180E00E9444250C947A0B8BE0D2
:10055000E5E2F1E0DE01119601900D928A95E1F756
:10056000AE014F5F5F4F6BE082EA0C94530B8091BA
:100570006001813011F40E94D41A80915E018130B3
:1005800011F083E008C060E0C70102960E944D129E
:10059000811116C781E0C252DF4F8883CE5DD04003
:1005A000BACF80915E01813061F761E0EDCFC70184
:1005B0000E946117811104C7F70101900020E9F73B
:1005C0006E2F6E19A70184EA0C94530BC7010E9489
:1005D00003138111F5C6F70101900020E9F76E2F92
:1005E0006E19A70185EA0C94530B80914D0181305F
:1005F00009F0E6C68091E004882309F4E1C6A6C7A5
:1006000080914D01882309F4DBC610924E011092AF
:100610004A0160E070E083E00E94E0215701B2E00F
:10062000AB0EB11CB5018091590190915A010E9405
:100630005B1390934C0180934B01892B21F081E057
:1006400080934E01A7CF8CE496E090935201809363
:1006500051018AE10E94CE1D909354018093530171
:10066000B0925601A092550161E571E083E00E94CD
:10067000CE15882311F01FEF72C00E941C1784E86A
:10068000E3EFF4E0DF011D928A95E9F765E175E09B
:1006900087E595E00E948112412F50E0B50188E185
:1006A00095E00E945A3784E20E94CE1DBC0189EF7A
:1006B00094E00E946A37A0905901B0905A0180914D
:1006C000F3049091F4049F7390649093F4048093E6
:1006D000F30480915C0190915D01909312058093E9
:1006E00011059093140580931305B5018CE895E0EE
:1006F0000E94AA1B80909205909093050FE325E23B
:10070000AE014F5F5F4FB40183EF94E00E94B71BCF
:100710008111B1CF89819A818816990681F0B5013E
:100720008CE895E00E94AA1B89819A819093930599
:10073000809392056CE875E0C5010E94641BB701C7
:100740006E5F7F4FC5010E945B1390934C018093B5
:100750004B0181E080934A0180934E0110E00E949A
:10076000401711112DC616CF80914E01882309F430
:1007700027C680914D01882309F422C66091590152
:1007800070915A0184E496E00E948C1C60914B01A8
:1007900070914C0183EF94E00E946E1C80914A019D
:1007A00081111CC08CE496E090935201809351011A
:1007B0008AE40E94CE1D909354018093530188E1F6
:1007C00095E0909356018093550161E571E083E0D7
:1007D0000E94CE158111F2C50E94401700914B0175
:1007E00010914C01B80183EF94E00E946E1C88E1E7
:1007F000F7013296A9EFB4E001900D928A95E1F7E6
:1008000063EF74E0C8010E94641BB80183EF94E0B9
:100810000E946E1CBFCE80914E01882309F4D0C582
:1008200080914D01882309F4CBC5609159017091E5
:100830005A0184E496E00E948C1C60914B017091F7
:100840004C0183EF94E00E946E1C60E2611BC701C3
:100850000296810F911D0E940A228CE496E09093EB
:100860005201809351018BE10E94CE1D909354015F
:100870008093530188E195E0909356018093550150
:1008800080914A01813039F480914A0181110BC075
:100890000E94401708C061E571E083E00E94CE1518
:1008A000882391F38BC510924A01B2E0EB0EF11C44
:1008B000BE016F5F7F4FC7010E94811200914B0103
:1008C00010914C01B80183EF94E00E946E1C80915E
:1008D0005C0190915D0190931205809311059093B6
:1008E00014058093130580E2F701A7E5B5E00190B8
:1008F0000D928A95E1F789819A81AB8180931505E4
:1009000090931605A093170563EF74E0C8010E9449
:10091000641BB80183EF94E00E946E1C80917E05F9
:10092000811138CECE018B539F4F0E944C1ACB536E
:10093000DF4F8881C55CD0408F5FCB53DF4F88830A
:10094000C55CD04081E080937E05CE018B539F4FE4
:1009500077C18091E304882309F413C6BCC640E044
:1009600001C041E0612FC70102960E94F91710CE25
:10097000F701028180915B01882309F421C58091F0
:100980005001811160C080914A0690914B06892BDD
:1009900011F08DE401C084E30E94CE1D90935201BA
:1009A000809351018CE496E090935401809353011D
:1009B00061E571E082E00E94CE15811142C0A090F5
:1009C0004A06B0904B06A114B104C9F0B50183EFFB
:1009D00094E00E94AA1B9090F504C090F60444E8AD
:1009E00050E06FEF70E083EF94E00E94633763EFB5
:1009F00074E0C5010E94641BA92CBC2CE4CF84E8E0
:100A0000E3EFF4E0DF011D928A95E9F7CC24C3946B
:100A1000C0924F0110926201C09250011092610188
:100A200080917D0581110DC0CE0101960E944C1A66
:100A30008A818F5F8A83C0927D05CE0101960E94D4
:100A4000581A0E94401780915001882309F4B8C4B5
:100A5000C09061018C2D90E089509B4FF701339637
:100A600020E2DC0101900D922A95E1F7BE016B5363
:100A70007F4F0E948112C1100DC0CB53DF4F888180
:100A80009981AA81C55CD0408093C5069093C60623
:100A9000A093C70680E28C0D80936101803819F025
:100AA000002309F46CC090E09093F4048093F30465
:100AB000C0904F01E0905901F0905A0120E040E0D1
:100AC00050E0BE016F5F7F4F82E00E94E9198230E3
:100AD00009F076C4B1E0CB121BC0B7018CE895E0F9
:100AE0000E94AA1B46E050E064E476E08CE895E0C2
:100AF0000E944D37892B09F063C489819A819093B4
:100B00004B0680934A0664E476E0C7010E94641BAA
:100B10008091F3049091F404907E20917F05922BB4
:100B20009F71906C9093F4048093F304011106C0BC
:100B30008B819C819093F6048093F50463EF74E0BD
:100B400089819A810E94641B8B819C8190938B0583
:100B500080938A0584E8E3EFF4E0DF011D928A9533
:100B6000E9F710924F0110926101002341F081E0FA
:100B700090E090934B0680934A06109250011132F8
:100B800009F01EC407CD80915B01882309F418C4C5
:100B90008091E004811139C06091590170915A012E
:100BA00084E496E00E948C1C8091C5069091C60654
:100BB000A091C7068093650190936601A093670199
:100BC00080914A0690914B06909364018093630153
:100BD00085E30E94CE1D90935201809351018CE4D5
:100BE00096E0909354018093530161E571E082E0B7
:100BF0000E94CE15811107C068EE73E083E00E9469
:100C0000E021109262010E9440178091E004882345
:100C100009F4D6C3EDC420915E01213019F0D7014B
:100C20001C9205C0F7012193CF010E944C1AA70125
:100C300063E086ED38C5123009F0C2C3C7010296E1
:100C40000E94581AA7CC10915E01113009F063CCB4
:100C500081E20E94CE1DBC0181EF0E94CE15811160
:100C60006BC30E94281D81110BC088E08093000196
:100C7000C252DF4F1883CE5DD040109360015CC339
:100C80008AE08093000158C30E94BC1A9A8389832A
:100C9000AE014F5F5F4F62E089EC05C50E94A21A6A
:100CA0009A838983AE014F5F5F4F62E081EDFBC4A1
:100CB000123009F085C3D70112964D915C911397BC
:100CC000242F277063E0569547956A95E1F7BE019A
:100CD0006F5F7F4F8FE10E94E919682F660FAE01A9
:100CE0004F5F5F4F80EDDFC481E080930001C2520F
:100CF000DF4F8883CE5DD04010926E0110926D015F
:100D0000109260010E944017DDD70E94D41A0E9401
:100D1000361A01CC123009F053C3F7018281938156
:100D20000E94731B81114CC3D70112966D917C9167
:100D30001397CE0101960E94AA1BAE014F5F5F4F31
:100D400064E885ECB0C4153009F03AC3F701458179
:100D500056816381748182810E947C1A1BCC113080
:100D600009F02EC3AE014D5F5F4FBE016F5F7F4F35
:100D7000D70112968C910E94961CAE014F5F5F4F77
:100D800064E087EC90C4123009F01AC3F701828145
:100D900093819A83898390938505809384056091DC
:100DA0008205709183059E012F5F3F4F42E050E026
:100DB00080918005909181050E94B321EBCB123088
:100DC00009F0FEC2D70112968D919C9113970E9453
:100DD000261BE0CB133009F0F3C2C70102960E9434
:100DE000701AD8CBCE0101960E94641AAE014F5FF3
:100DF0005F4F63E08BEC57C4183109F0E1C2B701D3
:100E0000665F7F4F40917F05C70102960E943314B1
:100E1000BFCBF0907F0503E610E0C8010E94953635
:100E2000F81210C048E150E0B8016F5F7F4FCE016B
:100E300001960E948536AE014F5F5F4F68E18FECEF
:100E40000E949925075E1F4F073EB3E01B0729F755
:100E5000A1CB133008F4B4C2F7018481811116C00C
:100E6000828193810E94731B811110C0D701129659
:100E70008D919C91139790936E0180936D0133E057
:100E8000969587953A95E1F70E949521F701A28002
:100E9000B38080916D0190916E01A816B90609F09A
:100EA0008FC2A114B10409F48BC22481FBE32F9FEC
:100EB000C0011124412F50E043505109BC01640F7F
:100EC000751F653871050CF07BC221110DC0D7016B
:100ED00015962D913C911697307E60917F05362BAB
:100EE00016963C932E9315972A2D2770B4E82B9FC6
:100EF000800D911D112424E829831A829B838C8301
:100F0000B7016B5F7F4FCE0101960E9421210E94A5
:100F10001821F7018481823009F03CCBC50123E020
:100F2000969587952A95E1F70E942E3633CB88E077
:100F300090E090936C0180936B0110926A01109283
:100F4000690182E690E00E949536C82E82E090E02A
:100F50000E949536B82E80ED97E00E94FA2110315C
:100F600009F02EC2809100018B3031F0FBEABF12F4
:100F700003C02DECC21224C280E30E94CE1DCB52CE
:100F8000DF4F99838883C55DD04081E30E94CE1DE9
:100F9000C952DF4F99838883C75DD0408E010B53C0
:100FA0001F4F80E1D8011D928A95E9F760E271E058
:100FB000C8010E946A3746E050E068EF73E0C8015C
:100FC00004960E9485364EE150E063E270E0CE0167
:100FD00001960E94853642E050E06EEF73E0CE014C
:100FE0004F960E948536B801CE0101960E943313B8
:100FF000F801D7011296B7016E5E7F4F80E0219114
:101000009D919227892BA617B707C9F790E1F801A0
:1010100011929A95E9F7FBEABF16C1F00E94CC182D
:101020000E94FB1881E0C252DF4F8883CE5DD04022
:101030008093680144E050E061E470E080E291E078
:101040000E94A2362BEAB21266CA17C03DECC31644
:1010500029F3811171C1BE016B527F4F82E00E9462
:10106000CE15811169C18BE40E94CE1DBC0181E0C7
:101070000E94CE15882391F25FC18DECC81609F449
:101080004ACA8DE0809300010E94401760ED70ED28
:1010900080E090E00E94B93660E67AEE87E00E9438
:1010A000E02139CA809168018823B1F0A0906B01DA
:1010B000B0906C019FEFA916B10409F068F4412FBC
:1010C00050E08091690190916A018A01080F191F0F
:1010D0000930A1E01A0740F0C252DF4F1882CE5DFE
:1010E000D0401092680117CA24E829831A829B8392
:1010F0008C83B7016E5F7F4FCE0101960E94212144
:101100000E94182110936A01009369010830B1E030
:101110001B0709F03FCAC5010E942E3610926A01D2
:1011200010926901C501019690936C0180936B0147
:1011300031CA80916801813061F480916901909198
:101140006A01892B31F080916B0190916C010E94B2
:101150002E3681E0C252DF4F8883CE5DD0401092A0
:10116000680182E090E00E9495368B3A09F0D3C97D
:1011700082E690E00E9495368D3C09F4CCC90E942D
:10118000DF1F123009F01CC1F70182818C3121F47C
:101190000E943F25811114C1D70112968C9112979C
:1011A000813238F490E013966C918F5B9F4F0E94D0
:1011B000AB3684E490E00E94953680935F0181E035
:1011C000C252DF4F8883CE5DD0408BE590E00E9415
:1011D000953691E899838A8362E0CE0101960E9458
:1011E000E6188EE590E00E9495368093CA068DE55C
:1011F00090E00E9495368093C9068DC9F7018281DF
:10120000813230F490E08F5B9F4F0E949536C3C9C6
:1012100080E0C1C9809100018C3029F080915E018D
:10122000813009F0CDC0CE010196D5D5AE014F5F1A
:101230005F4F68E082EC37C2809100018C3009F08A
:10124000BFC040D5CBD6811172C00E94A03581E0CD
:10125000C252DF4F8883CE5DD0408BE012CD183173
:1012600009F0AEC0809100018C3009F0A9C0CE0118
:101270000196B1D527D548E050E0B7016E5F7F4FAA
:10128000CE0101960E944D37892B09F050C0A6D699
:1012900081114DC0BE016B527F4FCE0183529F4FD3
:1012A0000E9472148F3F09F442C0C352DF4F8881FD
:1012B000CD5DD0400E94421BC352DF4F8881CD5D7F
:1012C000D0400E948713CE018B539F4F84D5C352C9
:1012D000DF4F4881CD5DD040B701665F7F4FCE01C3
:1012E0008B539F4F0E94331491E0811101C090E015
:1012F00091111DC0AE014F5F5F4F68E188E31ED5BD
:10130000C352DF4F8881CD5DD0400E948713B70163
:10131000665F7F4FCE0101960E94C0130E94F113B9
:1013200081E0C252DF4F8883CE5DD040AACCC2524A
:10133000DF4F1882CE5DD0400E944017ECC88091EC
:101340005E01813021F0809100018C30C9F586E288
:101350000E94CE1DBC0181E00E94CE1581112EC0DD
:1013600080915E01813039F50E944017AE014F5FD8
:101370005F4F6EE58CE9E2D4AE014F5F5F4F6EE3E5
:1013800084EB0E949925AE014F5F5F4F68E386E5CD
:10139000D5D4AE014F5F5F4F6EE384EB0E94992579
:1013A000809100018C3009F0A5C10E94091D0E94A6
:1013B000072252D69FC112D68823B1F20E9440174D
:1013C000C252DF4F1882CE5DD040A5C800915E01A9
:1013D0000130B1F787E20E94CE1DBC0181E00E947E
:1013E000CE158111A4CFAE014F5F5F4F6CE58CE944
:1013F000A5D480E00E946935412F50E0B7016E5FAF
:101400007F4FCE0103960E945A37AE014F5F5F4F68
:1014100060E072E080EE92E026C000915E01013053
:1014200079F688E20E94CE1DBC0181E00E94CE15B3
:1014300081117DCFAE014F5F5F4F66E186E57ED4BF
:1014400081E00E946935412F50E0B7016E5F7F4F08
:10145000CE0183960E945A37AE014F5F5F4F60E026
:1014600072E080EB90E0C2D4C252DF4F0883CE5DC1
:10147000D04062CF60E2CE0101960E940A22AE0106
:101480004F5F5F4F60E28CEA0EC181E0C252DF4FD6
:101490008883CE5DD040D70112968D919C91139791
:1014A00090935D0180935C0136C8103109F088CFBC
:1014B00087EE93E00E9495368B3B09F081CF40E1A7
:1014C00050E068EE73E0CE0101960E94853668EE2A
:1014D00073E083E00E94E021B7016E5F7F4F40E13F
:1014E00050E0CE0101960E944D37CB53DF4F8883E9
:1014F000C55CD0408091E004882309F4D7C0FACFBE
:10150000BE0162527F4FC70102960E94721403C847
:1015100080915E01813009F053CF8AE08093000111
:101520000E9440170E94091D0C948B0224E030E0B9
:101530004CE75FE760E070E0CE0101960E94512D1C
:10154000AE014F5F5F4F64E08AEDADC080914E0108
:10155000813009F035CF60914B0170914C0183EFE0
:1015600094E00E946E1C69EF74E0C7010E946A3724
:10157000F70101900020E9F76E2F6E19A70185EDA4
:1015800092C080914E01882309F41ACF80914D01B9
:10159000882309F415CF60914B0170914C0183EFC2
:1015A00094E00E946E1C65E175E087E595E00E947D
:1015B000D912B7016E5F7F4F40E250E087E595E0BA
:1015C0000E948137892B49F480E2E7E5F5E0DF01ED
:1015D0001D928A95E9F70C94CA0280E2E7E5F5E0EE
:1015E000DF011D928A95E9F760EA7FE084E00EC092
:1015F00010916201111127C0609163017091640123
:101600006115710531F460E070E083E00E94E02133
:10161000D7CE83EF94E00E94AA1B8091F5049091AD
:10162000F60490936401809363018091F304909198
:10163000F40488279072892F992782958695877060
:10164000813009F4BDCE812F90E0FC01E950FB4FC1
:101650006F0165E671E0CF01ACD768EE73E083E01F
:101660000E94E02163E085E691E0E2D563E085E653
:1016700091E0DED580E2F601D70101900D928A95C6
:10168000E1F7105E10936201812F90E02091F30446
:101690003091F40433278217930710F010926201FF
:1016A000A70160E281EC0E94992524C0CB53DF4F53
:1016B0008881C55CD040811183CE46E050E068EF60
:1016C00073E0CE0101960E948536AE014F5F5F4FF9
:1016D00066E08DEBE8CF82E00C94CB020AE30C9439
:1016E000630200E20C9463020EE10C94630208E1D1
:1016F0000C946302C252DF4FECE00C9430378BE065
:101700008A95F1F70895889A2F98F9CF2F9888989D
:10171000F6DFF5CF1CBC29982A98F1DFF7CF29987E
:10172000EEDF299AECCF299AEADF2998E8CFCF9308
:10173000DF93DC01EB015D96EC915D97F0E0E45BFB
:10174000FE4FE4918881E8278C91E827EC935E9620
:10175000EC915E97F0E0E45BFE4FE49111968C9182
:101760001197E8271196EC9311975F96EC915F978C
:10177000F0E0E45BFE4FE49112968C911297E8271B
:101780001296EC9312975C96EC915C97F0E0E45B18
:10179000FE4FE49113968C911397E8271396EC93E0
:1017A00013978881982F991F9927991F2BE1929F52
:1017B000902D1124880F89278883ED01CD010C9687
:1017C000FD01348120812327248335812181232732
:1017D000258336812281232726833781238123276E
:1017E00027833496E817F90761F71C96EC911C974C
:1017F000F0E0E45BFE4FE49150962C915097E22785
:101800005096EC9350971D96EC911D97F0E0E45B99
:10181000FE4FE49151962C915197E2275196EC930B
:1018200051971E96EC911E97F0E0E45BFE4FE49119
:1018300052962C915297E2275296EC9352971F960C
:10184000EC911F97F0E0E45BFE4FE49153962C91EE
:101850005397E2275396EC933C89288923272C8BB6
:101860003D89298923272D8B3E892A8923272E8B81
:101870003F892B8923272F8B24968C179D0761F78F
:10188000DF91CF910895AC0190E1915068F0292F3C
:1018900030E0FA01E20FF31FDB01A20FB31F8081DA
:1018A0002C9128272083F1CF08959C0190E191503D
:1018B00050F0D901A90FB11DEC91F0E0E45BFE4FAF
:1018C000E491EC93F4CF0895EF92FF920F931F935E
:1018D000CF93DF938C01F62EC42F46E0460F20E015
:1018E00060E080E00E948F248EE38093090181E014
:1018F00080936F018C2F0E94CE1DBC0185E00E9459
:101900008A2410926F0180E88093090182E00E948E
:10191000B018E80100E410E086E0E82E00935F07CD
:10192000E0925E07F11611F08AE206C088818A30E3
:1019300010F0895C01C0805D0E9443231F5F0F5E31
:101940002196143059F781E00E94B0180E94FB18CC
:10195000CDB7DEB7E6E00C943637CF93C82F2F9A79
:10196000CEDECC2311F02A9A01C02A98C8DE299A2B
:10197000C6DE2F9884E090E00E94FA212998BFDE0D
:101980002A98BDDECF9108950F931F93CF93DF93D5
:101990008C01C0DEC0E5D0E0C2DE2197E9F7AFDE02
:1019A000CFE0D0E0F801808191810C2E02C09695A5
:1019B00087950A94E2F780FF02C02A9801C02A9A0C
:1019C0009EDEADDE219770F7299899DE98DE2A9881
:1019D00096DE95DEC0E0D0E01B9B1AC081E0BDDF43
:1019E0001B99FECF80E0B9DF1B9909C0209749F011
:1019F000C130D10541F0229741F0C4E007C0C0E0FA
:101A000005C0C1E003C0C2E001C0C3E08CDE06C077
:101A10008ADE2196C430D105F9F6C4E074DE83E590
:101A20008CBD8C2FDF91CF911F910F910895CF9393
:101A3000DF93882339F0823041F0813049F0C0E0F3
:101A4000D0E008C0C4EBD5E005C0C8E1D6E002C0D4
:101A5000C9EFD5E05FDE219710F065DEFCCF889AF4
:101A600081E07BDF50DE83E58CBDDF91CF9108956F
:101A7000A4E0B0E0EEE3FDE00C9411376C01962E8B
:101A800081E690E00E949536882ECE0101967C0179
:101A9000811006C084E0F70111928A95E9F70DC024
:101AA00064E00E940A22F7019E012B5F3F4F808174
:101AB0008F7081932E173F07D1F70E94AD15492DE6
:101AC00060E0C70101DF10E00FEF30E1732E662404
:101AD0006A9481E00E94FA0160E080E05DD7B82E50
:101AE0008FEF8B0D823010F5812F90E0F701E80F1A
:101AF000F91F20812F3029F421E0B2120DC060823D
:101B000082C0211105C042E0B4127DC0708204C0C1
:101B1000E1E0BE1609F477C0F701E80FF91F8081F4
:101B200081508083492D612FC701CEDE0E943F2561
:101B3000882339F08091DA04811107C081E0809315
:101B4000DA04552453940FEF01C0512CF4E0BF1276
:101B500028C0112311F1A12EB12C1150811009C000
:101B6000F701EA0DFB1D1082F701E10FF11D108254
:101B700022C0C501019762E08E0D9F1D0E940A22BE
:101B8000F701EA0DFB1D80818F708083F701E10F63
:101B9000F11D80818F7080830EC0552453940FEF08
:101BA0000AC023E0B2120BC0133010F41F5F03C051
:101BB0005524539400E0492D612FC70185DE55203F
:101BC00009F487CF898190E0982F88279295907F9C
:101BD0002A81922B2C81822B2B8140E1249F900122
:101BE0001124822B932BF6019183808384E0F701EB
:101BF00011928A95E9F781E00E94B018802F24960F
:101C0000EFE00C942D37F701E80FF91F80818F5F0B
:101C100088CFA6E0B0E0EFE0FEE00C941A37209108
:101C20001201309113014091140129833A834B83AF
:101C30002091150130911601409117012C833D83AD
:101C40004E83FB0101900020E9F731977F01E61AEE
:101C5000F70A082F10E0F801E658FA4F80819B013F
:101C6000280F311DDE01A00FB11FFD0141E01496C8
:101C70006C9181810E942824F801E958FA4F9E2D29
:101C8000981B90832696E6E00C94363783E0EAE7CB
:101C9000F5E0DF011D928A95E9F70895A7E7B5E021
:101CA000EAE7F5E09D91992339F08081981719F0C2
:101CB0008F5F808301C01082319685E0ED37F80791
:101CC00089F7089560E67AEE80E00E94E02185E4DD
:101CD00090E00E949536682F70E089E00E94E02134
:101CE00083E490E00E9495368A3120F4873018F41E
:101CF00087E001C089E1782F770F770F60E081E0FE
:101D00000E94E02180917201811104C00E94DD18BF
:101D10000E94072280917501813011F410927501A3
:101D200008952D9A109254042F9827988898809897
:101D30001CBC219885B1897F85B90895A0E0B0E0E9
:101D4000E4EAFEE00C941937E82ED62EF42E052F87
:101D5000DDDCCF2DD02F10E01E1591F01EBC0DB490
:101D600007FE06C01D1548F08EB58883219606C073
:101D70000E943F258F3F99F3F5CF8EB51F5FECCFC3
:101D8000C2DC8F2D902FCDB7DEB7E7E00C9435374E
:101D9000A2E0B0E0EEECFEE00C941E37AE014F5F27
:101DA0005F4F6CE08EE0CADF498150E024E030E014
:101DB00080E0BA01022E02C0759567950A94E2F799
:101DC00060FD8F5F2F5F3F4F2830310591F72296DE
:101DD000E2E00C943A37CF93DF93EC01AC016EE074
:101DE00086E1ACDFCE01DF91CF910895A0E0B0E0B5
:101DF000ECEFFEE00C9416378C017B016A018ADC63
:101E0000003E82E0180718F4C0E0D0E018C0CFED23
:101E1000D2E089DC2197E9F72A9A85DC2A98C0E08C
:101E2000D0E0580180EEA81A82E0B80ACA15DB0596
:101E300018F479DC2196FACFC0E0D0E029C0C017B1
:101E4000D107D1F370DC2196FACFCE01800F911F1C
:101E50008F709927892B01F12097F1F0FE0183E023
:101E6000F695E7958A95E1F7EC0DFD1D808190E0F0
:101E70009E01209530952770332702C09595879550
:101E80002A95E2F780FD02C081E067DD4CDC2196F7
:101E9000CE15DF05D1F603C080E05FDDDFCF33DC98
:101EA00083E58CBDCDB7DEB7EAE00C943237A2E013
:101EB000B0E0EDE5FFE00C941E3780E889831A82DC
:101EC000AE014F5F5F4F60E170E080EB90E08EDF2E
:101ED000AE014F5F5F4F60E170E080EE92E086DF21
:101EE0002296E2E00C943A37CF93DF93EC0188819D
:101EF000998198278927982799838883AE0160E183
:101F000070E080E590E072DF8881998198278927C9
:101F1000982799838883DF91CF910895A4E0B0E05A
:101F2000E4E9FFE00C941E37AE014F5F5F4F62EBB8
:101F300084EB04DF89819A81809590959C838B83C3
:101F4000AE014D5F5F4F60E170E080E995E04EDFEC
:101F5000AE014F5F5F4F62EB84EBF0DE81E04B81BF
:101F60005C8129813A814217530709F080E081950D
:101F70002496E2E00C943A37A4E0B0E0E2ECFFE013
:101F80000C941E3701DD811123C0C8DF8F3F11F48F
:101F900081E020C0AE014D5F5F4F66E188E1CEDE9B
:101FA000AE014F5F5F4F6CE58EE5C8DE8B818038F8
:101FB00079F78C818111ECCF8981803849F781E0F4
:101FC0009A81911101C080E08111E2CF89E002C0C5
:101FD000DFDE8B5F2496E2E00C943A37A2E0B0E0BB
:101FE000E4EFFFE00C941C37D3DE813021F48CE465
:101FF0001BD701E001C000E064E1CE01019638DDAD
:10200000182F811123C0CE010196B6DF853059F01B
:102010001CF48130A9F017C0863039F0893099F46A
:102020001A82198214C081E00CC08CE1FDD6011126
:1020300007C083E0FFD60E943F258111FCCF06C078
:1020400082E0F2D603C08A5EEFD6D6CF1FEF812F93
:102050002296E4E00C943837A4E2B0E0E2E3F0E149
:102060000C941C372D9881E0809354042F98279A64
:10207000889A809A85B1897F85B984B1866084B950
:1020800083E58CBD0E9407220E940722AE014B5EB1
:102090005F4F60E082E052DE8D899E898F309F40E5
:1020A00081F5AE014F5F5F4F60EB82EB47DE8981C8
:1020B0009A8105969A838983AE014F5F5F4F60E1F5
:1020C00070E080E895E092DEAE014B5E5F4F60EB22
:1020D00082EB34DE2D893E8989819A812817390760
:1020E00009F07AC055DE823071F030F4882309F4AB
:1020F00075C0813041F072C0833029F0843019F00E
:102100006DC080E06CC0AE014B5E5F4F62EB84EB54
:1021100015DE8D899E89019609F044C000EF10EF0D
:102120001CA30BA3CE0183962FDC811155C01AA3EB
:1021300009A3F4DE882309F44FC018A30F8F8FEF93
:1021400089838A83AE014F5F5F4F61E070E081EA6F
:1021500095E04CDECE014F96C7DECE018196C4DEFF
:1021600060E371E0CE0101960E946A37AE014F5FD5
:102170005F4F60E470E080E190E038DE87E09EED44
:102180009A838983AE014F5F5F4F60E170E080E921
:1021900095E02CDE8CDE80E04ADC81E048DC82E0E9
:1021A00046DC16C0CE01459616DE48E050E068E3F6
:1021B00071E0CE0145960E944D37892B59F480EF8E
:1021C00090EF9A838983CE010196D6DE893021F47F
:1021D00083E005C084E003C081E001C082E0A496F2
:1021E000E4E00C943837A1E0B0E0E9EFF0E10C94C2
:1021F0001E3780915504898389818130A1F08981BE
:10220000882389F08FB7F89490915504923021F487
:1022100091E09093550406C090915504933011F4C9
:10222000109255048FBF89812196E2E00C943A37D1
:10223000AC01662351F06150FA01E60FF11D908167
:1022400021E0290F20839F3FA1F30895DC01FB01CA
:10225000415028F081919C9189278D93F9CF089561
:10226000A1E0B0E0E6E3F1E10C9414377C018B01CE
:10227000AC01405E5F4F20E12150D0F0822F90E012
:10228000FA01E80FF91F3081F701E80FF91F3083D9
:10229000F801E80FF91F6081362730834096FA0174
:1022A000E80FF91F3081F701E80FF91F3083E4CF01
:1022B00081E0898399249394680180E1C80ED11C40
:1022C0008BE1882E5701E0E1AE0EB11CC801EDDABA
:1022D000F801818195819183918595839585918779
:1022E0008587828592819287828383819785938374
:1022F000938597879781938787838685968196872D
:1023000086838081618152813381982F9627252F82
:102310002327422F492797FF03C0990F982501C013
:10232000990F942798279083962F952797FF03C09E
:10233000990F982501C0990F94279627918327FF1D
:1023400003C0220F282501C0220F2427252722831E
:10235000832787FF05C0982F990F892F882501C0F3
:10236000880F8427832783833496CE16DF0649F6A9
:1023700090FE02C0B50106C0BE016F5F7F4FC7016E
:10238000D6D9B701C8017FDA9394FEE09F129ECFA1
:10239000C8018BDAF80181819581918391859583BC
:1023A00095859187858782859281928782838381B3
:1023B000978593839385978797819387878386856E
:1023C000968196878683BE016F5F7F4FC701AFD925
:1023D000B701C80158DA2196ECE00C943037A1E03F
:1023E000B0E0E5EFF1E10C941B3721E02983DB013C
:1023F000FC01B0968C01005C1F4F8D9180A38193EE
:10240000E017F107D1F788E0F82EFA94FF2031F0B9
:10241000BE016F5F7F4FC8018AD9F7CF2196E5E0F3
:102420000C943737CF93DF93EC01B6D6BE018AE028
:102430000E948A24E0D6DF91CF910895A2E0B0E017
:10244000E4E2F2E10C941A378C017B0142E050E0A7
:1024500060E478E0CE0101960E94482189819A814A
:1024600008171907A8F4019699F0B8016F5D7B4F22
:10247000660F771F42E050E0C7010E944821F70134
:1024800080819181805C974F9183808380E001C03F
:102490008FEF2296E6E00C943637CF93C62F0E943A
:1024A000802A90935A018093590110924D01109205
:1024B0004E0110924A0110925B011092500160E0AF
:1024C00070E083E00E94E02110924F016091590179
:1024D00070915A016115710589F080915E0181301A
:1024E00069F4C11103C080934D0106C080935B0164
:1024F00084E496E00E948C1C80E001C08FEFCF91B5
:102500000895A0E1B0E0E7E8F2E10C941A377C010D
:102510008B0164E170E083E00E94E021CE0101962E
:10252000D3D743E050E06AE771E0CE0101960E9404
:102530004D37892B71F48B8190E0805C9F4F8B83AA
:10254000892F99272A81820F911D8A83CE010196B6
:10255000C7D780E1EDE7F1E0DE01119601900D9221
:102560008A95E1F743E06AE771E0CE010E966EDEF0
:10257000CE0101960E94CE28C7010E94DD288091DD
:102580007A0190917B01A0917C01F8018083918375
:10259000A28363E08AE791E04BDE63E08AE791E0A3
:1025A00047DE8091E0048111FCCF6096E6E00C9458
:1025B0003637A0E1B0E0EFEDF2E10C941A378C0170
:1025C0007B0164E170E083E00E94E02180E1EDE7BF
:1025D000F1E0DE01119601900D928A95E1F743E05A
:1025E000B701CE010E9632DECE0101960E94CE28B2
:1025F000C8010E94DD288091E0048111FCCF609623
:10260000E6E00C943637CF93DF9320914D012130D3
:1026100031F52091E004222311F120914E01213067
:10262000F1F4EC0160914B0170914C0183EF94E067
:102630000E946E1C65E175E087E595E0BADF1092B7
:10264000760567E575E0CE010E946A3780E2E7E52E
:10265000F5E0DF011D928A95E9F780E001C08FEF78
:10266000DF91CF9108950F931F93CF93DF93EC01E8
:102670008B0164E170E083E00E94E021BE018DECFB
:1026800096E0ADDEB8018DEC96E0EADD8091E004E5
:102690008111FCCF81E8EDECF6E0DF011D928A9517
:1026A000E9F780E2FE0111928A95E9F7DF91CF9177
:1026B0001F910F9108950F931F93CF93DF938B0179
:1026C000BC0184E496E00E948C1CC0914A06D09123
:1026D0004B06209719F480E090E014C0BE0183EF10
:1026E00094E00E946E1C4FE350E0B80188E195E051
:1026F0000E948137892B29F0C091F704D091F8040A
:10270000E8CFCE01DF91CF911F910F910895CF9324
:10271000803108F0FFCFC82F8695869590E0909382
:102720008105809380058C2F837022E4829FC001F5
:102730001124909383058093820504D79093870595
:102740008093860519D79093850580938405C0935F
:102750007F0510927D0510927E0520E040E050E05C
:102760006AE875E081E035D6811104C010928B05CE
:1027700010928A0519D78AE791E0A6D6CF910895DD
:10278000CF93DF93EC0180E1FB01ADE7B1E0019075
:102790000D928A95E1F7BE018DEC96E020DE8DE783
:1027A00091E00E94CE2880E2FE0111928A95E9F71D
:1027B000DF91CF91089510924D0110924E01109229
:1027C0004A011092600110925B011092500160E08A
:1027D00070E083E00E94E02110925E0110924F01B0
:1027E00008958FB7F89491E090935E018FBF08959C
:1027F000A8E0B0E0EEEFF3E10C9416377C016B013A
:102800005A0100E010E0C8018D599F4F0E94953693
:10281000F50180838031E0F448E050E0B8016C5964
:102820007F4FCE0101960E94853648E050E0B70107
:10283000CE0101960E944D37892B51F4B80164599D
:102840007F4F40E150E0C6010E94853680E007C01E
:10285000075E1F4F0438F3E01F07A9F68FEF289695
:10286000EAE00C943237A1E1B0E0E9E3F4E10C9442
:1028700015377C015B01942E00E010E0680183E6CF
:10288000C80ED11CC6010E949536803140F4075E07
:102890001F4F043883E0180789F78FEF1FC0AE0180
:1028A0004F5E5F4FBE016F5F7F4FC701A1DF8F3F5C
:1028B000A1F7692DC6010E94AB36B8016C597F4F54
:1028C00048E050E0C7010E94A236B80164597F4F2A
:1028D00040E150E0C5010E94A23680E06196EBE045
:1028E0000C943137A0E1B0E0E8E7F4E10C9415373F
:1028F0006C015B018E010F5F1F4F80E1F8011192A7
:102900008A95E9F783E6E82EF12C99249394C70180
:102910000E949536803120F4F801E80FF11D908275
:10292000F9E1EF0EF11C87EEE81683E0F80679F77F
:10293000F50110829E012F5E3F4FD8018D918111CC
:1029400004C0F50180818F5F8083A217B307B1F7C0
:1029500080E0F80191918F01911104C0F60180830C
:1029600080E004C08F5F8031A1F78FEF6096EBE0CD
:102970000C943137CF93DF93C2E4D0E0FE01E65FE1
:10298000FD4F6491CE010E94AB362196C236D1052F
:10299000A9F7DF91CF910895CF9390E021E06111E5
:1029A00002C09091590430917101323029F43FB73F
:1029B000F894209371013FBF30917101333051F091
:1029C000911108C04091560450915704493E53401C
:1029D00008F453C03FB7F8944091560450915704FF
:1029E000493E534020F0409179014423E9F0409161
:1029F0007101433051F4911119C040917901442380
:102A0000B9F010927901C7E01AC0409171014130CC
:102A100029F419167CF0992349F00EC0191674F0A8
:102A2000C1E091110CC002C0C4E009C0C0E007C001
:102A3000C3E005C0C6E003C0C5E001C0C2E010921B
:102A40005704109256044BEF4C0F423018F4209369
:102A5000790103C0C11110927101611102C010927D
:102A600059043FBF882329F0CC2309F498CF2AD9F1
:102A700007C0C111FCCFC0E003C0811190CFFBCFD4
:102A8000C09374018C2FCF910895AF92BF92CF92D3
:102A9000DF92FF920F931F93CF93DF93CDB7DEB7F3
:102AA00060970FB6F894DEBF0FBECDBF8C016B01EF
:102AB000F42E72D38F2D0E94CE1DBC0180E00E94A7
:102AC0008A2480E1F601DE01119601900D928A952B
:102AD000E1F7BE016F5F7F4FC801C5DD8E010F5F5B
:102AE0001F4F8DE8A82E81E0B82E9DEAC92E91E0F7
:102AF000D92E28E0F22EB501F80181918F010E94B4
:102B00003E2DB601F80187810E943E2DFA94F2E035
:102B1000AF0EB11C82E0C80ED11CF110ECCF6DE8F5
:102B200071E08AE00E948A246DEA71E085E10E94EA
:102B30008A2461D360E081E02FDF60960FB6F894BD
:102B4000DEBF0FBECDBFDF91CF911F910F91FF90E0
:102B5000DF90CF90BF90AF9008958FB7F894109208
:102B600074011092580410925A0410925704109253
:102B7000560410927101109259048FBF08958091EC
:102B80005904882349F09ED89FB7F894809159043E
:102B9000109259049FBF089580E00895ADE0B0E021
:102BA000E4EDF5E10C940E37182F262E772E807F5A
:102BB00069F01F708FE490E00E94953691E09A874B
:102BC000811101C01A86E1E0EB8702C01A861B86DC
:102BD0001F8218861986E0D281E78093090120E0E0
:102BE00043E060E00E948F24113031F4622D772D94
:102BF0008AE00E948A2431C0123029F485E089835A
:102C000080E18A8307C019828AE08A8385E18B8309
:102C1000123018F1822C972CCE0101965C012E0106
:102C200094E0490E511C6501F401619171914F01CD
:102C3000FB0101900020E9F731977F01E61AF70ABE
:102C4000F60181916F010E948A24E81AF201E19253
:102C50002F018C2D8A19811738F3CDD280E880930B
:102C6000090130D87ADF64EF71E082E00E94E02150
:102C700064EF71E088E00E94E02155245394312CE8
:102C80004E01F7E08F0E911C8091DA048111A4C0EF
:102C900081E08093DA040FEF0E94F427811101C0D4
:102CA0000FEF8091EF04811118C091E09093EF0431
:102CB000EA85E13091F4F3E0F31578F0FF24F39422
:102CC000F30C30FE02C086EA01C087EA70D264EFDE
:102CD00071E088E00E94E0213F2C61E080E05CDE52
:102CE000833021F0843019F403E001C002E00E9437
:102CF0003029823019F48B85811102E08091DD0446
:102D0000811148C0123008F445C046D264EF71E02A
:102D100082E00E94E02191E79093090120E05110A8
:102D200063C044E060E081E70E948F24FE01349696
:102D3000FD87EC87C22CD72CCE0101965C01740173
:102D4000EC85FD854190FD87EC87442009F451C056
:102D5000F7016080F60160817181660D711DF501DA
:102D600080810E948A24461409F440C06394F701CC
:102D70006082FFEFEF1AFF0A82E0C80ED11C9FEFBE
:102D8000A91AB90A8E2D88198117D0F234D2E0E839
:102D9000E0930901F4DE882369F020E0511002C0BD
:102DA00043E001C044E060E081E70E948F24F1E04D
:102DB0005F2621D2002309F467CF86EAF8D10230DA
:102DC00029F4852D8095817081951BC0033011F009
:102DD0008FEF17C082E015C00E943F2591E081115E
:102DE00090E0092F019558CF43E09CCFF701108266
:102DF000C0CFF60160817181F50180810E948A2433
:102E0000B8CF2D96E2E10C942A3721E020936F0190
:102E100009DB10926F0160E080E0BEDD8823D9F30A
:102E20000895BCD60C940F24B9D6FCDA80ED97E057
:102E30000C94FA21B3D6F6CA80E0FCCFA2E0B0E051
:102E4000E4E2F7E10C941C378C010E94380D8823D2
:102E500011F08FEF11C066E1CE0101960E94380D8E
:102E60008111F7CFF8012081318181E049815A81B8
:102E70004217530709F480E02296E4E00C943837B7
:102E800040910001842F90E08E309105C8F4FC0140
:102E9000E856FF4F0C94083721E040E00DC083E076
:102EA00008C0440F440F405C21E006C082E201C02C
:102EB0008BE0C0CF23E04EE060E080E00C948F24F4
:102EC0000895EF92FF921F93CF93DF9320914D01CE
:102ED000211102C08FEF87C0EC0110924E011092B9
:102EE0004A018091E004882339F001C0C9DF809154
:102EF000E004882379F365C06091590170915A010B
:102F000084E496E009D580914A0690914B06892B7E
:102F100009F31881112391F07E0182E0E80EF11C83
:102F20001F33C0F66EE370E0C7010E944736212FC1
:102F300030E0019628173907E1F0CCCF60E08091AE
:102F4000590190915A010E94442B90934C01809317
:102F50004B0196DF80914B0190914C01892B39F206
:102F600081E080934E0168EE73E083E00E94E021EF
:102F7000BECFB7018091590190915A019CDB90938B
:102F80004C0180934B01892B09F4B1CF8CE496E07E
:102F9000909352018093510180E400D690935401A4
:102FA00080935301F0925601E092550161E571E082
:102FB00083E0F4DD81119ACF81E080934E0160DFE0
:102FC000D2CF80914E01813009F084CF60914B01C6
:102FD00070914C0183EF94E081D468E175E0CE01FB
:102FE0000E946A3780E0DF91CF911F91FF90EF90B0
:102FF0000895A4E0B0E0EFEFF7E10C941A372091C8
:103000005E01211102C08FEF72C0142F062F7C01C8
:10301000642F0E94802A892BB1F7111102C089E127
:1030200001C083E3BBD59093520180935101F0928C
:103030005401E092530161E571E082EFAFDD81114F
:1030400053C0FADE402F50E0B7018CE496E00E94B6
:103050005A37111105C0E0908405F090850504C031
:10306000E0908605F090870510924B0610924A0674
:1030700080914406909145069F731111906890933A
:103080004506809344060AE328E0AE014D5F5F4F9A
:10309000B70184E496E06BD3082F81111EC08B81A9
:1030A0009C81E816F906C9F0111116C09A8389832C
:1030B00090938505809384056091820570918305C6
:1030C0009E012F5F3F4F42E050E08091800590913C
:1030D00081050E94B32101C0B9D266D211E001116D
:1030E00001C010E0119501C01FEFCADE812F2496A8
:1030F000E6E00C9436379B01482F477054E8459F13
:10310000B001112444E850E0E3E096958795EA95F4
:10311000E1F70C946E21A2E0B0E0E1E9F8E10C9453
:103120001C378B0190E080589F4F88D98F3F91F0DA
:10313000F8016081718142E050E0CE0101960E9469
:103140004821F80180819181029691838083898151
:103150009A8102C08FEF9FEF2296E4E00C943837FB
:10316000CF93C82F6EE474E0D6DF029799F4C09332
:103170000D0160914E0470914F0444E050E080E5F1
:1031800094E00E94482180915204813019F08FEF21
:1031900080930D01CF91089580E892E0EDECF1E08D
:1031A000DF019C011D9221503040E1F708955F98A6
:1031B0005C980E940B215F9A089572980E940722E2
:1031C0008FEAF5DF81E08093720108950F931F93DA
:1031D000CF938C015F985C98C62FCC2339F0F8010F
:1031E00081918F010E940B21C150F7CF5F9ACF913F
:1031F0001F910F910895A6E0B0E0E1E0F9E10C9491
:10320000183781E2898380910C018A8381588B83EE
:1032100010914D0416951695169582E28C831D83A8
:103220001E838091C80690E0079668E270E00E94D5
:10323000F5367C0183E0F594E7948A95E1F7F694FE
:10324000FE2CEE24F794E79404E020E8C22E22E05E
:10325000D22E63E0CE010196B9DF63E0CE01049681
:10326000B5DFF701E353FE4F8091C80085FFFCCF27
:103270001092CE008091C80087FFFCCF5F985C9AC7
:10328000CF0180589F4FE817F90771F021913091D5
:10329000C80037FFFCCF3091CE003091C80035FF19
:1032A000FCCF2093CE00EFCF8091C80087FFFCCFEA
:1032B0008091CE005F9AC70180589F4FB6010E944F
:1032C000E1367C011F5F17701D831E83015009F0DA
:1032D000C0CF2696E8E00C943437ACE0B0E0E3E7EA
:1032E000F9E10C941D3710E031E0310FE12FF0E0EF
:1032F000E459FD4F6491DE011196E32F262FCD0195
:10330000215048F041E04E0FF0E0E459FD4FE491C8
:10331000ED93E42FF5CF132F160F58DF103320F362
:103320008BE590E00E94953691E89B878C8762E060
:10333000CE010B964BDF30DF80E280934D045BDFE4
:1033400010924D0458DF39DF2C96E3E00C943937A6
:10335000CF93C091C80610920C0180EC28DF80EA60
:1033600026DF8C2F90E0089668E270E00E94F53628
:103370008093C80640DFC093C806CF910895CF93CD
:10338000DF93EC012D813E818B819C8128173907C9
:10339000E0F42F5F3F4F3E832D83898D803168F0AD
:1033A0006F81788540E150E0CE01099671D78F8119
:1033B0009885409698878F83198E898D91E0980F14
:1033C000998FC80FD11D898501C080E0DF91CF9111
:1033D0000895A2E0B0E0EFEEF9E10C941537B82EB5
:1033E000A62E972E8A01E22E4F3F510509F010F4C8
:1033F00000E011E0F12C011580E1180790F568015B
:1034000083E0CC0CDD1C8A95E1F781E08E1528F174
:1034100084E8E89EB00111249E012F5F3F4F42E0F7
:1034200050E0C8015BD789819A8188279072892FE3
:103430009927829586958770813069F4FB1488F40A
:10344000EA2DF92DEF0DF11DEF0DF11DC6018E29AD
:1034500091838083F394E394D8CF0F5F1F4FE12CC7
:10346000CACF8F2D2296EBE00C94313740918A051C
:1034700050918B05242F277083E0569547958A95A8
:10348000E1F76AE875E081E0A4DF811104C01092E1
:103490008B0510928A050895EDE7F5E06581768148
:1034A000645C7F4F9C0142E050E08381948116C7A9
:1034B000EDE7F5E065817681645C7F4F9C0142E039
:1034C00050E0838194814FC7EDE7F5E06581768117
:1034D000625C7F4F9C0143E050E083819481FEC693
:1034E000EDE7F5E065817681625C7F4F9C0143E00A
:1034F00050E08381948137C7A4E0B0E0E2E8FAE1CC
:103500000C941E377A8369835C834B838E3008F07A
:10351000FFCF60918205709183056E5F7F4F94E0CD
:10352000899F600D711D11249E012F5F3F4F44E064
:1035300050E0809180059091810515D72496E2E0B6
:103540000C943A37A2E0B0E0E8EAFAE10C941E37B6
:10355000EDE7F5E065817681665C7F4F9E012F5F28
:103560003F4F42E050E083819481B8D689819A81AF
:103570002296E2E00C943A37A2E0B0E0E2ECFAE105
:103580000C941E37EDE7F5E0658176819E012F5F93
:103590003F4F42E050E083819481A0D689819A8197
:1035A0002296E2E00C943A37A9E0B0E0EAEDFAE1C5
:1035B0000C941C37009184051091850584E3E0E1AB
:1035C000F6E0DF011D928A95E9F783E590E00E941D
:1035D0009536811127C0D0DF9093890580938805A7
:1035E00031C0C80123E0969587952A95E1F78115AA
:1035F000B0E19B0738F5602F677024E8629FB00147
:1036000011249E012F5F3F4F49E050E067D6E985C6
:103610008FE98E0F8A3150F0109389050093880549
:103620000D811E8101151105E1F60CC0F0E0EE0FD1
:10363000FF1FE25BFA4F80819181892B69F711832B
:103640000083EACF2996E4E00C943837A2E0B0E09A
:10365000ECE2FBE10C941E379A838983EDE7F5E0F9
:103660009287818765817681665C7F4F9E012F5F9F
:103670003F4F42E050E08381948175D62296E2E08C
:103680000C943A37A2E4B0E0E8E4FBE10C941E3776
:10369000803108F0FFCF9E012F5F3F4F92E4F90188
:1036A00011929A95E9F7682F6370F2E46F9FB00169
:1036B00011248695869542E450E090E054D6CE5B86
:1036C000DF4FE2E00C943A379B01482F477054E8F3
:1036D000459FB001112444E850E0E3E096958795BA
:1036E000EA95E1F740C6A2E0B0E0E9E7FBE10C941F
:1036F0001C378C0133E0169507953A95E1F78770F2
:1037000094E8899FB00111249E012F5F3F4F42E052
:1037100050E0C801E3D589819A819C0122273F713D
:1037200020917F05231749F088279072892F9927C8
:10373000829586958770813041F481E00F3F1105B5
:1037400011F008F080E0819501C08FEF2296E4E04F
:103750000C943837CF93DF93EB01BC01CE01CBDC67
:10376000CE01C1DF8111FFCFDF91CF910895A0E09D
:10377000B0E0EDEBFBE10C941237FA01718360834A
:10378000E0918A05F0918B05EF2B11F48FEFA1C02A
:103790005A016B014C01FC0180819181907E309136
:1037A0007F05932B9F7D91838083138212821582E4
:1037B00014826115710569F4B40180918A059091B4
:1037C0008B0582DFB40180918A0590918B0593DC93
:1037D00077C07B01C22FD0E0602E712C8E01045780
:1037E0001A4FC80DD91DB7018CE895E0B3DFA301CE
:1037F000B801CE010E948137181624F580919005FA
:1038000090919105009711F07C01EDCFF401F382C6
:10381000E282B40180918A0590918B0555DF8091F9
:103820008A0590918B0590939105809390056CE8A3
:1038300075E0C70149DF60918A0570918B05C4016D
:1038400089DF45C0882309F4A1CFF401F582E48221
:1038500080918E0590918F0593838283B40180912E
:103860008A0590918B0530DFB40180918A05909193
:103870008B0541DC80918A0590918B0590938F0593
:1038800080938E056CE875E0C7011EDFF40162814C
:1038900073816115710589F08CE895E05BDF80919B
:1038A0008A0590918B0590939105809390056CE823
:1038B00075E0F4018281938107DFCE14DF0439F4CF
:1038C00080918A0590918B05F50191838083CEDDEF
:1038D00080E0CDB7DEB7EEE00C942E370F931F9348
:1038E000CF93DF93EC018B0135DF80915C019091E8
:1038F0005D01009741F099A388A3BE01C801E4DEF1
:10390000B801CE0127DF1D8ECD59DF4F1882DF9120
:10391000CF911F910F910895CF93DF93EC011ADFA0
:10392000C058DF4F1882DF91CF910895CF92DF9278
:10393000FF920F931F93CF93DF9300D000D000D05E
:10394000CDB7DEB78E3008F0FFCF8A016B01F82EBD
:1039500060918205709183056E5F7F4F24E0829FA6
:10396000600D711D11249E012F5F3F4F44E050E018
:103970008091800590918105B1D489819A81F60169
:10398000918380838B819C81F80191838083682F50
:103990006770F4E86F9FB00111249E012B5F3F4FC9
:1039A00042E050E0E3E096958795EA95E1F796D4FA
:1039B0008D819E8188279072892F9927829586957F
:1039C0008770813091F4F80180819181892B99F081
:1039D00040E050E060E070E08F2D8EDDF601118256
:1039E0001082F8011182108206C0F8018081918155
:1039F0007ADE8111E8CF26960FB6F894DEBF0FBEAF
:103A0000CDBFDF91CF911F910F91FF90DF90CF90AD
:103A10000895A0E3B0E0EFE0FDE10C941E370E94B2
:103A2000910E0E94DB13CE01019620E2FC0111925F
:103A30002A95E9F7BE016F5D7F4F20E1FB011192EE
:103A40002A95E9F70E94C013E096E2E00C943A3719
:103A5000A0E1B0E0EEE2FDE10C941E37CE0101964C
:103A60000E94EB0ED6DFD3D40E942C10843011F0CC
:103A70008FEF18C080E00E94C92A8111F9CFCE01D2
:103A800009960E94EB0E48E050E0BE01675F7F4F51
:103A9000CE0101960E944D3721E0892B09F420E0E8
:103AA000822F81956096E2E00C943A37AFE3B0E064
:103AB000ECE5FDE10C941D378FE590E00E94953612
:103AC000182F60E081E491E00E944D12811137C00F
:103AD00010FF35C080916007882389F181E08093D1
:103AE00076011982CE010196ECD9811128C011FF0F
:103AF00003C060E088E204C014FF07C061E48CE406
:103B00000E944F2884EF91E075D412FF09C01FAEC8
:103B1000CE0101960E947F2860E08BE20E944F2830
:103B2000CE0101960E940313811109C018A2CE0193
:103B300001960E947F2860E088E20E944F28EF965D
:103B4000E3E00C943937A3E0B0E0E9EAFDE10C943E
:103B50001D37162F99E29B838A3B20F4823918F493
:103B600082E901C089EBBE016F5F7F4F90E00E9448
:103B70001E1281110EC069817A816115710549F0AB
:103B80006E517109610F711D41E050E0CE01039645
:103B90007FD38B812396E3E00C943937A2E0B0E029
:103BA000E4EDFDE10C941C37009107011091080130
:103BB000BE016F5F7F4F90E00E941E12811116C000
:103BC00069817A816115710589F040E250E0C80190
:103BD0005FD381E00D3A180719F48DE891E002C037
:103BE0008DEA91E09093080180930701C801229625
:103BF000E4E00C943837A4E5B0E0E1E0FEE10C9499
:103C00001D370E942C10823010F482E003C08230F5
:103C100029F481E009D90E94910E8CC0833009F00B
:103C200074C08FE1BBDFBC0181E00E94CE15811121
:103C30006AC065E1CE018F5A9F4F00D981115AC0E9
:103C4000FBD8BE016D5A7F4FCE018C5A9F4F0E9408
:103C500072148F3F09F44EC065968FAD659712DDE3
:103C600065968FAD65970E94871368E0CE018196B7
:103C7000D1D360E1CE018F5B9F4FCCD365964FAD22
:103C80006597BE016F5B7F4FCE0181960E94331412
:103C9000811130C0AE014F5D5F4F60E470E080E79E
:103CA00090E00E94F60E60E2CE018196B3D3AE01A1
:103CB0004F5D5F4F60E071E080EC90E00E94F60E97
:103CC000AE014F5F5F4F68E188E30E949E0EBE0128
:103CD0006F5B7F4FCE0181960E94C013CE018F5A39
:103CE0009F4F0E94740F88E09FD80E94F11310E04C
:103CF00081E004C089E098D81FEF8BE063961FAE87
:103D00001EAE639719C08BE00EC0843099F481E039
:103D10000E94C92A811104C0C9DE10E081E00CC0F4
:103D2000813031F48CE080930001AAD81FEF07C0E6
:103D30008AE0F9CF1FEF8BE080930001A1D8812F9B
:103D4000CC5ADF4FE3E00C943937A4E1B0E0EBEA62
:103D5000FEE10C940E375A019091C806DA012C91BD
:103D6000192F120F1150160F412E46944694469467
:103D700070E0690F711D1B0153E0359427945A952B
:103D8000E1F72C8610951770912F91959770998770
:103D900011966D917C911297782E9FEF960F980F48
:103DA0009D8787FF22C0482F419550E06417750713
:103DB00008F401C130E0295F3F4F43E03695279575
:103DC0004A95E1F7992781950CF49095289F700109
:103DD000299FF00C389FF00C1124B1E0EB1AF10888
:103DE00018F0C501CCDAF9CF712C88E0E8E1F1E0F8
:103DF000DE01119601900D928A95E1F7842D65E020
:103E00000E94D53640E8949F900111243F872E8769
:103E100000E0842D90E0998B888B88E090E0DC01B5
:103E2000E985AE1BB109BB8BAA8BF8EFF10FFC8BB8
:103E300021E030E02C0F3D1F210F311D3B872A87E9
:103E40003D85371508F4B7C077FCB5C0D5016C9037
:103E5000542CEE84FF84872C912C852D052C000C8E
:103E6000990B821593050CF4A4C0E889F9898E1783
:103E70009F07A1F5C50183DAFC854F1211C0F4013B
:103E8000EE0DFF1DE353FE4FAA85BB85A60DB11DA8
:103E90009C919095AA85BB852C91922B208109C07D
:103EA000F401EE0DFF1DE353FE4F2081AA85BB8573
:103EB0009C9192239083F401EE0DFF1DE353FE4F7E
:103EC000282F30E0012E02C0359527950A94E2F79D
:103ED0009081292B2083BC896B0E60C0281639067F
:103EE00009F03FC0111109C0C50149DAF701E353D8
:103EF000FE4FE80DF91D808351C0862D90E094019E
:103F00002E0D3F1DF901E353FE4F6F01E1E0F0E09C
:103F1000EC0FFD1FE80FF91F20812095D6013C9181
:103F200023232C93EA89FB89E817F9077CF4C50160
:103F300026DA282F30E0012E02C0359527950A9405
:103F4000E2F7D6019C91292B2C9301C0802F098484
:103F500001C0000F0A94EAF7F6019081092B008353
:103F60001DC0C5010CDA970123533E4FF901E80D3E
:103F7000F91D111102C080830FC0098401C0000F18
:103F80000A94EAF7282F30E0012E02C035952795D4
:103F90000A94E2F7202B2083F8EF6F0E20E8E21A54
:103FA000F108F7FE03C0E12C92E0F92E5A94082F95
:103FB00054CF739445CF6496E2E10C942A37F89479
:103FC000A89584B7877F84BF8091600088618093C3
:103FD00060008FE080936000FFCF1F920F920FB6BA
:103FE0000F9211242F933F934F935F936F937F937F
:103FF0008F939F93AF93BF93EF93FF93379916C01F
:104000008091C5048A3F41F480915504833051F179
:1040100082E08093550404C08091C5048F3F11F164
:104020008091C5048F5F8093C5041CC08091C50436
:10403000882341F080915404882321F00E94910E3E
:104040000E94DB1380915504813021F483E080933A
:10405000550406C080915504833011F01092550428
:104060001092C5048091C6049091C7040196909364
:10407000C7048093C60480E090E0893031F4209139
:10408000C6043091C704232BB1F4FC01EE0FFF1FCF
:10409000E80FF91FEB52FB4F20813181232B59F0A0
:1040A00020813181A9014150510951834083213040
:1040B000310509F4128201968A309105F1F68FB12B
:1040C0009FB181FB222720F99072892F90E034E084
:1040D000959587953A95E1F7822B39F0823039F042
:1040E00091E0813029F090E003C092E001C093E0BC
:1040F000492F50E02091C90430E02F5F3F4F2370DB
:1041000033274217530789F4811104C081E080935B
:104110005A0432C0833081F580915A04813061F5B0
:104120008091CB068823D9F01EC02091C90430E0CD
:10413000215031092370332742175307F9F48111B5
:1041400004C081E08093580417C08330A9F48091A3
:104150005804813089F48091CB06882321F0809126
:104160005904815003C0809159048F5F8093590492
:1041700010925A04109258049093C9047C9926C056
:104180008091C804823339F480917101833019F031
:1041900082E0809371018091C8048F3F29F0809163
:1041A000C8048F5F8093C80480917101813021F031
:1041B000809171018230F1F48091560490915704FE
:1041C0000196909357048093560414C08091710116
:1041D000813021F483E0809371010AC080917101E4
:1041E000833031F0109257041092560410927101EE
:1041F0001092C804FF91EF91BF91AF919F918F9161
:104200007F916F915F914F913F912F910F900FBED2
:104210000F901F9018959091C80095FFFCCF809348
:10422000CE008091C80087FFFCCF8091CE0008951A
:104230002C9887EDF0DF80E0EEDF87FFFACF2C9A35
:104240000895A0E0B0E0E7E2F1E20C9418378C01A9
:10425000EB017A012C986C0184E0C80ED11CF801A6
:104260008081D9DFF80181938F01CE16DF06B9F77F
:104270008E010E0D1F1DC017D10721F08881CBDFE5
:104280008993F9CF2C9ACDB7DEB7E8E00C94343798
:10429000A4E0B0E0EEE4F1E20C941E379C01CB0107
:1042A000FA0168E071E00E94E136AB01542F442727
:1042B000550F842B952B43E04983660F672F661FAC
:1042C000770B71956A839B838C83AF01B901CE0113
:1042D0000196B7DF2496E2E00C943A37A4E0B0E010
:1042E000E4E7F1E20C941E37FB01811560E19607CB
:1042F00008F0FFCFDA011197AE0FBF1FA830B14011
:1043000008F0FFCFB90123E02983880F991F2F2FD1
:104310003327822B932B9A838B83EC83CE010196D8
:1043200090DF2496E2E00C943A37A4E0B0E0EBE9A9
:10433000F1E20C941E37811520E1920708F0FFCFBF
:1043400023E52983880F991F9A838B831C8240E081
:1043500050E0BE016F5F7F4FCB0173DF69DF2496B2
:10436000E2E00C943A37A4E0B0E0E9EBF1E20C941F
:1043700016378115A0E19A0708F0FFCFFA013197AF
:10438000E60FF71FE830F14008F0FFCF59016A014E
:104390007B018C01CADF82E88983000F111F8F2DFA
:1043A0009927082B192B1A830B83EC82A601B501E0
:1043B000CE01019646DF3CDF2496EAE00C943237CA
:1043C00090E0FC01EE0FFF1F8E0F9F1FFC01EB52D0
:1043D000FB4F808191818617970759F08FB7F8942A
:1043E00071836083672B11F4128202C091E0928383
:1043F0008FBF0895BC016F5F7F4F85E0E1DF809143
:10440000E6048111FCCF81E08093E604089582E800
:1044100090E0F0CFCF92DF92EF92FF92282FDC0155
:1044200034E08A2F821B8617C8F58091C40481115D
:104430002AC08091BF048823E1F34FB7F894E0913C
:10444000BE0484E0E89FF0011124E258FB4FC080D5
:10445000D180E280F3808091BE0490E001968F705D
:1044600099278093BE048091BF0481508093BF043C
:104470004FBFC092C004D092C104E092C204F09237
:10448000C3043093C404E091C404E150E093C40435
:10449000F0E0E054FB4F80818D93C3CFFF90EF900D
:1044A000DF90CF9008951F920F920FB60F921124B4
:1044B000CF92DF92EF92FF920F931F932F933F9330
:1044C0004F935F936F937F938F939F93AF93BF931C
:1044D000CF93DF93EF93FF93E0917D0486B5F0E0F7
:1044E000E35AFB4F808380917D048F5F80937D042E
:1044F00080917D04803208F45EC010927D04E091CA
:104500005C04F0E0CDE5D4E00DE714E020E030E01D
:10451000A9018991280F311D411D511DA1E0B4E071
:104520000E94BC366B017C01A6E0F694E794D79418
:10453000C794AA95D1F79B01AC012C253D254E25AA
:104540005F250C171D0729F7A9E0B0E00E94BC36D3
:104550008B019C014BE036952795179507954A9559
:10456000D1F7A90198012627372748275927A1E025
:10457000B0E80E94BC36EE0FFF1FEE0FFF1FE2589F
:10458000FB4F608371838283938380915C0490E00E
:1045900001968F70992780935C048091BF048031CD
:1045A00029F480915C048093BE0405C08091BF040F
:1045B0008F5F8093BF04FF91EF91DF91CF91BF9107
:1045C000AF919F918F917F916F915F914F913F91AB
:1045D0002F911F910F91FF90EF90DF90CF900F9050
:1045E0000FBE0F901F901895A8E0B0E0EAEFF2E23E
:1045F0000C941E3790910D019F3F11F480E03FC055
:104600008032E0F390E04C9760914E0470914F043B
:10461000680F791F41E050E0CE01089639DE8885A9
:104620008F3FD1F0688527E0629FB00111246C5F55
:104630007E4F80914E0490914F04680F791F47E0A0
:1046400050E0CE01019624DE8E819F81019699F47F
:10465000898186958F5F13C060914E0470914F04DD
:104660006D5D7F4F41E050E0CE01089611DE8885F8
:104670008F3FC1F6C3CF8A818F5F9C81890F2896B7
:10468000E2E00C943A37A2E2B0E0E9E4F3E20C9401
:104690001A378A3061F490916F01992389F09091D3
:1046A0005E0780915004890F80935E0706C08D30AD
:1046B00039F490916F01992319F010925F07AAC005
:1046C000182F92DF20915F0790E0820F911D2091BB
:1046D000090130E0281739077CF480916F018111BE
:1046E00002C08FEF98C090915E0780915004890FAF
:1046F00080935E0710925F07F0905E072091500450
:104700008F2D90E0820F911D81975CF780910D01B4
:104710008F3F11F480E079C01032E0F300915F0721
:10472000812F90E04C9760914E0470914F04680F78
:10473000791F41E050E0CE018296AADD8AA18F3F29
:10474000F1F08AA127E0E22EE89EC00111248C5FDF
:104750009E4F60914E0470914F04680F791F47E09F
:1047600050E0CE014B9694DD48A159A14F3F8FEF09
:104770005807A1F41E8E8B8D182F169543C060919B
:104780004E0470914F046D5D7F4F41E050E0CE01CB
:1047900082967EDD8AA18F3FA1F6BCCF1C8D2D8D28
:1047A0008E8D6F8D6F0DE12FF0E090915304E99E97
:1047B000400D511D11244C5F5E4FA0914E04B091ED
:1047C0004F044A0F5B1F59874887FB83EA8329837D
:1047D0001F821E8290E19A8F30E0295F3F4F93E065
:1047E000369527959A95E1F72E9FA0012F9F500DA2
:1047F0003E9F500D11245D834C83AE014F5F5F4F90
:10480000800FA3DA8E8D8F5F810F90915F07890FE4
:1048100080935F0780E0A296E6E00C9436370F9312
:104820001F93CF93DF93082FEC011C2F101B89914E
:10483000882319F028DF8823C1F38091700181114A
:104840000E94FB18812FDF91CF911F910F91089546
:10485000A0E0B0E0EEE2F4E20C941737C82FC62EC9
:10486000B42E8901D0900901D0E0E12CF12CF8019F
:10487000ED0FF11D8081811104C082E0B81222C0C9
:1048800007C08D30D1F3B0DEE80EF11CDF5FEFCF53
:104890002C2F30E090917301892F90E0A901480FEF
:1048A000591F4E0D5F1D6D2D70E04617570728F5F7
:1048B000EB01C20FD31FC80FD91FCE19DF09D69540
:1048C000C7951BC081E0B81218C0CD1510F4C09375
:1048D0000901809173019701280F311D4C2F50E081
:1048E0004217530738F4C09109014C2F50E02417A8
:1048F000350710F4CE1901C0C82FC0935F07C092CE
:104900005E07C8018CDFD0920901CDB7DEB7E9E0C0
:104910000C9433379B0142E0682F80E099CFA3E2EB
:10492000B0E0E5E9F4E20C941B37182F062F842F32
:10493000F22EBE016E5D7F4F0E948B18019709F029
:1049400095C06AA17BA147E050E0CE014B96A0DC68
:104950004B8D5C8D8D8D2AA13BA1295F3F4F3987FF
:1049600028875B834A8389831F821E8290E19A8F06
:1049700090E0079623E0969587952A95E1F7849F26
:104980009001859F300D949F300D11243D832C8321
:1049900007FD05C0AE014F5F5F4F602F10C08091D3
:1049A0004D04801B8F7380934D048091C806801B3B
:1049B0008F718093C806AE014F5F5F4F60E0812F1B
:1049C000C4D9FF2009F452C010914D049D8D190FD8
:1049D000100F1F7310934D040E94FB1881E0F81212
:1049E00013C090915B04FF24F394F90EF0925B04E2
:1049F0009F731917F9F085E090E0FCDC8F2D8F7321
:104A000080640E94D718EDCF82E0F81216C0909112
:104A10005B04FF24FA94F90EF0925B049F7319175C
:104A200049F085E090E0E6DC8F2D8F7380640E9472
:104A3000D718EDCF10935B0409C083E0F81206C0CD
:104A400010935B04812F80640E94D7182091C806C0
:104A5000802F000F990B820F911D2D8D820F911DBC
:104A600068E270E00E94F5368093C806A396E5E000
:104A70000C9437378091E80080FFFCCF089586B111
:104A80008095880F880B0895EF92FF920F931F93E4
:104A9000CF93DF93182FF62EE72ED42F882311F013
:104AA000CEE301C0C0E4CD1BC7FD3DC080916007CF
:104AB0008823C9F10FB7F89462E370E085E080DCE9
:104AC00081E08093E90091E08091E80085FD09C0D4
:104AD0000FBF8091E60481111DC081E08093E60440
:104AE00023C0112321F0D093F1001093F100EF2D9A
:104AF000FE2DD15020F081918093F100FACFC1506A
:104B000018F01092F100FBCF8AE38093E8000FBF0A
:104B100080E00AC080916007882329F00FB7F894DD
:104B20009093E900D1CF8FEFCDB7DEB7E6E00C94DC
:104B300036370F931F93CF93DF93D82FC62F8A0159
:104B4000CE3358F04EE3B8018D2F9EDF811110C097
:104B5000025C1F4FCE53A1F70CC04C2FB8018D2F14
:104B600093DF91E0811101C090E0892F819501C010
:104B70008FEFDF91CF911F910F9108951F920F92A8
:104B80000FB60F9211241F932F933F934F935F9370
:104B90006F937F938F939F93AF93BF93CF93DF9345
:104BA000EF93FF931092E9008091E80083FF58C1D2
:104BB0001091F1008091F1002091F1009091F100AD
:104BC00030E0392BC091F1009091F100D0E0D92B69
:104BD0004091F1005091F10092EB9093E800863003
:104BE00009F049C089E793E0FC01659174912617AB
:104BF0003707E1F4FC01329665917491C617D70727
:104C0000A9F4FC01349665917491FC013696849167
:104C1000242F30E0352B2F3F310519F010F02FEF06
:104C200030E0281708F4822F3EEF0DC0079663E0AE
:104C3000883B9607C9F614C1690F711D891B309313
:104C4000E8008823A9F09091E800292F2570D9F376
:104C500092FD09C1982F813208F090E2FB01292FC3
:104C6000222351F344914093F10021503196F8CF23
:104C7000903249F3F8C0853069F42F772093E30030
:104C80008EEF8093E800F6DE8091E30080688093E9
:104C9000E300E9C0893039F5111168C0209360073D
:104CA0008EEF8093E80041E08FE693E04093E900C7
:104CB0009C012F5F3F4FFC0154915093EB00552313
:104CC00059F0F90124912093EC009C012D5F3F4F96
:104CD0003196E491E093ED004F5F453011F0C9014A
:104CE000E5CF8EE13EC0883039F4103809F03EC07F
:104CF000C1DE8091600792C0811113C0BBDE123803
:104D000051F4C093E9008091EB0085FB882780F97E
:104D10001092E90001C080E08093F1001092F10050
:104D20009BC0982F9D7F913009F51230F9F4232B09
:104D300009F096C0CF779FEF9C0F943008F090C099
:104D40009EEF9093E800C093E900833009F488C097
:104D500089E18093EB0081E090E001C0880FCA9563
:104D6000EAF78093EA001092EA007DC0209799F557
:104D7000113AF9F4813009F073C080E43EEF90916C
:104D8000E800292F2570D9F392FD6DC0982F81324C
:104D900008F090E2292F222321F01092F1002150F7
:104DA000FACF891B3093E8008111E9CF903239F3B3
:104DB0005AC0113209F054C0893009F051C09BEF3C
:104DC0008091E80082FD9093E8008091E80086FFE2
:104DD000F7CF50DE41C0219709F042C0113A09F5E2
:104DE000813089F447DE8091D4048093F1001092E1
:104DF000F100EBECF4E081918093F10064E0E13D9F
:104E0000F607C9F729C0823021F434DE80910B0106
:104E100005C0833029F52EDE80910A018093F100D0
:104E20001BC01132E9F4893061F48091E80082FFFF
:104E3000FCCF8091F1008093D3048BEF8093E80046
:104E40000BC08A3029F430930B011092D20404C0B5
:104E50008B3031F420930A018EEF8093E80003C079
:104E600081E28093EB00FF91EF91DF91CF91BF91B1
:104E7000AF919F918F917F916F915F914F913F91F2
:104E80002F911F910F900FBE0F901F9018951F929A
:104E90000F920FB60F9211242F933F934F935F936E
:104EA0006F937F938F939F93AF93BF93EF93FF93F2
:104EB0008091E1001092E10083FF0FC01092E900A1
:104EC00091E09093EB001092EC0092E29093ED0051
:104ED00098E09093F0001092600782FF36C08091B6
:104EE0006007882391F18091E7049091E804892B71
:104EF00019F481E08093CA0468EE7DEF86E060DA01
:104F000080910B01882309F18091D1048F5F8093F8
:104F1000D1048370D1F483E08093E9008091E800AC
:104F200085FF13C08091D2048F5F8093D20490914B
:104F30000B0189130AC087E01092F1008150E1F75C
:104F40008AE38093E8001092D204FF91EF91BF9121
:104F5000AF919F918F917F916F915F914F913F9111
:104F60002F910F900FBE0F901F9018951F93CF9306
:104F7000DF9320916007211102C08FEF31C0EC0157
:104F80001FB7F89464E070E085E01ADA82E080935D
:104F9000E90092E08091E80085FD09C01FBF809183
:104FA000E604811114C081E08093E60419C0FE017B
:104FB000CE01805C9F4F2091F10021938E179F07B7
:104FC000D1F78BE68093E8001FBF80E009C0809195
:104FD0006007882391F21FB7F8949093E900DACF25
:104FE000DF91CF911F910895A0E4B0E0EAEFF7E2DE
:104FF0000C941E37CE010196B9DF811109C09A8148
:10500000933C39F0AE014F5F5F4F60E084EC91DD7F
:105010008FEFC05CDF4FE2E00C943A37CF93809182
:105020006007811102C08FEF38C0CFB7F89483E0DA
:105030008093E90062E370E085E0C2D983E090915B
:10504000E80095FD0DC0CFBF90916007992359F3FB
:105050009091E60491111CC081E08093E6041DC08C
:105060008091D4048093F1001092F100EBECF4E015
:1050700081ED94E021912093F1008E179F07D1F7E5
:105080008AE38093E8001092D204CFBF80E005C08D
:10509000CFB7F8948093E900D2CFCF9108950F93C2
:1050A0001F93CF93C82F162F88E590E00E94953666
:1050B000882331F089E590E00E949536082F01C0E1
:1050C00000E01093D4041092CB04A8DF811113C028
:1050D00010E0C8018FD9C093CB04A0DF81110BC0B1
:1050E000C80188D91092D4041092CB0497DFC82F3E
:1050F000C80180D98C2FCF911F910F9108950F93E4
:105100001F93CF938C0180E0F801C1918F01CC23D4
:1051100009F440C081113EC0CA3019F460E088E251
:1051200035C0C93019F460E08BE230C080EE8C0FDE
:105130008F3570F582E490E00E9495366C2F0E94C6
:10514000A31D982F907C282F2F73233079F4903C47
:1051500031F0903831F0903431F460E405C062E40D
:1051600003C062E001C060E084E610C0903C19F426
:1051700062E4822F0BC0903819F462E08F7706C08A
:10518000903419F460E48F7B01C060E088DFBCCF0D
:105190008FEFBACFCF911F910F910895EDE2F7E015
:1051A0009C01205F3F4FDC014D91CD014193A2173F
:1051B000B307C9F710924D070895A0E0B0E0E3EE01
:1051C000F8E20C9413378C01C0E0D0E08DE3E82EB8
:1051D00087E0F82E90E1792E20E2C22ED12C30E12A
:1051E000A32EB12C80914D0781110FC0EDE2F7E0A5
:1051F00081918787EE16FF06D9F76DE377E08DEC96
:1052000096E00E94301170924D0780914D0790E01A
:1052100046018C1A9D0A8815990508F44C01B501C0
:10522000681B790B635C784F482DC8018C0F9D1F5C
:105230000E942611C80DD91D80914D0788198093B1
:105240004D07811105C060E18DE297E00E941811C1
:10525000C032D10538F2CDB7DEB7EDE00C942F3770
:10526000AAE0B0E0E6E3F9E20C941A371A86198650
:105270008091CC06882309F416C1489B0CC159982B
:1052800088EA0E940B218E010F5F1F4F7E0127E0ED
:10529000E20EF11C80E00E940B21F80181938F0146
:1052A000EE16FF06B9F7599A1E8180915C0790911E
:1052B0005D07212F012E000C330B8115FFEF9F0797
:1052C000A8F460915B07462F062E000C550B611762
:1052D0002CF4B901641B750BAB0102C0421B530BCC
:1052E000840F951F90935D0780935C078091590709
:1052F00090915A07280F391F30935A072093590766
:105300002C818091570790915807820F911D27FD9E
:105310009A9590935807809357072091550730919D
:1053200056072F5F3F4F309356072093550721159F
:105330003140C1F58130EAE39E0734F080910C01E1
:10534000882309F4B2C007C08115964C24F48091DB
:105350000C018111C6C01092580710925707809116
:10536000590790915A0797FF02C081509F4F909321
:105370005B0780915C0790915D078130924018F047
:105380001092540703C081E08093540710925A078B
:1053900010925907109256071092550710925D0708
:1053A00010925C0780915B0781171CF4181B812FFA
:1053B00001C0811B90915307911118C0082E000C59
:1053C000990B2091CA0630E0281739070CF063C00A
:1053D00081E0809353071092520710925107109268
:1053E000500710924F0710924E0755C0913009F0A8
:1053F00042C0082E000C990B4091CA0650E0209143
:10540000500730915107481759074CF580914E07C6
:1054100090914F07A901481B590B4932510580F063
:1054200080915407882361F08091C906882341F058
:1054300010924F0710924E0782E0809353075CC092
:1054400030934F0720934E078091520791E0980FB9
:1054500090935207853118F082E080935307C90179
:10546000019690935107809350072D32314098F068
:105470001092530710C0923071F480914E079091B2
:105480004F079C012F5F3F4F30934F0720934E07EC
:105490008139914068F781E020915C0730915D0788
:1054A0002130324048F580E027C00091C80684E0F2
:1054B00080930C0188EC0E94D71881EA0E94D718CB
:1054C000802F90E0089668E270E00E94F5368093A5
:1054D000C8060E94FB180093C8061092CB0660E035
:1054E00006C00E94A81981E08093CB0661E08AE59E
:1054F00090E00E94AB362FCF2A96E6E00C94363728
:105500000F931F93CF93DF938C0161111FC0DC01B8
:10551000EC918FE98E0F8A31A0F4F0E0EE0FFF1FBF
:10552000E25BFA4FC081D1812097C1F4E82FEE0FE2
:10553000FF0BE05FF94FC081D181209779F4815052
:10554000A8F7C0918405D091850503C00E94A21AD6
:10555000EC01209719F480E090E016C0BE0184E4CD
:1055600096E00E948C1C4FE350E06CE476E0C801AA
:105570000E948137882339F087FDEDCFC09148061E
:10558000D0914906E6CFCE01DF91CF911F910F91C7
:105590000895A1E5B0E0EFECFAE20C941C37082F77
:1055A000CE0101960E94EB0EAE014F5A5F4FBE0135
:1055B0006F5B7F4FCE0101960E94F81381115BC093
:1055C00080E690E00E9495368823D1F00023C1F058
:1055D0004EE150E063E270E0CE0181960E94853694
:1055E00042E050E06EEF73E0CE01CF960E94853628
:1055F00048E4BE016F5B7F4FCE0181960E94451546
:105600000E94EE0F182F811138C0AE014F5F5F4F1F
:1056100068E188E30E949E0E80E690E00E94953645
:105620008823D1F00023C1F04EE150E063E270E046
:10563000CE0181960E94853642E050E06EEF73E025
:10564000CE01CF960E94853649E4BE016F5F7F4F41
:10565000CE0181960E94451562968FAD62970E9499
:105660008713BE016F5B7F4FCE0101960E94C0136E
:105670000E94F11303C011E001C01FEF812FCF5A28
:10568000DF4FE4E00C943837ACE0B0E0EAE4FBE252
:105690000C940E37009709F40DC1162FBC0184E459
:1056A00096E00E948C1CE0904A06F0904B06E114B4
:1056B000F10421F48AE30E941417FCC0B70183EFC0
:1056C00094E00E946E1C8091F7049091F804892B5D
:1056D000D9F48CE496E09A83898387E10E94CE1DF9
:1056E0009C838B8388E195E09E838D83113051F0FC
:1056F000BE016F5F7F4F83EF0E94CE15882311F0AC
:10570000E12CF12CC701E3C03E2C2F2C412C4394FB
:10571000632D722D83EF94E00E946E1C8091F7043C
:105720009091F804009719F0382E292EF0CF0E949E
:10573000AD150E94620E64EF71E082E00E94E021EC
:10574000870155245394BB24B394CE0101966C0178
:10575000642C712C8FE1882E912CB11007C08091A0
:10576000DD0481116DC00E944E0E02C00E94460EE3
:1057700064EF71E082E00E94E0210E94CC18F60103
:105780008AE011928A95E9F781E40E94CE1D5C01BE
:10579000ECE4F6E001900020E9F7CF018D5496404B
:1057A0009C878B8760917A0570E0645B794F80E01D
:1057B000B1D89B85981B909377054AE0B601852D5B
:1057C00090E00E945236F60101900020E9F73197EF
:1057D0008FE28083F60101900020E9F7BF0161505C
:1057E00071094AE0C3010E945236F5010190002080
:1057F000E9F73197EA19FB09A4014E1B5F0BB601CB
:10580000C5010E947137B5018AE084D8B80183EFE1
:1058100094E00E946E1CE8E1F5E001900020E9F7B9
:10582000CF01895195405C0160917B0570E0685E15
:105830007A4F85E16FD8A81AA09278050E94FB18CC
:1058400060E080E00E94CC14833011F1823071F46A
:105850000091F5041091F6040115110511F4032DC2
:10586000122D91E05916C1F05A941AC0813061F49A
:105870000091F7041091F8040115110509F487014E
:10588000541461F053940CC08430A1F0A12C02C0D8
:10589000AA24A394B12C07C0542C02C055245394BD
:1058A000A12CBB24B3948091DA04811106C081E05D
:1058B0008093DA0480E090E00AC0E1D88823D1F335
:1058C00093DB8823B9F3AA2009F447CFC8012C96AB
:1058D000E2E10C942A37A8E0B0E0E1E7FCE20C94A6
:1058E0001E37009709F472C0BC0183EF94E00E9458
:1058F0006E1C8CE496E09A83898380911805882336
:10590000B1F180916007882309F182E10E94CE1DE8
:105910009C838B83BE016F5F7F4F82E00E94CE1518
:10592000811110C088E195E0EADB84E590E00E94F7
:1059300095368823E1F085E590E00E94953660E099
:10594000AEDB15C0823099F482E065C08AE20E9425
:10595000CE1D9C838B83BE016F5F7F4F82E00E94D0
:10596000CE158111EFCF88E195E00E94051765E122
:1059700075E087E595E00E94D91210927605809136
:105980006007882349F183E10E94CE1D9C838B83AD
:10599000BE016F5F7F4F82E00E94CE15811118C05B
:1059A00087E595E0ACDB80E2E7E5F5E0DF011D92FD
:1059B0008A95E9F786E590E00E949536882331F0D4
:1059C00087E590E00E94953660E069DB80E023C0C7
:1059D0008230D9F08FEF1FC08BE20E94CE1D9C83D6
:1059E0008B83BE016F5F7F4F82E00E94CE158111D5
:1059F000EFCF87E595E00E94051780E2E7E5F5E047
:105A0000DF011D928A95E9F7E1CF8091180588237F
:105A100009F49ACF72CF2896E2E00C943A371F939C
:105A2000CF93DF93C82F162F842FD0910D010E94A2
:105A3000B0188C2F0E94F422982F969585E0891B30
:105A400080935F0710935E078C2F0E9443238D2F56
:105A50000E94B018DF91CF911F910895CF93DF93EB
:105A6000EC01599888810E940B21888389810E94CA
:105A70000B218983599ADF91CF910895FB01982FCB
:105A80009F709A3010F0995C01C0905D918382956F
:105A90008F708A3010F0895C01C0805D8083128233
:105AA0000895FA01DC0102C005900D9221503040AA
:105AB000D8F70895A1EDB0E0E0E6FDE20C940E37D2
:105AC00082E690E00E949536782E80E090E00E9479
:105AD0009D366C01803D9A4C09F4FFCF89E0E0E0EF
