S01300007465656E73795F64656D6F2E7372656375
S11300000C94EC000C9409010C9409010C94090162
S11300100C9409010C9409010C9409010C94090134
S11300200C9409010C9409010C9470020C94AB0219
S11300300C9409010C9409010C9409010C94090114
S11300400C9409010C9409010C9409010C94090104
S11300500C9409010C9409010C9409010C940901F4
S11300600C9409010C9409010C9409010C940901E4
S11300700C9409010C9409010C9409010C940901D4
S11300800C9409010C9409010C9409010C940901C4
S11300900C9409010C9409010C9409010C940901B4
S11300A00C9409010C9409010C940901000100004D
S11300B0EB001200020000FD0042002200003F019C
S11300C01C002100000F0109002201005B013F0018
S11300D02101002F0109000300009A010401030912
S11300E0049E011602030904B6011612010002005F
S11300F0000020D016A009000101020001090242FB
S113010000020100C03209040000020300000009DB
S11301102111010001221C000705810320000107B1
S11301200502032000010904010001030101000983
S11301302111010001223F00070583030800010685
S113014031FF0A7400A1017508150026FF009520EF
S113015009018102952009029102C005010906A145
S11301600175019508050719E029E71500250181A6
S11301700295017508810395057501050819012982
S113018005910295017503910395067508150025DF
S1130190680507190029688100C0040309041603CF
S11301A04D006F006F006C00740069007000610006
S11301B073007300000016034D006F006F006C00A5
S11301C0740069007000610073007300000001C1D5
S11301D02601C02601C1060011241FBECFEFDAE0BC
S11301E0DEBFCDBF11E0A0E0B1E0E2E3F0E102C088
S11301F005900D92A63CB107D9F722E0A6ECB1E038
S113020001C01D92A231B207E1F70E940B010C94C8
S113021017080C940000E1E6F0E080E88083108287
S11302200E9451010E9468018823E1F32FEF83EDBE
S113023090E3215080409040E1F700C0000016E1B7
S1130240C5EBD1E001E682E091E00E9493041F92A5
S11302501F93DF93CF930E9401059FEF21EE84E06B
S1130260915020408040E1F700C0000060E082ED42
S113027091E00E94D2010F900F900F900F901816EA
S113028014F78091D201823621F462E085E00E9465
S1130290C3010093D20162E382ED91E00E94210246
S11302A0D2CF81E08093D70080EA8093D80082E1A6
S11302B089BD09B400FEFDCF80E98093D800109277
S11302C0E0001092D0018CE08093E20078940895CD
S11302D08091D0010895CF93DF938091D00188233A
S11302E009F445C02FB7F89483E08093E900909116
S11302F0E4009E5C8091E80085FD20C02FBF8091C2
S1130300D0018823B1F18091E40089130AC033C07D
S11303102FBF8091D001882381F18881891308C07F
S11303202EC0A9EEB0E033E0E8EEF0E0C4EED0E099
S11303302FB7F8943C93808185FFEACF8091CD015B
S1130340E1EFF0E080831082E7ECF1E08DEC91E0E6
S1130350A1EFB0E031913C93E817F907D9F78AE3AC
S11303608093E8001092D1012FBF80E009C08FEF85
S113037007C08FEF05C08FEF03C08FEF01C08FEF71
S1130380DF91CF9108956093CD018093C7010E94BE
S11303906B01811106C01092CD011092C7010E9419
S11303A06B010895CF93DF93FC018091D0018823E2
S11303B0B1F12FB7F8946093CF0182E08093E90004
S11303C08091E80085FD35C02FBF8091CF0188233F
S11303D041F18091D00181110BC025C02FBF8091C4
S11303E0CF01882311F18091D001811106C01FC073
S11303F0C9EED0E092E0A8EEB0E02FB7F89498836D
S11304008C9185FFEBCF15C03C913193E817F90728
S1130410D9F78BE68093E8002FBF80E20FC08FEFFF
S11304200DC080E00BC08FEF09C080E007C08FEFE4
S113043005C0CF018096A1EFB0E0E6CFDF91CF9168
S11304400895CF93DF93FC018091D0018823B1F10B
S11304502FB7F8946093CE0181E08093E9008091F6
S1130460E80085FD35C02FBF8091CE01882341F17E
S11304708091D00181110BC025C02FBF8091CE0186
S1130480882311F18091D001811106C01FC0C9EEEB
S1130490D0E091E0A8EEB0E02FB7F89498838C9167
S11304A085FFEBCF15C031913C93E817F907D9F7D5
S11304B08AE38093E8002FBF80E20FC08FEF0DC066
S11304C080E00BC08FEF09C080E007C08FEF05C04C
S11304D0CF018096A1EFB0E0E6CFDF91CF910895F0
S11304E01F920F920FB60F9211248F939F93EF9345
S11304F0FF93E1EEF0E08081108283FF0FC0109241
S1130500E90091E09093EB001092EC0092E290935A
S1130510ED0098E09093F0001092D00182FF12C099
S11305208091D001882371F08091CF01882319F044
S113053081508093CF018091CE01882319F081509E
S11305408093CE01FF91EF919F918F910F900FBEF9
S11305500F901F9018951F920F920FB60F921124AF
S11305600F931F932F933F934F935F936F937F93B7
S11305708F939F93AF93BF93CF93DF93EF93FF93A7
S11305801092E9008091E80083FFADC1E1EFF0E053
S1130590C081208130814081942F80E0AC01432BC5
S11305A030816081962F80E0BC01632BA081B081F3
S11305B082EF8093E800263009F059C004C081E23C
S11305C08093EB009BC1C9E08CEA90E0FC0125918B
S11305D034914217530711F007961FC0FC0132965D
S11305E0259134916217730711F0079616C0FC0128
S11305F0349645915491242F352FFC0136966491FD
S11306009B2F80E08A2B8F3F910519F010F08FEF1C
S113061090E0861728F4682F03C0C150B9F6CFCFF5
S1130620C8EED0E07EEFA1EFB0E09881492F45708D
S1130630E1F392FD63C1562F613208F050E2552375
S113064009F455C1C901452FFC010196E491EC93CD
S11306504150D1F7852F815090E00196280F391F22
S1130660651B78836111E1CF5032F9F247C125301F
S113067061F48EEF8093E800E8EEF0E0808180FF83
S1130680FDCF40684093E30039C1293081F5C111A1
S113069087C04093D0018EEF8093E80011E08EEC88
S11306A091E0C9EED0E0ABEEB0E06CEE70E04DEE60
S11306B050E018839C012F5F3F4FFC0104910C9381
S11306C0002359F0F9012491FB012083FC013296A7
S11306D003962491FA01208301C0C9011F5F1530DC
S11306E041F7EAEEF0E08EE18083108207C1283002
S11306F081F4C03809F054C0E8EEF0E0808180FF56
S1130700FDCF8091D0018093F1008EEF8093E800BB
S1130710F5C021111AC0E8EEF0E0808180FFFDCF22
S1130720C23851F4E9EEF0E060838091EB0085FB80
S1130730882780F9108201C080E0E1EFF0E0808337
S113074010828EEF8093E800D9C0213011F023305D
S113075039F5C23029F5452B09F0C5C06F777727E5
S1130760962F9150943008F0BEC09EEF9093E8000D
S11307706093E900233021F481E28093EB00BEC052
S113078089E18093EB0081E090E09C0102C0220F9C
S1130790331F6A95E2F7EAEEF0E020831082AEC0E0
S11307A061157105D1F5C13A09F5213009F09BC0F5
S11307B020E2A8EEB0E03EEFE1EFF0E08C91982F5C
S11307C09570E1F382FD9AC0922F213208F090E2F5
S11307D0992309F490C0892F10828150E9F7291BCD
S11307E03C932111EBCF903249F388C0C13209F018
S11307F07AC0293009F077C0E8EEF0E0808182FF0A
S1130800FDCF8BEF8093E800E8EEF0E0808180FF7D
S1130810FDCF8EEF8093E80071C06130710509F05F
S113082062C0C13AD1F52130D1F4E8EEF0E0808124
S113083080FFFDCF8091CD01E1EFF0E08083108255
S1130840E7ECF1E08DEC91E0A1EFB0E021912C9385
S1130850E817F907D9F78EEF8093E8004FC02230EC
S113086069F4E8EEF0E0808180FFFDCF8091000123
S11308708093F1008EEF8093E80040C0233099F517
S1130880E8EEF0E0808180FFFDCF8091010180934C
S1130890F1008EEF8093E80031C0C13221F5293098
S11308A081F4E8EEF0E0808182FFFDCF8091F100D9
S11308B08093C601E8EEF0E08BEF80838EEF8083B7
S11308C01DC02A3041F4509300011092D1018EEFE3
S11308D08093E80013C02B3031F4409301018EEF74
S11308E08093E8000BC081E28093EB0007C078831B
S11308F061119BCE03C03C93211160CFFF91EF9116
S1130900DF91CF91BF91AF919F918F917F916F9123
S11309105F914F913F912F911F910F910F900FBEB7
S11309200F901F901895AF92BF92CF92DF92EF92E3
S1130930FF920F931F93CF93DF93CDB7DEB7A097AA
S11309400FB6F894DEBF0FBECDBF7C01E82FFF2D9C
S1130950DF010D900020E9F711976D01CE1ADF0A2F
S1130960C601019696958795929582958F708927F1
S11309709F708927A82E882371F08701B12C62E328
S1130980C8010E942102181634F5B394005E1F4F6B
S1130990BA14A8F301C0B12C4C2D4F5F4F71E9F08C
S11309A08E010F5F1F4F80E2F80111928A95E9F7DB
S11309B0F0E2BF9EE00CF11C112450E06E2D7F2D5F
S11309C0C8010E942F0562E3C8010E942102181683
S11309D034F08FEF05C08FEF03C080E001C080E0EA
S11309E0A0960FB6F894DEBF0FBECDBFDF91CF91B6
S11309F01F910F91FF90EF90DF90CF90BF90AF9039
S1130A0008950F931F93CF93DF93CDB7DEB7C054F0
S1130A10D1090FB6F894DEBF0FBECDBFFE01E95B6E
S1130A20FF4F419151912E2F3F2F60E470E0CE0192
S1130A3001960E943805082F192FCE0101960E94B5
S1130A409304802F912FC05CDF4F0FB6F894DEBF64
S1130A500FBECDBFDF91CF911F910F910895FB0180
S1130A60DC0102C001900D9241505040D8F7089526
S1130A70AEE0B0E0EEE3F5E00C94EE078C01CA01C1
S1130A8046E04C831A83098377FF02C060E070E874
S1130A90615071097E836D83A901BC01CE01019669
S1130AA00E9464054D815E8157FD0AC02F813885FF
S1130AB0421753070CF49A01F801E20FF31F108256
S1130AC02E96E4E00C940A08ACE0B0E0EAE6F5E027
S1130AD00C94E0077C016B018A01FC0117821682E9
S1130AE0838181FFC6C188248394912C8C0E9D1E22
S1130AF0F7019381F60193FD859193FF81916F0135
S1130B00882309F4B2C1853239F493FD859193FFAA
S1130B1081916F01853229F4B70190E00E94560754
S1130B20E7CF512C312C20E02032A8F48B3261F035
S1130B3028F4803251F0833271F40BC08D3239F0D5
S1130B40803349F4216028C02260246025C02860D5
S1130B5023C0206121C027FD27C0382F30533A30ED
S1130B6078F426FF06C0FAE05F9E300D1124532E60
S1130B7013C08AE0389E300D1124332E20620CC03D
S1130B808E3221F426FD71C1206406C08C3611F426
S1130B90206802C0883641F4F60193FD859193FFE5
S1130BA081916F018111C0CF982F9554933018F023
S1130BB09052933028F40C5F1F4FFFE3F9830DC06C
S1130BC0833631F0833771F0833509F05EC023C07A
S1130BD0F801808189830E5F1F4F44244394512C74
S1130BE0540115C03801F2E06F0E711CF801A080A9
S1130BF0B18026FF03C0652D70E002C06FEF7FEF68
S1130C00C5012C870E944B072C0183012C856FE7BB
S1130C10262E222218C03801F2E06F0E711CF80152
S1130C20A080B18026FF03C0652D70E002C06FEF85
S1130C307FEFC5012C870E9440072C012C8550E8CA
S1130C40252E222A830123FC1CC006C0B70180E2A2
S1130C5090E00E9456073A94832D90E04816590676
S1130C60A8F30FC0F50127FC859127FE81915F0150
S1130C70B70190E00E94560731103A94F1E04F1A00
S1130C8051084114510471F7EDC0843611F08936CE
S1130C9041F5F80127FF07C060817181828193814A
S1130CA00C5F1F4F08C060817181882777FD809594
S1130CB0982F0E5F1F4F4FE6B42EB22297FF09C044
S1130CC090958095709561957F4F8F4F9F4FF0E879
S1130CD0BF2A2AE030E0A4010E948207A82EA818A7
S1130CE043C0853731F43FEEB32EB2222AE030E020
S1130CF024C099EFB92EB2228F36B9F020F488358A
S1130D0009F0B3C00DC0803721F0883709F0ADC0B9
S1130D1002C020E1B22AB4FE0BC084E0B82A08C0A5
S1130D2024FF09C0E6E0BE2A06C028E030E005C082
S1130D3020E130E002C020E132E0F801B7FE07C054
S1130D4060817181828193810C5F1F4F06C0608135
S1130D50718180E090E00E5F1F4FA4010E94820722
S1130D60A82EA818FFE7BF22B6FE0BC02B2D2E7F9E
S1130D70A51450F4B4FE0AC0B2FC08C02B2D2E7E7C
S1130D8005C07A2C2B2D03C07A2C01C0752C24FFAE
S1130D900DC0FE01EA0DF11D8081803311F4297E1E
S1130DA009C022FF06C07394739404C0822F86780E
S1130DB009F0739423FD14C020FF0FC05A2C731440
S1130DC060F4530C5718732C08C0B70180E290E00C
S1130DD02C870E94560773942C857314B0F304C0B7
S1130DE0731410F4371801C0312C24FF12C0B7015A
S1130DF080E390E02C870E9456072C8522FF1EC0BA
S1130E0021FF03C088E590E002C088E790E0B701C5
S1130E100CC0822F867891F021FD02C080E201C0CF
S1130E208BE227FD8DE2B70190E00E94560706C0D1
S1130E30B70180E390E00E9456075A94A514C0F3CA
S1130E40AA94F401EA0DF11DB701808190E00E949B
S1130E505607A110F5CF06C0B70180E290E00E94CA
S1130E6056073A943110F8CF43CEF70126813781E3
S1130E7002C02FEF3FEFC9012C96E2E10C94FC076E
S1130E80FC010590615070400110D8F78095909551
S1130E908E0F9F1F0895FC01615070400190011056
S1130EA0D8F7809590958E0F9F1F08950F931F93E9
S1130EB0CF93DF938C01EB018B8181FD03C00FEF96
S1130EC01FEF1AC082FF0DC02E813F818C819D814E
S1130ED02817390764F4E881F9810193F983E883D9
S1130EE006C0E885F985802F0995892B41F78E8105
S1130EF09F8101969F838E83C801DF91CF911F91BB
S1130F000F910895FA01AA27283051F1203181F177
S1130F10E8946F936E7F6E5F7F4F8F4F9F4FAF4FFD
S1130F20B1E03ED0B4E03CD0670F781F891F9A1F10
S1130F30A11D680F791F8A1F911DA11D6A0F711DC4
S1130F40811D911DA11D20D009F468943F912AE0D0
S1130F50269F11243019305D3193DEF6CF010895B8
S1130F60462F4770405D4193B3E00FD0C9F7F6CFE9
S1130F70462F4F70405D4A3318F0495D31FD4052B1
S1130F80419302D0A9F7EACFB4E0A6959795879547
S1130F9077956795BA95C9F7009761057105089526
S1130FA09B01AC010A2E06945795479537952795D2
S1130FB0BA95C9F7620F731F841F951FA01D08956A
S1130FC02F923F924F925F926F927F928F929F9255
S1130FD0AF92BF92CF92DF92EF92FF920F931F9343
S1130FE0CF93DF93CDB7DEB7CA1BDB0B0FB6F894F4
S1130FF0DEBF0FBECDBF09942A88398848885F8434
S11310006E847D848C849B84AA84B984C884DF80A4
S1131010EE80FD800C811B81AA81B981CE0FD11D88
S11310200FB6F894DEBF0FBECDBFED010895F8945E
S1051030FFCFEC
S11310327D014A65206B69666665206C6573206D67
S113104261726D6F747465734A65206B6966666557
S1131052206C6573206D61726D6F747465734A657B
S1131062206B69666665206C6573206D61726D6FB5
S1131072747465734A65206B69666665206C657372
S1131082206D61726D6F747465734A65206B696655
S11310926665206C6573206D61726D6F747465731F
S11310A24A65206B69666665206C6573206D6172A2
S11310B26D6F747465734A65206B69666665206C2E
S11310C26573206D61726D6F747465734A65206B0C
S11310D269666665206C6573206D61726D6F7474E8
S11310E265730D0A0074657374207072696E746698
S10910F22025640D0A0034
S9030000FC
