S0120000626F6F746C6F616465722E73726563E7
S11300000C94AE000C94C0000C94C0000C94C0007E
S11300100C94C0000C94C0000C94C0000C94C0005C
S11300200C94C0000C94C0000C9468010C948901D9
S11300300C94C0000C94C0000C94C0000C94C0003C
S11300400C94C0000C94C0000C94C0000C94C0002C
S11300500C94C0000C94C0000C94C0000C94C0001C
S11300600C94C0000C94C0000C94C0000C94C0000C
S11300700C94C0000C94C0000C94C0000C94C000FC
S11300800C94C0000C94C0000C94C0000C94C000EC
S11300900C94C0000C94C0000C94C0000C94C000DC
S11300A00C94C0000C94C0000C94C00001C1360133
S11300B0C0360000000100004A01120002000005E1
S11300C00129002200002E011C0021000017010953
S11300D00003000001010401030904FD00020203FE
S11300E00904E5001616034D006F006F006C0074E0
S11300F000690070006100730073000000020300D7
S113010000040309040902290001010080320904E2
S113011000000203000000092111010001221C005B
S11301200705020340000107058103400001063171
S1130130FF0A7400A1017508150026FF0095400907
S1130140018102954009029102C0120100020000DF
S11301500020D016A00900010102000111241FBED5
S1130160CFEFDAE0DEBFCDBF21E0A0E0B1E001C017
S11301701D92A132B207E1F70E94C2000C94D00292
S11301800C940000CF93DF93CDB7DEB7C054D109F0
S11301900FB6F894DEBF0FBECDBF78940E940C0159
S11301A00E9422018823E1F3CE0101960E942501D9
S11301B0FBCF90E0FC01EE0FFF1F8E0F9F1FFC0191
S11301C0ED5FFE4F8281811104C0613021F46283AE
S11301D0089581E0089580E0089590E0FC01EE0F19
S11301E0FF1F8E0F9F1FFC01ED5FFE4F80819181E9
S11301F08617970759F08FB7F89471836083672B3C
S113020011F4128202C091E092838FBF089580910D
S1130210E80080FFFCCF089581E08093D70080EA56
S11302208093D80082E189BD09B400FEFDCF80E946
S11302308093D8001092E000109200018CE080932B
S1130240E20008958091000108950F931F93CF93C6
S1130250DF9320910001211102C08FEF34C0192FC8
S1130260D82FCFB7F89464E070E086E00E94ED00E8
S113027082E08093E90002E08091E80085FF06C0F7
S1130280ED2FF12FCF01805C9F4F10C0CFBF61E0F5
S113029086E00E94D9008823A9F080910001882378
S11302A0E1F2CFB7F8940093E900E6CF2091F10092
S11302B02193E817F907D1F78BE68093E800CFBFC5
S11302C080E001C081E0DF91CF911F910F910895EB
S11302D01F920F920FB60F9211248F938091E10019
S11302E01092E10083FF0FC01092E90081E0809337
S11302F0EB001092EC0082E28093ED0088E08093A2
S1130300F000109200018F910F900FBE0F901F907C
S113031018951F920F920FB60F921124EF92FF922D
S11303201F932F933F934F935F936F937F938F9379
S11303309F93AF93BF93CF93DF93EF93FF93109269
S1130340E9008091E80083FF12C11091F1008091CF
S1130350F100E090F1009091F100F12CF92AC091A4
S1130360F1009091F100D0E0D92B2091F10060913F
S1130370F10092EB9093E800863009F046C037E034
S113038084EB90E0FC01459154914E155F0539F4DE
S1130390FC013296459154914C175D0721F0079664
S11303A0315081F7E4C0FC01349645915491FC012D
S11303B03696849130E0362B2F3F310519F010F03A
S11303C02FEF30E0281708F4822F3EEF9091E800D9
S11303D0292F2570D9F392FDCDC0982F813208F0D2
S11303E090E2FA01292F222331F064916093F10005
S11303F021503196F8CF490F511D891B3093E800E5
S11304008111E4CF903211F3B5C0853051F48EEFF1
S11304108093E8000E9407018E2D80688093E3009A
S1130420A9C0893039F511116CC0E09200018EEF3A
S11304308093E80041E08CEA90E04093E9009C015D
S11304402F5F3F4FFC0154915093EB00552359F01B
S1130450F90124912093EC009C012D5F3F4F3196CC
S113046084918093ED004F5F453011F0C901E5CFD1
S11304708EE142C0883051F4103809F042C00E9425
S11304800701809100018093F1006DC0811114C0B7
S11304900E940701123851F4C093E9008091EB00E7
S11304A085FB882780F91092E90001C080E08093E1
S11304B0F1001092F10057C0982F9D7F913009F5FB
S11304C01230F9F4EF2809F052C0CF779FEF9C0F58
S11304D0943008F04CC09EEF9093E800C093E9007C
S11304E0833009F444C089E18093EB0081E090E01B
S11304F001C0880FCA95EAF78093EA001092EA00D7
S113050039C0CD2BA1F5113AF1F4813081F580E4A5
S11305103EEF9091E800292F2570D9F392FD2AC06F
S1130520982F813208F090E2292F222321F0109293
S1130530F1002150FACF891B3093E8008111E9CFF3
S1130540903239F317C0113291F4893081F49BEF62
S11305508091E80082FD9093E8008091E80086FF96
S1130560F7CF0E9407018EEF8093E80003C081E279
S11305708093EB00FF91EF91DF91CF91BF91AF9109
S11305809F918F917F916F915F914F913F912F91A7
S11305901F91FF90EF900F900FBE0F901F90189532
S10705A0F894FFCFF9
S9030000FC
