S0120000626F6F746C6F616465722E73726563E7
S11300000C9456000C9460000C9460000C946000F6
S11300100C9460000C9460000C9460000C946000DC
S11300200C9460000C9460000C9460000C946000CC
S11300300C9460000C9460000C9460000C946000BC
S11300400C9460000C9460000C9460000C946000AC
S11300500C9460000C9460000C9460000C9460009C
S11300600C9460000C9460000C9460000C9460008C
S11300700C9460000C9460000C9460000C9460007C
S11300800C9460000C9460000C9460000C9460006C
S11300900C9460000C9460000C9460000C9460005C
S11300A00C9460000C9460000C94600011241FBE3A
S11300B0CFEFDAE0DEBFCDBF0E9462000C94630094
S10D00C00C940000FFCFF894FFCF6A
S9030000FC
